{
	"contracts/Array.sol": {
		"Array": {
			"abi": [
				{
					"inputs": [
						{
							"internalType": "string",
							"name": "word",
							"type": "string"
						}
					],
					"name": "add",
					"outputs": [],
					"stateMutability": "nonpayable",
					"type": "function"
				},
				{
					"inputs": [],
					"name": "getLenght",
					"outputs": [
						{
							"internalType": "uint256",
							"name": "",
							"type": "uint256"
						}
					],
					"stateMutability": "view",
					"type": "function"
				}
			],
			"devdoc": {
				"kind": "dev",
				"methods": {},
				"version": 1
			},
			"evm": {
				"assembly": "    /* \"contracts/Array.sol\":64:291  contract Array {\r... */\n  mstore(0x40, 0x80)\n  callvalue\n  dup1\n  iszero\n  tag_1\n  jumpi\n  0x00\n  dup1\n  revert\ntag_1:\n  pop\n  dataSize(sub_0)\n  dup1\n  dataOffset(sub_0)\n  0x00\n  codecopy\n  0x00\n  return\nstop\n\nsub_0: assembly {\n        /* \"contracts/Array.sol\":64:291  contract Array {\r... */\n      mstore(0x40, 0x80)\n      callvalue\n      dup1\n      iszero\n      tag_1\n      jumpi\n      0x00\n      dup1\n      revert\n    tag_1:\n      pop\n      jumpi(tag_2, lt(calldatasize, 0x04))\n      shr(0xe0, calldataload(0x00))\n      dup1\n      0xb0c8f9dc\n      eq\n      tag_3\n      jumpi\n      dup1\n      0xbed2a42e\n      eq\n      tag_4\n      jumpi\n    tag_2:\n      0x00\n      dup1\n      revert\n        /* \"contracts/Array.sol\":113:190  function add(string memory word) public {\r... */\n    tag_3:\n      tag_5\n      0x04\n      dup1\n      calldatasize\n      sub\n      dup2\n      add\n      swap1\n      tag_6\n      swap2\n      swap1\n      tag_7\n      jump\t// in\n    tag_6:\n      tag_8\n      jump\t// in\n    tag_5:\n      stop\n        /* \"contracts/Array.sol\":198:286  function getLenght() public view returns (uint) {\r... */\n    tag_4:\n      tag_9\n      tag_10\n      jump\t// in\n    tag_9:\n      mload(0x40)\n      tag_11\n      swap2\n      swap1\n      tag_12\n      jump\t// in\n    tag_11:\n      mload(0x40)\n      dup1\n      swap2\n      sub\n      swap1\n      return\n        /* \"contracts/Array.sol\":113:190  function add(string memory word) public {\r... */\n    tag_8:\n        /* \"contracts/Array.sol\":164:171  letters */\n      0x00\n        /* \"contracts/Array.sol\":177:181  word */\n      dup2\n        /* \"contracts/Array.sol\":164:182  letters.push(word) */\n      swap1\n      dup1\n      0x01\n      dup2\n      sload\n      add\n      dup1\n      dup3\n      sstore\n      dup1\n      swap2\n      pop\n      pop\n      0x01\n      swap1\n      sub\n      swap1\n      0x00\n      mstore\n      keccak256(0x00, 0x20)\n      add\n      0x00\n      swap1\n      swap2\n      swap1\n      swap2\n      swap1\n      swap2\n      pop\n      swap1\n      dup1\n      mload\n      swap1\n      0x20\n      add\n      swap1\n      tag_15\n      swap3\n      swap2\n      swap1\n      tag_16\n      jump\t// in\n    tag_15:\n      pop\n        /* \"contracts/Array.sol\":113:190  function add(string memory word) public {\r... */\n      pop\n      jump\t// out\n        /* \"contracts/Array.sol\":198:286  function getLenght() public view returns (uint) {\r... */\n    tag_10:\n        /* \"contracts/Array.sol\":240:244  uint */\n      0x00\n        /* \"contracts/Array.sol\":264:271  letters */\n      dup1\n        /* \"contracts/Array.sol\":264:278  letters.length */\n      dup1\n      sload\n      swap1\n      pop\n        /* \"contracts/Array.sol\":257:278  return letters.length */\n      swap1\n      pop\n        /* \"contracts/Array.sol\":198:286  function getLenght() public view returns (uint) {\r... */\n      swap1\n      jump\t// out\n    tag_16:\n      dup3\n      dup1\n      sload\n      tag_18\n      swap1\n      tag_19\n      jump\t// in\n    tag_18:\n      swap1\n      0x00\n      mstore\n      keccak256(0x00, 0x20)\n      swap1\n      0x1f\n      add\n      0x20\n      swap1\n      div\n      dup2\n      add\n      swap3\n      dup3\n      tag_21\n      jumpi\n      0x00\n      dup6\n      sstore\n      jump(tag_20)\n    tag_21:\n      dup3\n      0x1f\n      lt\n      tag_22\n      jumpi\n      dup1\n      mload\n      not(0xff)\n      and\n      dup4\n      dup1\n      add\n      or\n      dup6\n      sstore\n      jump(tag_20)\n    tag_22:\n      dup3\n      dup1\n      add\n      0x01\n      add\n      dup6\n      sstore\n      dup3\n      iszero\n      tag_20\n      jumpi\n      swap2\n      dup3\n      add\n    tag_23:\n      dup3\n      dup2\n      gt\n      iszero\n      tag_24\n      jumpi\n      dup3\n      mload\n      dup3\n      sstore\n      swap2\n      0x20\n      add\n      swap2\n      swap1\n      0x01\n      add\n      swap1\n      jump(tag_23)\n    tag_24:\n    tag_20:\n      pop\n      swap1\n      pop\n      tag_25\n      swap2\n      swap1\n      tag_26\n      jump\t// in\n    tag_25:\n      pop\n      swap1\n      jump\t// out\n    tag_26:\n    tag_27:\n      dup1\n      dup3\n      gt\n      iszero\n      tag_28\n      jumpi\n      0x00\n      dup2\n      0x00\n      swap1\n      sstore\n      pop\n      0x01\n      add\n      jump(tag_27)\n    tag_28:\n      pop\n      swap1\n      jump\t// out\n        /* \"#utility.yul\":7:419   */\n    tag_30:\n        /* \"#utility.yul\":85:90   */\n      0x00\n        /* \"#utility.yul\":110:176   */\n      tag_32\n        /* \"#utility.yul\":126:175   */\n      tag_33\n        /* \"#utility.yul\":168:174   */\n      dup5\n        /* \"#utility.yul\":126:175   */\n      tag_34\n      jump\t// in\n    tag_33:\n        /* \"#utility.yul\":110:176   */\n      tag_35\n      jump\t// in\n    tag_32:\n        /* \"#utility.yul\":101:176   */\n      swap1\n      pop\n        /* \"#utility.yul\":199:205   */\n      dup3\n        /* \"#utility.yul\":192:197   */\n      dup2\n        /* \"#utility.yul\":185:206   */\n      mstore\n        /* \"#utility.yul\":237:241   */\n      0x20\n        /* \"#utility.yul\":230:235   */\n      dup2\n        /* \"#utility.yul\":226:242   */\n      add\n        /* \"#utility.yul\":275:278   */\n      dup5\n        /* \"#utility.yul\":266:272   */\n      dup5\n        /* \"#utility.yul\":261:264   */\n      dup5\n        /* \"#utility.yul\":257:273   */\n      add\n        /* \"#utility.yul\":254:279   */\n      gt\n        /* \"#utility.yul\":251:363   */\n      iszero\n      tag_36\n      jumpi\n        /* \"#utility.yul\":282:361   */\n      tag_37\n      tag_38\n      jump\t// in\n    tag_37:\n        /* \"#utility.yul\":251:363   */\n    tag_36:\n        /* \"#utility.yul\":372:413   */\n      tag_39\n        /* \"#utility.yul\":406:412   */\n      dup5\n        /* \"#utility.yul\":401:404   */\n      dup3\n        /* \"#utility.yul\":396:399   */\n      dup6\n        /* \"#utility.yul\":372:413   */\n      tag_40\n      jump\t// in\n    tag_39:\n        /* \"#utility.yul\":91:419   */\n      pop\n        /* \"#utility.yul\":7:419   */\n      swap4\n      swap3\n      pop\n      pop\n      pop\n      jump\t// out\n        /* \"#utility.yul\":439:779   */\n    tag_41:\n        /* \"#utility.yul\":495:500   */\n      0x00\n        /* \"#utility.yul\":544:547   */\n      dup3\n        /* \"#utility.yul\":537:541   */\n      0x1f\n        /* \"#utility.yul\":529:535   */\n      dup4\n        /* \"#utility.yul\":525:542   */\n      add\n        /* \"#utility.yul\":521:548   */\n      slt\n        /* \"#utility.yul\":511:633   */\n      tag_43\n      jumpi\n        /* \"#utility.yul\":552:631   */\n      tag_44\n      tag_45\n      jump\t// in\n    tag_44:\n        /* \"#utility.yul\":511:633   */\n    tag_43:\n        /* \"#utility.yul\":669:675   */\n      dup2\n        /* \"#utility.yul\":656:676   */\n      calldataload\n        /* \"#utility.yul\":694:773   */\n      tag_46\n        /* \"#utility.yul\":769:772   */\n      dup5\n        /* \"#utility.yul\":761:767   */\n      dup3\n        /* \"#utility.yul\":754:758   */\n      0x20\n        /* \"#utility.yul\":746:752   */\n      dup7\n        /* \"#utility.yul\":742:759   */\n      add\n        /* \"#utility.yul\":694:773   */\n      tag_30\n      jump\t// in\n    tag_46:\n        /* \"#utility.yul\":685:773   */\n      swap2\n      pop\n        /* \"#utility.yul\":501:779   */\n      pop\n        /* \"#utility.yul\":439:779   */\n      swap3\n      swap2\n      pop\n      pop\n      jump\t// out\n        /* \"#utility.yul\":785:1294   */\n    tag_7:\n        /* \"#utility.yul\":854:860   */\n      0x00\n        /* \"#utility.yul\":903:905   */\n      0x20\n        /* \"#utility.yul\":891:900   */\n      dup3\n        /* \"#utility.yul\":882:889   */\n      dup5\n        /* \"#utility.yul\":878:901   */\n      sub\n        /* \"#utility.yul\":874:906   */\n      slt\n        /* \"#utility.yul\":871:990   */\n      iszero\n      tag_48\n      jumpi\n        /* \"#utility.yul\":909:988   */\n      tag_49\n      tag_50\n      jump\t// in\n    tag_49:\n        /* \"#utility.yul\":871:990   */\n    tag_48:\n        /* \"#utility.yul\":1057:1058   */\n      0x00\n        /* \"#utility.yul\":1046:1055   */\n      dup3\n        /* \"#utility.yul\":1042:1059   */\n      add\n        /* \"#utility.yul\":1029:1060   */\n      calldataload\n        /* \"#utility.yul\":1087:1105   */\n      0xffffffffffffffff\n        /* \"#utility.yul\":1079:1085   */\n      dup2\n        /* \"#utility.yul\":1076:1106   */\n      gt\n        /* \"#utility.yul\":1073:1190   */\n      iszero\n      tag_51\n      jumpi\n        /* \"#utility.yul\":1109:1188   */\n      tag_52\n      tag_53\n      jump\t// in\n    tag_52:\n        /* \"#utility.yul\":1073:1190   */\n    tag_51:\n        /* \"#utility.yul\":1214:1277   */\n      tag_54\n        /* \"#utility.yul\":1269:1276   */\n      dup5\n        /* \"#utility.yul\":1260:1266   */\n      dup3\n        /* \"#utility.yul\":1249:1258   */\n      dup6\n        /* \"#utility.yul\":1245:1267   */\n      add\n        /* \"#utility.yul\":1214:1277   */\n      tag_41\n      jump\t// in\n    tag_54:\n        /* \"#utility.yul\":1204:1277   */\n      swap2\n      pop\n        /* \"#utility.yul\":1000:1287   */\n      pop\n        /* \"#utility.yul\":785:1294   */\n      swap3\n      swap2\n      pop\n      pop\n      jump\t// out\n        /* \"#utility.yul\":1300:1418   */\n    tag_55:\n        /* \"#utility.yul\":1387:1411   */\n      tag_57\n        /* \"#utility.yul\":1405:1410   */\n      dup2\n        /* \"#utility.yul\":1387:1411   */\n      tag_58\n      jump\t// in\n    tag_57:\n        /* \"#utility.yul\":1382:1385   */\n      dup3\n        /* \"#utility.yul\":1375:1412   */\n      mstore\n        /* \"#utility.yul\":1300:1418   */\n      pop\n      pop\n      jump\t// out\n        /* \"#utility.yul\":1424:1646   */\n    tag_12:\n        /* \"#utility.yul\":1517:1521   */\n      0x00\n        /* \"#utility.yul\":1555:1557   */\n      0x20\n        /* \"#utility.yul\":1544:1553   */\n      dup3\n        /* \"#utility.yul\":1540:1558   */\n      add\n        /* \"#utility.yul\":1532:1558   */\n      swap1\n      pop\n        /* \"#utility.yul\":1568:1639   */\n      tag_60\n        /* \"#utility.yul\":1636:1637   */\n      0x00\n        /* \"#utility.yul\":1625:1634   */\n      dup4\n        /* \"#utility.yul\":1621:1638   */\n      add\n        /* \"#utility.yul\":1612:1618   */\n      dup5\n        /* \"#utility.yul\":1568:1639   */\n      tag_55\n      jump\t// in\n    tag_60:\n        /* \"#utility.yul\":1424:1646   */\n      swap3\n      swap2\n      pop\n      pop\n      jump\t// out\n        /* \"#utility.yul\":1652:1781   */\n    tag_35:\n        /* \"#utility.yul\":1686:1692   */\n      0x00\n        /* \"#utility.yul\":1713:1733   */\n      tag_62\n      tag_63\n      jump\t// in\n    tag_62:\n        /* \"#utility.yul\":1703:1733   */\n      swap1\n      pop\n        /* \"#utility.yul\":1742:1775   */\n      tag_64\n        /* \"#utility.yul\":1770:1774   */\n      dup3\n        /* \"#utility.yul\":1762:1768   */\n      dup3\n        /* \"#utility.yul\":1742:1775   */\n      tag_65\n      jump\t// in\n    tag_64:\n        /* \"#utility.yul\":1652:1781   */\n      swap2\n      swap1\n      pop\n      jump\t// out\n        /* \"#utility.yul\":1787:1862   */\n    tag_63:\n        /* \"#utility.yul\":1820:1826   */\n      0x00\n        /* \"#utility.yul\":1853:1855   */\n      0x40\n        /* \"#utility.yul\":1847:1856   */\n      mload\n        /* \"#utility.yul\":1837:1856   */\n      swap1\n      pop\n        /* \"#utility.yul\":1787:1862   */\n      swap1\n      jump\t// out\n        /* \"#utility.yul\":1868:2176   */\n    tag_34:\n        /* \"#utility.yul\":1930:1934   */\n      0x00\n        /* \"#utility.yul\":2020:2038   */\n      0xffffffffffffffff\n        /* \"#utility.yul\":2012:2018   */\n      dup3\n        /* \"#utility.yul\":2009:2039   */\n      gt\n        /* \"#utility.yul\":2006:2062   */\n      iszero\n      tag_68\n      jumpi\n        /* \"#utility.yul\":2042:2060   */\n      tag_69\n      tag_70\n      jump\t// in\n    tag_69:\n        /* \"#utility.yul\":2006:2062   */\n    tag_68:\n        /* \"#utility.yul\":2080:2109   */\n      tag_71\n        /* \"#utility.yul\":2102:2108   */\n      dup3\n        /* \"#utility.yul\":2080:2109   */\n      tag_72\n      jump\t// in\n    tag_71:\n        /* \"#utility.yul\":2072:2109   */\n      swap1\n      pop\n        /* \"#utility.yul\":2164:2168   */\n      0x20\n        /* \"#utility.yul\":2158:2162   */\n      dup2\n        /* \"#utility.yul\":2154:2169   */\n      add\n        /* \"#utility.yul\":2146:2169   */\n      swap1\n      pop\n        /* \"#utility.yul\":1868:2176   */\n      swap2\n      swap1\n      pop\n      jump\t// out\n        /* \"#utility.yul\":2182:2259   */\n    tag_58:\n        /* \"#utility.yul\":2219:2226   */\n      0x00\n        /* \"#utility.yul\":2248:2253   */\n      dup2\n        /* \"#utility.yul\":2237:2253   */\n      swap1\n      pop\n        /* \"#utility.yul\":2182:2259   */\n      swap2\n      swap1\n      pop\n      jump\t// out\n        /* \"#utility.yul\":2265:2419   */\n    tag_40:\n        /* \"#utility.yul\":2349:2355   */\n      dup3\n        /* \"#utility.yul\":2344:2347   */\n      dup2\n        /* \"#utility.yul\":2339:2342   */\n      dup4\n        /* \"#utility.yul\":2326:2356   */\n      calldatacopy\n        /* \"#utility.yul\":2411:2412   */\n      0x00\n        /* \"#utility.yul\":2402:2408   */\n      dup4\n        /* \"#utility.yul\":2397:2400   */\n      dup4\n        /* \"#utility.yul\":2393:2409   */\n      add\n        /* \"#utility.yul\":2386:2413   */\n      mstore\n        /* \"#utility.yul\":2265:2419   */\n      pop\n      pop\n      pop\n      jump\t// out\n        /* \"#utility.yul\":2425:2745   */\n    tag_19:\n        /* \"#utility.yul\":2469:2475   */\n      0x00\n        /* \"#utility.yul\":2506:2507   */\n      0x02\n        /* \"#utility.yul\":2500:2504   */\n      dup3\n        /* \"#utility.yul\":2496:2508   */\n      div\n        /* \"#utility.yul\":2486:2508   */\n      swap1\n      pop\n        /* \"#utility.yul\":2553:2554   */\n      0x01\n        /* \"#utility.yul\":2547:2551   */\n      dup3\n        /* \"#utility.yul\":2543:2555   */\n      and\n        /* \"#utility.yul\":2574:2592   */\n      dup1\n        /* \"#utility.yul\":2564:2645   */\n      tag_76\n      jumpi\n        /* \"#utility.yul\":2630:2634   */\n      0x7f\n        /* \"#utility.yul\":2622:2628   */\n      dup3\n        /* \"#utility.yul\":2618:2635   */\n      and\n        /* \"#utility.yul\":2608:2635   */\n      swap2\n      pop\n        /* \"#utility.yul\":2564:2645   */\n    tag_76:\n        /* \"#utility.yul\":2692:2694   */\n      0x20\n        /* \"#utility.yul\":2684:2690   */\n      dup3\n        /* \"#utility.yul\":2681:2695   */\n      lt\n        /* \"#utility.yul\":2661:2679   */\n      dup2\n        /* \"#utility.yul\":2658:2696   */\n      eq\n        /* \"#utility.yul\":2655:2739   */\n      iszero\n      tag_77\n      jumpi\n        /* \"#utility.yul\":2711:2729   */\n      tag_78\n      tag_79\n      jump\t// in\n    tag_78:\n        /* \"#utility.yul\":2655:2739   */\n    tag_77:\n        /* \"#utility.yul\":2476:2745   */\n      pop\n        /* \"#utility.yul\":2425:2745   */\n      swap2\n      swap1\n      pop\n      jump\t// out\n        /* \"#utility.yul\":2751:3032   */\n    tag_65:\n        /* \"#utility.yul\":2834:2861   */\n      tag_81\n        /* \"#utility.yul\":2856:2860   */\n      dup3\n        /* \"#utility.yul\":2834:2861   */\n      tag_72\n      jump\t// in\n    tag_81:\n        /* \"#utility.yul\":2826:2832   */\n      dup2\n        /* \"#utility.yul\":2822:2862   */\n      add\n        /* \"#utility.yul\":2964:2970   */\n      dup2\n        /* \"#utility.yul\":2952:2962   */\n      dup2\n        /* \"#utility.yul\":2949:2971   */\n      lt\n        /* \"#utility.yul\":2928:2946   */\n      0xffffffffffffffff\n        /* \"#utility.yul\":2916:2926   */\n      dup3\n        /* \"#utility.yul\":2913:2947   */\n      gt\n        /* \"#utility.yul\":2910:2972   */\n      or\n        /* \"#utility.yul\":2907:2995   */\n      iszero\n      tag_82\n      jumpi\n        /* \"#utility.yul\":2975:2993   */\n      tag_83\n      tag_70\n      jump\t// in\n    tag_83:\n        /* \"#utility.yul\":2907:2995   */\n    tag_82:\n        /* \"#utility.yul\":3015:3025   */\n      dup1\n        /* \"#utility.yul\":3011:3013   */\n      0x40\n        /* \"#utility.yul\":3004:3026   */\n      mstore\n        /* \"#utility.yul\":2794:3032   */\n      pop\n        /* \"#utility.yul\":2751:3032   */\n      pop\n      pop\n      jump\t// out\n        /* \"#utility.yul\":3038:3218   */\n    tag_79:\n        /* \"#utility.yul\":3086:3163   */\n      0x4e487b7100000000000000000000000000000000000000000000000000000000\n        /* \"#utility.yul\":3083:3084   */\n      0x00\n        /* \"#utility.yul\":3076:3164   */\n      mstore\n        /* \"#utility.yul\":3183:3187   */\n      0x22\n        /* \"#utility.yul\":3180:3181   */\n      0x04\n        /* \"#utility.yul\":3173:3188   */\n      mstore\n        /* \"#utility.yul\":3207:3211   */\n      0x24\n        /* \"#utility.yul\":3204:3205   */\n      0x00\n        /* \"#utility.yul\":3197:3212   */\n      revert\n        /* \"#utility.yul\":3224:3404   */\n    tag_70:\n        /* \"#utility.yul\":3272:3349   */\n      0x4e487b7100000000000000000000000000000000000000000000000000000000\n        /* \"#utility.yul\":3269:3270   */\n      0x00\n        /* \"#utility.yul\":3262:3350   */\n      mstore\n        /* \"#utility.yul\":3369:3373   */\n      0x41\n        /* \"#utility.yul\":3366:3367   */\n      0x04\n        /* \"#utility.yul\":3359:3374   */\n      mstore\n        /* \"#utility.yul\":3393:3397   */\n      0x24\n        /* \"#utility.yul\":3390:3391   */\n      0x00\n        /* \"#utility.yul\":3383:3398   */\n      revert\n        /* \"#utility.yul\":3410:3527   */\n    tag_45:\n        /* \"#utility.yul\":3519:3520   */\n      0x00\n        /* \"#utility.yul\":3516:3517   */\n      dup1\n        /* \"#utility.yul\":3509:3521   */\n      revert\n        /* \"#utility.yul\":3533:3650   */\n    tag_38:\n        /* \"#utility.yul\":3642:3643   */\n      0x00\n        /* \"#utility.yul\":3639:3640   */\n      dup1\n        /* \"#utility.yul\":3632:3644   */\n      revert\n        /* \"#utility.yul\":3656:3773   */\n    tag_53:\n        /* \"#utility.yul\":3765:3766   */\n      0x00\n        /* \"#utility.yul\":3762:3763   */\n      dup1\n        /* \"#utility.yul\":3755:3767   */\n      revert\n        /* \"#utility.yul\":3779:3896   */\n    tag_50:\n        /* \"#utility.yul\":3888:3889   */\n      0x00\n        /* \"#utility.yul\":3885:3886   */\n      dup1\n        /* \"#utility.yul\":3878:3890   */\n      revert\n        /* \"#utility.yul\":3902:4004   */\n    tag_72:\n        /* \"#utility.yul\":3943:3949   */\n      0x00\n        /* \"#utility.yul\":3994:3996   */\n      0x1f\n        /* \"#utility.yul\":3990:3997   */\n      not\n        /* \"#utility.yul\":3985:3987   */\n      0x1f\n        /* \"#utility.yul\":3978:3983   */\n      dup4\n        /* \"#utility.yul\":3974:3988   */\n      add\n        /* \"#utility.yul\":3970:3998   */\n      and\n        /* \"#utility.yul\":3960:3998   */\n      swap1\n      pop\n        /* \"#utility.yul\":3902:4004   */\n      swap2\n      swap1\n      pop\n      jump\t// out\n\n    auxdata: 0xa26469706673582212204cd308465cdaa9d30c7b03b768498c260239baacb3e5b8270c242ebde709b4d464736f6c63430008070033\n}\n",
				"bytecode": {
					"linkReferences": {},
					"object": "608060405234801561001057600080fd5b506103d1806100206000396000f3fe608060405234801561001057600080fd5b50600436106100365760003560e01c8063b0c8f9dc1461003b578063bed2a42e14610057575b600080fd5b610055600480360381019061005091906101d3565b610075565b005b61005f6100b4565b60405161006c919061022b565b60405180910390f35b6000819080600181540180825580915050600190039060005260206000200160009091909190915090805190602001906100b09291906100c0565b5050565b60008080549050905090565b8280546100cc906102b5565b90600052602060002090601f0160209004810192826100ee5760008555610135565b82601f1061010757805160ff1916838001178555610135565b82800160010185558215610135579182015b82811115610134578251825591602001919060010190610119565b5b5090506101429190610146565b5090565b5b8082111561015f576000816000905550600101610147565b5090565b60006101766101718461026b565b610246565b9050828152602081018484840111156101925761019161037b565b5b61019d8482856102a6565b509392505050565b600082601f8301126101ba576101b9610376565b5b81356101ca848260208601610163565b91505092915050565b6000602082840312156101e9576101e8610385565b5b600082013567ffffffffffffffff81111561020757610206610380565b5b610213848285016101a5565b91505092915050565b6102258161029c565b82525050565b6000602082019050610240600083018461021c565b92915050565b6000610250610261565b905061025c82826102e7565b919050565b6000604051905090565b600067ffffffffffffffff82111561028657610285610347565b5b61028f8261038a565b9050602081019050919050565b6000819050919050565b82818337600083830152505050565b600060028204905060018216806102cd57607f821691505b602082108114156102e1576102e0610318565b5b50919050565b6102f08261038a565b810181811067ffffffffffffffff8211171561030f5761030e610347565b5b80604052505050565b7f4e487b7100000000000000000000000000000000000000000000000000000000600052602260045260246000fd5b7f4e487b7100000000000000000000000000000000000000000000000000000000600052604160045260246000fd5b600080fd5b600080fd5b600080fd5b600080fd5b6000601f19601f830116905091905056fea26469706673582212204cd308465cdaa9d30c7b03b768498c260239baacb3e5b8270c242ebde709b4d464736f6c63430008070033",
					"opcodes": "PUSH1 0x80 PUSH1 0x40 MSTORE CALLVALUE DUP1 ISZERO PUSH2 0x10 JUMPI PUSH1 0x0 DUP1 REVERT JUMPDEST POP PUSH2 0x3D1 DUP1 PUSH2 0x20 PUSH1 0x0 CODECOPY PUSH1 0x0 RETURN INVALID PUSH1 0x80 PUSH1 0x40 MSTORE CALLVALUE DUP1 ISZERO PUSH2 0x10 JUMPI PUSH1 0x0 DUP1 REVERT JUMPDEST POP PUSH1 0x4 CALLDATASIZE LT PUSH2 0x36 JUMPI PUSH1 0x0 CALLDATALOAD PUSH1 0xE0 SHR DUP1 PUSH4 0xB0C8F9DC EQ PUSH2 0x3B JUMPI DUP1 PUSH4 0xBED2A42E EQ PUSH2 0x57 JUMPI JUMPDEST PUSH1 0x0 DUP1 REVERT JUMPDEST PUSH2 0x55 PUSH1 0x4 DUP1 CALLDATASIZE SUB DUP2 ADD SWAP1 PUSH2 0x50 SWAP2 SWAP1 PUSH2 0x1D3 JUMP JUMPDEST PUSH2 0x75 JUMP JUMPDEST STOP JUMPDEST PUSH2 0x5F PUSH2 0xB4 JUMP JUMPDEST PUSH1 0x40 MLOAD PUSH2 0x6C SWAP2 SWAP1 PUSH2 0x22B JUMP JUMPDEST PUSH1 0x40 MLOAD DUP1 SWAP2 SUB SWAP1 RETURN JUMPDEST PUSH1 0x0 DUP2 SWAP1 DUP1 PUSH1 0x1 DUP2 SLOAD ADD DUP1 DUP3 SSTORE DUP1 SWAP2 POP POP PUSH1 0x1 SWAP1 SUB SWAP1 PUSH1 0x0 MSTORE PUSH1 0x20 PUSH1 0x0 KECCAK256 ADD PUSH1 0x0 SWAP1 SWAP2 SWAP1 SWAP2 SWAP1 SWAP2 POP SWAP1 DUP1 MLOAD SWAP1 PUSH1 0x20 ADD SWAP1 PUSH2 0xB0 SWAP3 SWAP2 SWAP1 PUSH2 0xC0 JUMP JUMPDEST POP POP JUMP JUMPDEST PUSH1 0x0 DUP1 DUP1 SLOAD SWAP1 POP SWAP1 POP SWAP1 JUMP JUMPDEST DUP3 DUP1 SLOAD PUSH2 0xCC SWAP1 PUSH2 0x2B5 JUMP JUMPDEST SWAP1 PUSH1 0x0 MSTORE PUSH1 0x20 PUSH1 0x0 KECCAK256 SWAP1 PUSH1 0x1F ADD PUSH1 0x20 SWAP1 DIV DUP2 ADD SWAP3 DUP3 PUSH2 0xEE JUMPI PUSH1 0x0 DUP6 SSTORE PUSH2 0x135 JUMP JUMPDEST DUP3 PUSH1 0x1F LT PUSH2 0x107 JUMPI DUP1 MLOAD PUSH1 0xFF NOT AND DUP4 DUP1 ADD OR DUP6 SSTORE PUSH2 0x135 JUMP JUMPDEST DUP3 DUP1 ADD PUSH1 0x1 ADD DUP6 SSTORE DUP3 ISZERO PUSH2 0x135 JUMPI SWAP2 DUP3 ADD JUMPDEST DUP3 DUP2 GT ISZERO PUSH2 0x134 JUMPI DUP3 MLOAD DUP3 SSTORE SWAP2 PUSH1 0x20 ADD SWAP2 SWAP1 PUSH1 0x1 ADD SWAP1 PUSH2 0x119 JUMP JUMPDEST JUMPDEST POP SWAP1 POP PUSH2 0x142 SWAP2 SWAP1 PUSH2 0x146 JUMP JUMPDEST POP SWAP1 JUMP JUMPDEST JUMPDEST DUP1 DUP3 GT ISZERO PUSH2 0x15F JUMPI PUSH1 0x0 DUP2 PUSH1 0x0 SWAP1 SSTORE POP PUSH1 0x1 ADD PUSH2 0x147 JUMP JUMPDEST POP SWAP1 JUMP JUMPDEST PUSH1 0x0 PUSH2 0x176 PUSH2 0x171 DUP5 PUSH2 0x26B JUMP JUMPDEST PUSH2 0x246 JUMP JUMPDEST SWAP1 POP DUP3 DUP2 MSTORE PUSH1 0x20 DUP2 ADD DUP5 DUP5 DUP5 ADD GT ISZERO PUSH2 0x192 JUMPI PUSH2 0x191 PUSH2 0x37B JUMP JUMPDEST JUMPDEST PUSH2 0x19D DUP5 DUP3 DUP6 PUSH2 0x2A6 JUMP JUMPDEST POP SWAP4 SWAP3 POP POP POP JUMP JUMPDEST PUSH1 0x0 DUP3 PUSH1 0x1F DUP4 ADD SLT PUSH2 0x1BA JUMPI PUSH2 0x1B9 PUSH2 0x376 JUMP JUMPDEST JUMPDEST DUP2 CALLDATALOAD PUSH2 0x1CA DUP5 DUP3 PUSH1 0x20 DUP7 ADD PUSH2 0x163 JUMP JUMPDEST SWAP2 POP POP SWAP3 SWAP2 POP POP JUMP JUMPDEST PUSH1 0x0 PUSH1 0x20 DUP3 DUP5 SUB SLT ISZERO PUSH2 0x1E9 JUMPI PUSH2 0x1E8 PUSH2 0x385 JUMP JUMPDEST JUMPDEST PUSH1 0x0 DUP3 ADD CALLDATALOAD PUSH8 0xFFFFFFFFFFFFFFFF DUP2 GT ISZERO PUSH2 0x207 JUMPI PUSH2 0x206 PUSH2 0x380 JUMP JUMPDEST JUMPDEST PUSH2 0x213 DUP5 DUP3 DUP6 ADD PUSH2 0x1A5 JUMP JUMPDEST SWAP2 POP POP SWAP3 SWAP2 POP POP JUMP JUMPDEST PUSH2 0x225 DUP2 PUSH2 0x29C JUMP JUMPDEST DUP3 MSTORE POP POP JUMP JUMPDEST PUSH1 0x0 PUSH1 0x20 DUP3 ADD SWAP1 POP PUSH2 0x240 PUSH1 0x0 DUP4 ADD DUP5 PUSH2 0x21C JUMP JUMPDEST SWAP3 SWAP2 POP POP JUMP JUMPDEST PUSH1 0x0 PUSH2 0x250 PUSH2 0x261 JUMP JUMPDEST SWAP1 POP PUSH2 0x25C DUP3 DUP3 PUSH2 0x2E7 JUMP JUMPDEST SWAP2 SWAP1 POP JUMP JUMPDEST PUSH1 0x0 PUSH1 0x40 MLOAD SWAP1 POP SWAP1 JUMP JUMPDEST PUSH1 0x0 PUSH8 0xFFFFFFFFFFFFFFFF DUP3 GT ISZERO PUSH2 0x286 JUMPI PUSH2 0x285 PUSH2 0x347 JUMP JUMPDEST JUMPDEST PUSH2 0x28F DUP3 PUSH2 0x38A JUMP JUMPDEST SWAP1 POP PUSH1 0x20 DUP2 ADD SWAP1 POP SWAP2 SWAP1 POP JUMP JUMPDEST PUSH1 0x0 DUP2 SWAP1 POP SWAP2 SWAP1 POP JUMP JUMPDEST DUP3 DUP2 DUP4 CALLDATACOPY PUSH1 0x0 DUP4 DUP4 ADD MSTORE POP POP POP JUMP JUMPDEST PUSH1 0x0 PUSH1 0x2 DUP3 DIV SWAP1 POP PUSH1 0x1 DUP3 AND DUP1 PUSH2 0x2CD JUMPI PUSH1 0x7F DUP3 AND SWAP2 POP JUMPDEST PUSH1 0x20 DUP3 LT DUP2 EQ ISZERO PUSH2 0x2E1 JUMPI PUSH2 0x2E0 PUSH2 0x318 JUMP JUMPDEST JUMPDEST POP SWAP2 SWAP1 POP JUMP JUMPDEST PUSH2 0x2F0 DUP3 PUSH2 0x38A JUMP JUMPDEST DUP2 ADD DUP2 DUP2 LT PUSH8 0xFFFFFFFFFFFFFFFF DUP3 GT OR ISZERO PUSH2 0x30F JUMPI PUSH2 0x30E PUSH2 0x347 JUMP JUMPDEST JUMPDEST DUP1 PUSH1 0x40 MSTORE POP POP POP JUMP JUMPDEST PUSH32 0x4E487B7100000000000000000000000000000000000000000000000000000000 PUSH1 0x0 MSTORE PUSH1 0x22 PUSH1 0x4 MSTORE PUSH1 0x24 PUSH1 0x0 REVERT JUMPDEST PUSH32 0x4E487B7100000000000000000000000000000000000000000000000000000000 PUSH1 0x0 MSTORE PUSH1 0x41 PUSH1 0x4 MSTORE PUSH1 0x24 PUSH1 0x0 REVERT JUMPDEST PUSH1 0x0 DUP1 REVERT JUMPDEST PUSH1 0x0 DUP1 REVERT JUMPDEST PUSH1 0x0 DUP1 REVERT JUMPDEST PUSH1 0x0 DUP1 REVERT JUMPDEST PUSH1 0x0 PUSH1 0x1F NOT PUSH1 0x1F DUP4 ADD AND SWAP1 POP SWAP2 SWAP1 POP JUMP INVALID LOG2 PUSH5 0x6970667358 0x22 SLT KECCAK256 0x4C 0xD3 ADDMOD CHAINID 0x5C 0xDA 0xA9 0xD3 0xC PUSH28 0x3B768498C260239BAACB3E5B8270C242EBDE709B4D464736F6C6343 STOP ADDMOD SMOD STOP CALLER "
				},
				"gasEstimates": {
					"creation": {
						"codeDepositCost": "195400",
						"executionCost": "238",
						"totalCost": "195638"
					},
					"external": {
						"add(string)": "infinite",
						"getLenght()": "2445"
					}
				},
				"methodIdentifiers": {
					"add(string)": "b0c8f9dc",
					"getLenght()": "bed2a42e"
				}
			},
			"storageLayout": {
				"storage": [
					{
						"astId": 4,
						"contract": "contracts/Array.sol:Array",
						"label": "letters",
						"offset": 0,
						"slot": "0",
						"type": "t_array(t_string_storage)dyn_storage"
					}
				],
				"types": {
					"t_array(t_string_storage)dyn_storage": {
						"base": "t_string_storage",
						"encoding": "dynamic_array",
						"label": "string[]",
						"numberOfBytes": "32"
					},
					"t_string_storage": {
						"encoding": "bytes",
						"label": "string",
						"numberOfBytes": "32"
					}
				}
			},
			"userdoc": {
				"kind": "user",
				"methods": {},
				"version": 1
			}
		}
	}
}