{
	"contracts/SimpleStorage.sol": {
		"SimpleStorage": {
			"abi": [
				{
					"inputs": [],
					"name": "favoriteNumber",
					"outputs": [
						{
							"internalType": "uint256",
							"name": "",
							"type": "uint256"
						}
					],
					"stateMutability": "view",
					"type": "function"
				},
				{
					"inputs": [],
					"name": "retrieve",
					"outputs": [
						{
							"internalType": "uint256",
							"name": "",
							"type": "uint256"
						}
					],
					"stateMutability": "view",
					"type": "function"
				},
				{
					"inputs": [
						{
							"internalType": "uint256",
							"name": "_favoriteNumber",
							"type": "uint256"
						}
					],
					"name": "store",
					"outputs": [],
					"stateMutability": "nonpayable",
					"type": "function"
				}
			],
			"devdoc": {
				"methods": {}
			},
			"evm": {
				"assembly": "    /* \"contracts/SimpleStorage.sol\":246:1148  contract SimpleStorage {\r... */\n  mstore(0x40, 0x80)\n  callvalue\n    /* \"--CODEGEN--\":5:14   */\n  dup1\n    /* \"--CODEGEN--\":2:4   */\n  iszero\n  tag_1\n  jumpi\n    /* \"--CODEGEN--\":27:28   */\n  0x00\n    /* \"--CODEGEN--\":24:25   */\n  dup1\n    /* \"--CODEGEN--\":17:29   */\n  revert\n    /* \"--CODEGEN--\":2:4   */\ntag_1:\n    /* \"contracts/SimpleStorage.sol\":246:1148  contract SimpleStorage {\r... */\n  pop\n  dataSize(sub_0)\n  dup1\n  dataOffset(sub_0)\n  0x00\n  codecopy\n  0x00\n  return\nstop\n\nsub_0: assembly {\n        /* \"contracts/SimpleStorage.sol\":246:1148  contract SimpleStorage {\r... */\n      mstore(0x40, 0x80)\n      callvalue\n        /* \"--CODEGEN--\":5:14   */\n      dup1\n        /* \"--CODEGEN--\":2:4   */\n      iszero\n      tag_1\n      jumpi\n        /* \"--CODEGEN--\":27:28   */\n      0x00\n        /* \"--CODEGEN--\":24:25   */\n      dup1\n        /* \"--CODEGEN--\":17:29   */\n      revert\n        /* \"--CODEGEN--\":2:4   */\n    tag_1:\n        /* \"contracts/SimpleStorage.sol\":246:1148  contract SimpleStorage {\r... */\n      pop\n      jumpi(tag_2, lt(calldatasize, 0x04))\n      shr(0xe0, calldataload(0x00))\n      dup1\n      0x2e64cec1\n      eq\n      tag_3\n      jumpi\n      dup1\n      0x471f7cdf\n      eq\n      tag_4\n      jumpi\n      dup1\n      0x6057361d\n      eq\n      tag_5\n      jumpi\n    tag_2:\n        /* \"--CODEGEN--\":12:13   */\n      0x00\n        /* \"--CODEGEN--\":9:10   */\n      dup1\n        /* \"--CODEGEN--\":2:14   */\n      revert\n        /* \"contracts/SimpleStorage.sol\":1054:1143  function retrieve() public view returns(uint256) {\r... */\n    tag_3:\n      tag_6\n      tag_7\n      jump\t// in\n    tag_6:\n      mload(0x40)\n      dup1\n      dup3\n      dup2\n      mstore\n      0x20\n      add\n      swap2\n      pop\n      pop\n      mload(0x40)\n      dup1\n      swap2\n      sub\n      swap1\n      return\n        /* \"contracts/SimpleStorage.sol\":810:839  uint256 public favoriteNumber */\n    tag_4:\n      tag_8\n      tag_9\n      jump\t// in\n    tag_8:\n      mload(0x40)\n      dup1\n      dup3\n      dup2\n      mstore\n      0x20\n      add\n      swap2\n      pop\n      pop\n      mload(0x40)\n      dup1\n      swap2\n      sub\n      swap1\n      return\n        /* \"contracts/SimpleStorage.sol\":925:1046  function store(uint256 _favoriteNumber) public {\r... */\n    tag_5:\n      tag_10\n      0x04\n      dup1\n      calldatasize\n      sub\n        /* \"--CODEGEN--\":15:17   */\n      0x20\n        /* \"--CODEGEN--\":10:13   */\n      dup2\n        /* \"--CODEGEN--\":7:18   */\n      lt\n        /* \"--CODEGEN--\":4:6   */\n      iszero\n      tag_11\n      jumpi\n        /* \"--CODEGEN--\":31:32   */\n      0x00\n        /* \"--CODEGEN--\":28:29   */\n      dup1\n        /* \"--CODEGEN--\":21:33   */\n      revert\n        /* \"--CODEGEN--\":4:6   */\n    tag_11:\n        /* \"contracts/SimpleStorage.sol\":925:1046  function store(uint256 _favoriteNumber) public {\r... */\n      dup2\n      add\n      swap1\n      dup1\n      dup1\n      calldataload\n      swap1\n      0x20\n      add\n      swap1\n      swap3\n      swap2\n      swap1\n      pop\n      pop\n      pop\n      tag_12\n      jump\t// in\n    tag_10:\n      stop\n        /* \"contracts/SimpleStorage.sol\":1054:1143  function retrieve() public view returns(uint256) {\r... */\n    tag_7:\n        /* \"contracts/SimpleStorage.sol\":1094:1101  uint256 */\n      0x00\n        /* \"contracts/SimpleStorage.sol\":1121:1135  favoriteNumber */\n      dup1\n      sload\n        /* \"contracts/SimpleStorage.sol\":1114:1135  return favoriteNumber */\n      swap1\n      pop\n        /* \"contracts/SimpleStorage.sol\":1054:1143  function retrieve() public view returns(uint256) {\r... */\n      swap1\n      jump\t// out\n        /* \"contracts/SimpleStorage.sol\":810:839  uint256 public favoriteNumber */\n    tag_9:\n      sload(0x00)\n      dup2\n      jump\t// out\n        /* \"contracts/SimpleStorage.sol\":925:1046  function store(uint256 _favoriteNumber) public {\r... */\n    tag_12:\n        /* \"contracts/SimpleStorage.sol\":1023:1038  _favoriteNumber */\n      dup1\n        /* \"contracts/SimpleStorage.sol\":1006:1020  favoriteNumber */\n      0x00\n        /* \"contracts/SimpleStorage.sol\":1006:1038  favoriteNumber = _favoriteNumber */\n      dup2\n      swap1\n      sstore\n      pop\n        /* \"contracts/SimpleStorage.sol\":925:1046  function store(uint256 _favoriteNumber) public {\r... */\n      pop\n      jump\t// out\n\n    auxdata: 0xa264697066735822122074c1c34f63784c5467d4dad14e288ac597b2f398e667963e425ac73f11bf184764736f6c63430006080033\n}\n",
				"bytecode": {
					"linkReferences": {},
					"object": "608060405234801561001057600080fd5b5060f38061001f6000396000f3fe6080604052348015600f57600080fd5b5060043610603c5760003560e01c80632e64cec1146041578063471f7cdf14605d5780636057361d146079575b600080fd5b604760a4565b6040518082815260200191505060405180910390f35b606360ad565b6040518082815260200191505060405180910390f35b60a260048036036020811015608d57600080fd5b810190808035906020019092919050505060b3565b005b60008054905090565b60005481565b806000819055505056fea264697066735822122074c1c34f63784c5467d4dad14e288ac597b2f398e667963e425ac73f11bf184764736f6c63430006080033",
					"opcodes": "PUSH1 0x80 PUSH1 0x40 MSTORE CALLVALUE DUP1 ISZERO PUSH2 0x10 JUMPI PUSH1 0x0 DUP1 REVERT JUMPDEST POP PUSH1 0xF3 DUP1 PUSH2 0x1F PUSH1 0x0 CODECOPY PUSH1 0x0 RETURN INVALID PUSH1 0x80 PUSH1 0x40 MSTORE CALLVALUE DUP1 ISZERO PUSH1 0xF JUMPI PUSH1 0x0 DUP1 REVERT JUMPDEST POP PUSH1 0x4 CALLDATASIZE LT PUSH1 0x3C JUMPI PUSH1 0x0 CALLDATALOAD PUSH1 0xE0 SHR DUP1 PUSH4 0x2E64CEC1 EQ PUSH1 0x41 JUMPI DUP1 PUSH4 0x471F7CDF EQ PUSH1 0x5D JUMPI DUP1 PUSH4 0x6057361D EQ PUSH1 0x79 JUMPI JUMPDEST PUSH1 0x0 DUP1 REVERT JUMPDEST PUSH1 0x47 PUSH1 0xA4 JUMP JUMPDEST PUSH1 0x40 MLOAD DUP1 DUP3 DUP2 MSTORE PUSH1 0x20 ADD SWAP2 POP POP PUSH1 0x40 MLOAD DUP1 SWAP2 SUB SWAP1 RETURN JUMPDEST PUSH1 0x63 PUSH1 0xAD JUMP JUMPDEST PUSH1 0x40 MLOAD DUP1 DUP3 DUP2 MSTORE PUSH1 0x20 ADD SWAP2 POP POP PUSH1 0x40 MLOAD DUP1 SWAP2 SUB SWAP1 RETURN JUMPDEST PUSH1 0xA2 PUSH1 0x4 DUP1 CALLDATASIZE SUB PUSH1 0x20 DUP2 LT ISZERO PUSH1 0x8D JUMPI PUSH1 0x0 DUP1 REVERT JUMPDEST DUP2 ADD SWAP1 DUP1 DUP1 CALLDATALOAD SWAP1 PUSH1 0x20 ADD SWAP1 SWAP3 SWAP2 SWAP1 POP POP POP PUSH1 0xB3 JUMP JUMPDEST STOP JUMPDEST PUSH1 0x0 DUP1 SLOAD SWAP1 POP SWAP1 JUMP JUMPDEST PUSH1 0x0 SLOAD DUP2 JUMP JUMPDEST DUP1 PUSH1 0x0 DUP2 SWAP1 SSTORE POP POP JUMP INVALID LOG2 PUSH5 0x6970667358 0x22 SLT KECCAK256 PUSH21 0xC1C34F63784C5467D4DAD14E288AC597B2F398E667 SWAP7 RETURNDATACOPY TIMESTAMP GAS 0xC7 EXTCODEHASH GT 0xBF XOR SELFBALANCE PUSH5 0x736F6C6343 STOP MOD ADDMOD STOP CALLER "
				},
				"gasEstimates": {
					"creation": {
						"codeDepositCost": "48600",
						"executionCost": "99",
						"totalCost": "48699"
					},
					"external": {
						"favoriteNumber()": "1005",
						"retrieve()": "991",
						"store(uint256)": "20264"
					}
				},
				"methodIdentifiers": {
					"favoriteNumber()": "471f7cdf",
					"retrieve()": "2e64cec1",
					"store(uint256)": "6057361d"
				}
			},
			"storageLayout": {
				"storage": [
					{
						"astId": 3,
						"contract": "contracts/SimpleStorage.sol:SimpleStorage",
						"label": "favoriteNumber",
						"offset": 0,
						"slot": "0",
						"type": "t_uint256"
					}
				],
				"types": {
					"t_uint256": {
						"encoding": "inplace",
						"label": "uint256",
						"numberOfBytes": "32"
					}
				}
			},
			"userdoc": {
				"methods": {}
			}
		}
	}
}