{
	"contracts/Traceability.sol": {
		"Traceability": {
			"abi": [
				{
					"anonymous": false,
					"inputs": [
						{
							"indexed": false,
							"internalType": "string",
							"name": "_error",
							"type": "string"
						}
					],
					"name": "Error",
					"type": "event"
				},
				{
					"anonymous": false,
					"inputs": [
						{
							"indexed": false,
							"internalType": "bytes8",
							"name": "_latitude",
							"type": "bytes8"
						},
						{
							"indexed": false,
							"internalType": "bytes8",
							"name": "_longitude",
							"type": "bytes8"
						},
						{
							"indexed": false,
							"internalType": "bytes8",
							"name": "_altitude",
							"type": "bytes8"
						},
						{
							"indexed": false,
							"internalType": "bytes8",
							"name": "_timestamp",
							"type": "bytes8"
						},
						{
							"indexed": false,
							"internalType": "bytes8",
							"name": "_device",
							"type": "bytes8"
						}
					],
					"name": "GetDeviceTrack",
					"type": "event"
				},
				{
					"anonymous": false,
					"inputs": [
						{
							"indexed": false,
							"internalType": "uint8",
							"name": "_trackNumber",
							"type": "uint8"
						}
					],
					"name": "Length",
					"type": "event"
				},
				{
					"anonymous": false,
					"inputs": [
						{
							"indexed": false,
							"internalType": "bytes8",
							"name": "_latitude",
							"type": "bytes8"
						},
						{
							"indexed": false,
							"internalType": "bytes8",
							"name": "_longitude",
							"type": "bytes8"
						},
						{
							"indexed": false,
							"internalType": "bytes8",
							"name": "_altitude",
							"type": "bytes8"
						},
						{
							"indexed": false,
							"internalType": "bytes8",
							"name": "_timestamp",
							"type": "bytes8"
						},
						{
							"indexed": false,
							"internalType": "bytes8",
							"name": "_device",
							"type": "bytes8"
						}
					],
					"name": "Track",
					"type": "event"
				},
				{
					"inputs": [
						{
							"internalType": "string",
							"name": "_device",
							"type": "string"
						}
					],
					"name": "getDeviceTrack",
					"outputs": [],
					"stateMutability": "nonpayable",
					"type": "function"
				},
				{
					"inputs": [],
					"name": "getLength",
					"outputs": [],
					"stateMutability": "nonpayable",
					"type": "function"
				},
				{
					"inputs": [],
					"name": "getProductTraceability",
					"outputs": [],
					"stateMutability": "nonpayable",
					"type": "function"
				},
				{
					"inputs": [
						{
							"internalType": "string",
							"name": "_latitude",
							"type": "string"
						},
						{
							"internalType": "string",
							"name": "_longitude",
							"type": "string"
						},
						{
							"internalType": "string",
							"name": "_altitude",
							"type": "string"
						},
						{
							"internalType": "string",
							"name": "_timestamp",
							"type": "string"
						},
						{
							"internalType": "string",
							"name": "_device",
							"type": "string"
						}
					],
					"name": "trackProduct",
					"outputs": [],
					"stateMutability": "nonpayable",
					"type": "function"
				}
			],
			"devdoc": {
				"kind": "dev",
				"methods": {},
				"version": 1
			},
			"evm": {
				"assembly": "    /* \"contracts/Traceability.sol\":64:2209  contract Traceability {\r... */\n  mstore(0x40, 0x80)\n    /* \"contracts/Traceability.sol\":284:285  0 */\n  0x00\n    /* \"contracts/Traceability.sol\":256:285  uint8 private trackNumber = 0 */\n  dup1\n  exp(0x0100, 0x00)\n  dup2\n  sload\n  dup2\n  0xff\n  mul\n  not\n  and\n  swap1\n  dup4\n  0xff\n  and\n  mul\n  or\n  swap1\n  sstore\n  pop\n    /* \"contracts/Traceability.sol\":64:2209  contract Traceability {\r... */\n  callvalue\n  dup1\n  iszero\n  tag_1\n  jumpi\n  0x00\n  dup1\n  revert\ntag_1:\n  pop\n  dataSize(sub_0)\n  dup1\n  dataOffset(sub_0)\n  0x00\n  codecopy\n  0x00\n  return\nstop\n\nsub_0: assembly {\n        /* \"contracts/Traceability.sol\":64:2209  contract Traceability {\r... */\n      mstore(0x40, 0x80)\n      callvalue\n      dup1\n      iszero\n      tag_1\n      jumpi\n      0x00\n      dup1\n      revert\n    tag_1:\n      pop\n      jumpi(tag_2, lt(calldatasize, 0x04))\n      shr(0xe0, calldataload(0x00))\n      dup1\n      0xab269de5\n      eq\n      tag_3\n      jumpi\n      dup1\n      0xbe1c766b\n      eq\n      tag_4\n      jumpi\n      dup1\n      0xc9a124b7\n      eq\n      tag_5\n      jumpi\n      dup1\n      0xdafb4ef7\n      eq\n      tag_6\n      jumpi\n    tag_2:\n      0x00\n      dup1\n      revert\n        /* \"contracts/Traceability.sol\":1811:2206  function getProductTraceability() public {\r... */\n    tag_3:\n      tag_7\n      tag_8\n      jump\t// in\n    tag_7:\n      stop\n        /* \"contracts/Traceability.sol\":1344:1424  function getLength() public {\r... */\n    tag_4:\n      tag_9\n      tag_10\n      jump\t// in\n    tag_9:\n      stop\n        /* \"contracts/Traceability.sol\":682:1336  function trackProduct(string memory _latitude, string memory _longitude, string memory _altitude, string memory _timestamp, string memory _device) public {\r... */\n    tag_5:\n      tag_11\n      0x04\n      dup1\n      calldatasize\n      sub\n      dup2\n      add\n      swap1\n      tag_12\n      swap2\n      swap1\n      tag_13\n      jump\t// in\n    tag_12:\n      tag_14\n      jump\t// in\n    tag_11:\n      stop\n        /* \"contracts/Traceability.sol\":1432:1803  function getDeviceTrack(string memory _device) public {\r... */\n    tag_6:\n      tag_15\n      0x04\n      dup1\n      calldatasize\n      sub\n      dup2\n      add\n      swap1\n      tag_16\n      swap2\n      swap1\n      tag_17\n      jump\t// in\n    tag_16:\n      tag_18\n      jump\t// in\n    tag_15:\n      stop\n        /* \"contracts/Traceability.sol\":1811:2206  function getProductTraceability() public {\r... */\n    tag_8:\n        /* \"contracts/Traceability.sol\":1886:1887  0 */\n      0x00\n        /* \"contracts/Traceability.sol\":1871:1876  track */\n      0x02\n        /* \"contracts/Traceability.sol\":1871:1883  track.length */\n      dup1\n      sload\n      swap1\n      pop\n        /* \"contracts/Traceability.sol\":1871:1887  track.length > 0 */\n      gt\n        /* \"contracts/Traceability.sol\":1863:1908  require(track.length > 0, \"Untraced product\") */\n      tag_20\n      jumpi\n      mload(0x40)\n      0x08c379a000000000000000000000000000000000000000000000000000000000\n      dup2\n      mstore\n      0x04\n      add\n      tag_21\n      swap1\n      tag_22\n      jump\t// in\n    tag_21:\n      mload(0x40)\n      dup1\n      swap2\n      sub\n      swap1\n      revert\n    tag_20:\n        /* \"contracts/Traceability.sol\":2023:2029  uint i */\n      0x00\n        /* \"contracts/Traceability.sol\":2018:2199  for (uint i = 0; i < track.length; i++) {\r... */\n    tag_23:\n        /* \"contracts/Traceability.sol\":2039:2044  track */\n      0x02\n        /* \"contracts/Traceability.sol\":2039:2051  track.length */\n      dup1\n      sload\n      swap1\n      pop\n        /* \"contracts/Traceability.sol\":2035:2036  i */\n      dup2\n        /* \"contracts/Traceability.sol\":2035:2051  i < track.length */\n      lt\n        /* \"contracts/Traceability.sol\":2018:2199  for (uint i = 0; i < track.length; i++) {\r... */\n      iszero\n      tag_24\n      jumpi\n        /* \"contracts/Traceability.sol\":2078:2187  GetDeviceTrack(track[i].latitude, track[i].longitude, track[i].altitude, track[i].timestamp, track[i].device) */\n      0x838f77567dd6a97ad4c0c1d166650d146183ba7c59d34e5d6e1a8491b32be5d0\n        /* \"contracts/Traceability.sol\":2093:2098  track */\n      0x02\n        /* \"contracts/Traceability.sol\":2099:2100  i */\n      dup3\n        /* \"contracts/Traceability.sol\":2093:2101  track[i] */\n      dup2\n      sload\n      dup2\n      lt\n      tag_26\n      jumpi\n      tag_27\n      tag_28\n      jump\t// in\n    tag_27:\n    tag_26:\n      swap1\n      0x00\n      mstore\n      keccak256(0x00, 0x20)\n      swap1\n      0x02\n      mul\n      add\n        /* \"contracts/Traceability.sol\":2093:2110  track[i].latitude */\n      0x00\n      add\n      0x00\n      swap1\n      sload\n      swap1\n      0x0100\n      exp\n      swap1\n      div\n      0xc0\n      shl\n        /* \"contracts/Traceability.sol\":2112:2117  track */\n      0x02\n        /* \"contracts/Traceability.sol\":2118:2119  i */\n      dup4\n        /* \"contracts/Traceability.sol\":2112:2120  track[i] */\n      dup2\n      sload\n      dup2\n      lt\n      tag_30\n      jumpi\n      tag_31\n      tag_28\n      jump\t// in\n    tag_31:\n    tag_30:\n      swap1\n      0x00\n      mstore\n      keccak256(0x00, 0x20)\n      swap1\n      0x02\n      mul\n      add\n        /* \"contracts/Traceability.sol\":2112:2130  track[i].longitude */\n      0x00\n      add\n      0x08\n      swap1\n      sload\n      swap1\n      0x0100\n      exp\n      swap1\n      div\n      0xc0\n      shl\n        /* \"contracts/Traceability.sol\":2132:2137  track */\n      0x02\n        /* \"contracts/Traceability.sol\":2138:2139  i */\n      dup5\n        /* \"contracts/Traceability.sol\":2132:2140  track[i] */\n      dup2\n      sload\n      dup2\n      lt\n      tag_33\n      jumpi\n      tag_34\n      tag_28\n      jump\t// in\n    tag_34:\n    tag_33:\n      swap1\n      0x00\n      mstore\n      keccak256(0x00, 0x20)\n      swap1\n      0x02\n      mul\n      add\n        /* \"contracts/Traceability.sol\":2132:2149  track[i].altitude */\n      0x00\n      add\n      0x10\n      swap1\n      sload\n      swap1\n      0x0100\n      exp\n      swap1\n      div\n      0xc0\n      shl\n        /* \"contracts/Traceability.sol\":2151:2156  track */\n      0x02\n        /* \"contracts/Traceability.sol\":2157:2158  i */\n      dup6\n        /* \"contracts/Traceability.sol\":2151:2159  track[i] */\n      dup2\n      sload\n      dup2\n      lt\n      tag_36\n      jumpi\n      tag_37\n      tag_28\n      jump\t// in\n    tag_37:\n    tag_36:\n      swap1\n      0x00\n      mstore\n      keccak256(0x00, 0x20)\n      swap1\n      0x02\n      mul\n      add\n        /* \"contracts/Traceability.sol\":2151:2169  track[i].timestamp */\n      0x00\n      add\n      0x18\n      swap1\n      sload\n      swap1\n      0x0100\n      exp\n      swap1\n      div\n      0xc0\n      shl\n        /* \"contracts/Traceability.sol\":2171:2176  track */\n      0x02\n        /* \"contracts/Traceability.sol\":2177:2178  i */\n      dup7\n        /* \"contracts/Traceability.sol\":2171:2179  track[i] */\n      dup2\n      sload\n      dup2\n      lt\n      tag_39\n      jumpi\n      tag_40\n      tag_28\n      jump\t// in\n    tag_40:\n    tag_39:\n      swap1\n      0x00\n      mstore\n      keccak256(0x00, 0x20)\n      swap1\n      0x02\n      mul\n      add\n        /* \"contracts/Traceability.sol\":2171:2186  track[i].device */\n      0x01\n      add\n      0x00\n      swap1\n      sload\n      swap1\n      0x0100\n      exp\n      swap1\n      div\n      0xc0\n      shl\n        /* \"contracts/Traceability.sol\":2078:2187  GetDeviceTrack(track[i].latitude, track[i].longitude, track[i].altitude, track[i].timestamp, track[i].device) */\n      mload(0x40)\n      tag_42\n      swap6\n      swap5\n      swap4\n      swap3\n      swap2\n      swap1\n      tag_43\n      jump\t// in\n    tag_42:\n      mload(0x40)\n      dup1\n      swap2\n      sub\n      swap1\n      log1\n        /* \"contracts/Traceability.sol\":2053:2056  i++ */\n      dup1\n      dup1\n      tag_44\n      swap1\n      tag_45\n      jump\t// in\n    tag_44:\n      swap2\n      pop\n      pop\n        /* \"contracts/Traceability.sol\":2018:2199  for (uint i = 0; i < track.length; i++) {\r... */\n      jump(tag_23)\n    tag_24:\n      pop\n        /* \"contracts/Traceability.sol\":1811:2206  function getProductTraceability() public {\r... */\n      jump\t// out\n        /* \"contracts/Traceability.sol\":1344:1424  function getLength() public {\r... */\n    tag_10:\n        /* \"contracts/Traceability.sol\":1388:1416  Length(uint8 (track.length)) */\n      0x11faa32eb71008ea8a2443858afc5f1c2dc6531f38c8f495c238672848617644\n        /* \"contracts/Traceability.sol\":1402:1407  track */\n      0x02\n        /* \"contracts/Traceability.sol\":1402:1414  track.length */\n      dup1\n      sload\n      swap1\n      pop\n        /* \"contracts/Traceability.sol\":1388:1416  Length(uint8 (track.length)) */\n      mload(0x40)\n      tag_47\n      swap2\n      swap1\n      tag_48\n      jump\t// in\n    tag_47:\n      mload(0x40)\n      dup1\n      swap2\n      sub\n      swap1\n      log1\n        /* \"contracts/Traceability.sol\":1344:1424  function getLength() public {\r... */\n      jump\t// out\n        /* \"contracts/Traceability.sol\":682:1336  function trackProduct(string memory _latitude, string memory _longitude, string memory _altitude, string memory _timestamp, string memory _device) public {\r... */\n    tag_14:\n        /* \"contracts/Traceability.sol\":847:862  bytes8 _device_ */\n      0x00\n        /* \"contracts/Traceability.sol\":878:885  _device */\n      dup2\n        /* \"contracts/Traceability.sol\":865:887  bytes8(bytes(_device)) */\n      tag_50\n      swap1\n      tag_51\n      jump\t// in\n    tag_50:\n        /* \"contracts/Traceability.sol\":847:887  bytes8 _device_ = bytes8(bytes(_device)) */\n      swap1\n      pop\n        /* \"contracts/Traceability.sol\":918:1110  Product ({ latitude: bytes8(bytes(_latitude)), longitude: bytes8(bytes(_longitude)), altitude: bytes8(bytes(_altitude)), timestamp: bytes8(bytes(_timestamp)), device: bytes8(bytes(_device)) }) */\n      mload(0x40)\n      dup1\n      0xa0\n      add\n      0x40\n      mstore\n      dup1\n        /* \"contracts/Traceability.sol\":952:961  _latitude */\n      dup8\n        /* \"contracts/Traceability.sol\":939:963  bytes8(bytes(_latitude)) */\n      tag_52\n      swap1\n      tag_51\n      jump\t// in\n    tag_52:\n        /* \"contracts/Traceability.sol\":918:1110  Product ({ latitude: bytes8(bytes(_latitude)), longitude: bytes8(bytes(_longitude)), altitude: bytes8(bytes(_altitude)), timestamp: bytes8(bytes(_timestamp)), device: bytes8(bytes(_device)) }) */\n      not(0xffffffffffffffffffffffffffffffffffffffffffffffff)\n      and\n      dup2\n      mstore\n      0x20\n      add\n        /* \"contracts/Traceability.sol\":989:999  _longitude */\n      dup7\n        /* \"contracts/Traceability.sol\":976:1001  bytes8(bytes(_longitude)) */\n      tag_53\n      swap1\n      tag_51\n      jump\t// in\n    tag_53:\n        /* \"contracts/Traceability.sol\":918:1110  Product ({ latitude: bytes8(bytes(_latitude)), longitude: bytes8(bytes(_longitude)), altitude: bytes8(bytes(_altitude)), timestamp: bytes8(bytes(_timestamp)), device: bytes8(bytes(_device)) }) */\n      not(0xffffffffffffffffffffffffffffffffffffffffffffffff)\n      and\n      dup2\n      mstore\n      0x20\n      add\n        /* \"contracts/Traceability.sol\":1026:1035  _altitude */\n      dup6\n        /* \"contracts/Traceability.sol\":1013:1037  bytes8(bytes(_altitude)) */\n      tag_54\n      swap1\n      tag_51\n      jump\t// in\n    tag_54:\n        /* \"contracts/Traceability.sol\":918:1110  Product ({ latitude: bytes8(bytes(_latitude)), longitude: bytes8(bytes(_longitude)), altitude: bytes8(bytes(_altitude)), timestamp: bytes8(bytes(_timestamp)), device: bytes8(bytes(_device)) }) */\n      not(0xffffffffffffffffffffffffffffffffffffffffffffffff)\n      and\n      dup2\n      mstore\n      0x20\n      add\n        /* \"contracts/Traceability.sol\":1063:1073  _timestamp */\n      dup5\n        /* \"contracts/Traceability.sol\":1050:1075  bytes8(bytes(_timestamp)) */\n      tag_55\n      swap1\n      tag_51\n      jump\t// in\n    tag_55:\n        /* \"contracts/Traceability.sol\":918:1110  Product ({ latitude: bytes8(bytes(_latitude)), longitude: bytes8(bytes(_longitude)), altitude: bytes8(bytes(_altitude)), timestamp: bytes8(bytes(_timestamp)), device: bytes8(bytes(_device)) }) */\n      not(0xffffffffffffffffffffffffffffffffffffffffffffffff)\n      and\n      dup2\n      mstore\n      0x20\n      add\n        /* \"contracts/Traceability.sol\":1098:1105  _device */\n      dup4\n        /* \"contracts/Traceability.sol\":1085:1107  bytes8(bytes(_device)) */\n      tag_56\n      swap1\n      tag_51\n      jump\t// in\n    tag_56:\n        /* \"contracts/Traceability.sol\":918:1110  Product ({ latitude: bytes8(bytes(_latitude)), longitude: bytes8(bytes(_longitude)), altitude: bytes8(bytes(_altitude)), timestamp: bytes8(bytes(_timestamp)), device: bytes8(bytes(_device)) }) */\n      not(0xffffffffffffffffffffffffffffffffffffffffffffffff)\n      and\n      dup2\n      mstore\n      pop\n        /* \"contracts/Traceability.sol\":898:905  product */\n      0x01\n        /* \"contracts/Traceability.sol\":898:915  product[_device_] */\n      0x00\n        /* \"contracts/Traceability.sol\":906:914  _device_ */\n      dup4\n        /* \"contracts/Traceability.sol\":898:915  product[_device_] */\n      not(0xffffffffffffffffffffffffffffffffffffffffffffffff)\n      and\n      not(0xffffffffffffffffffffffffffffffffffffffffffffffff)\n      and\n      dup2\n      mstore\n      0x20\n      add\n      swap1\n      dup2\n      mstore\n      0x20\n      add\n      0x00\n      keccak256\n        /* \"contracts/Traceability.sol\":898:1110  product[_device_] = Product ({ latitude: bytes8(bytes(_latitude)), longitude: bytes8(bytes(_longitude)), altitude: bytes8(bytes(_altitude)), timestamp: bytes8(bytes(_timestamp)), device: bytes8(bytes(_device)) }) */\n      0x00\n      dup3\n      add\n      mload\n      dup2\n      0x00\n      add\n      exp(0x0100, 0x00)\n      dup2\n      sload\n      dup2\n      0xffffffffffffffff\n      mul\n      not\n      and\n      swap1\n      dup4\n      0xc0\n      shr\n      mul\n      or\n      swap1\n      sstore\n      pop\n      0x20\n      dup3\n      add\n      mload\n      dup2\n      0x00\n      add\n      exp(0x0100, 0x08)\n      dup2\n      sload\n      dup2\n      0xffffffffffffffff\n      mul\n      not\n      and\n      swap1\n      dup4\n      0xc0\n      shr\n      mul\n      or\n      swap1\n      sstore\n      pop\n      0x40\n      dup3\n      add\n      mload\n      dup2\n      0x00\n      add\n      exp(0x0100, 0x10)\n      dup2\n      sload\n      dup2\n      0xffffffffffffffff\n      mul\n      not\n      and\n      swap1\n      dup4\n      0xc0\n      shr\n      mul\n      or\n      swap1\n      sstore\n      pop\n      0x60\n      dup3\n      add\n      mload\n      dup2\n      0x00\n      add\n      exp(0x0100, 0x18)\n      dup2\n      sload\n      dup2\n      0xffffffffffffffff\n      mul\n      not\n      and\n      swap1\n      dup4\n      0xc0\n      shr\n      mul\n      or\n      swap1\n      sstore\n      pop\n      0x80\n      dup3\n      add\n      mload\n      dup2\n      0x01\n      add\n      exp(0x0100, 0x00)\n      dup2\n      sload\n      dup2\n      0xffffffffffffffff\n      mul\n      not\n      and\n      swap1\n      dup4\n      0xc0\n      shr\n      mul\n      or\n      swap1\n      sstore\n      pop\n      swap1\n      pop\n      pop\n        /* \"contracts/Traceability.sol\":1121:1126  track */\n      0x02\n        /* \"contracts/Traceability.sol\":1132:1139  product */\n      0x01\n        /* \"contracts/Traceability.sol\":1132:1149  product[_device_] */\n      0x00\n        /* \"contracts/Traceability.sol\":1140:1148  _device_ */\n      dup4\n        /* \"contracts/Traceability.sol\":1132:1149  product[_device_] */\n      not(0xffffffffffffffffffffffffffffffffffffffffffffffff)\n      and\n      not(0xffffffffffffffffffffffffffffffffffffffffffffffff)\n      and\n      dup2\n      mstore\n      0x20\n      add\n      swap1\n      dup2\n      mstore\n      0x20\n      add\n      0x00\n      keccak256\n        /* \"contracts/Traceability.sol\":1121:1150  track.push(product[_device_]) */\n      swap1\n      dup1\n      0x01\n      dup2\n      sload\n      add\n      dup1\n      dup3\n      sstore\n      dup1\n      swap2\n      pop\n      pop\n      0x01\n      swap1\n      sub\n      swap1\n      0x00\n      mstore\n      keccak256(0x00, 0x20)\n      swap1\n      0x02\n      mul\n      add\n      0x00\n      swap1\n      swap2\n      swap1\n      swap2\n      swap1\n      swap2\n      pop\n      0x00\n      dup3\n      add\n      0x00\n      swap1\n      sload\n      swap1\n      0x0100\n      exp\n      swap1\n      div\n      0xc0\n      shl\n      dup2\n      0x00\n      add\n      exp(0x0100, 0x00)\n      dup2\n      sload\n      dup2\n      0xffffffffffffffff\n      mul\n      not\n      and\n      swap1\n      dup4\n      0xc0\n      shr\n      mul\n      or\n      swap1\n      sstore\n      pop\n      0x00\n      dup3\n      add\n      0x08\n      swap1\n      sload\n      swap1\n      0x0100\n      exp\n      swap1\n      div\n      0xc0\n      shl\n      dup2\n      0x00\n      add\n      exp(0x0100, 0x08)\n      dup2\n      sload\n      dup2\n      0xffffffffffffffff\n      mul\n      not\n      and\n      swap1\n      dup4\n      0xc0\n      shr\n      mul\n      or\n      swap1\n      sstore\n      pop\n      0x00\n      dup3\n      add\n      0x10\n      swap1\n      sload\n      swap1\n      0x0100\n      exp\n      swap1\n      div\n      0xc0\n      shl\n      dup2\n      0x00\n      add\n      exp(0x0100, 0x10)\n      dup2\n      sload\n      dup2\n      0xffffffffffffffff\n      mul\n      not\n      and\n      swap1\n      dup4\n      0xc0\n      shr\n      mul\n      or\n      swap1\n      sstore\n      pop\n      0x00\n      dup3\n      add\n      0x18\n      swap1\n      sload\n      swap1\n      0x0100\n      exp\n      swap1\n      div\n      0xc0\n      shl\n      dup2\n      0x00\n      add\n      exp(0x0100, 0x18)\n      dup2\n      sload\n      dup2\n      0xffffffffffffffff\n      mul\n      not\n      and\n      swap1\n      dup4\n      0xc0\n      shr\n      mul\n      or\n      swap1\n      sstore\n      pop\n      0x01\n      dup3\n      add\n      0x00\n      swap1\n      sload\n      swap1\n      0x0100\n      exp\n      swap1\n      div\n      0xc0\n      shl\n      dup2\n      0x01\n      add\n      exp(0x0100, 0x00)\n      dup2\n      sload\n      dup2\n      0xffffffffffffffff\n      mul\n      not\n      and\n      swap1\n      dup4\n      0xc0\n      shr\n      mul\n      or\n      swap1\n      sstore\n      pop\n      pop\n      pop\n        /* \"contracts/Traceability.sol\":1166:1301  Track(bytes8(bytes(_latitude)), bytes8(bytes(_longitude)), bytes8(bytes(_altitude)), bytes8(bytes(_timestamp)), bytes8(bytes(_device))) */\n      0x0ab6b8fa98dcb3202ce3b4bdb1333242ff3e6f52dd5aee20c1a202d1cb649d56\n        /* \"contracts/Traceability.sol\":1185:1194  _latitude */\n      dup7\n        /* \"contracts/Traceability.sol\":1172:1196  bytes8(bytes(_latitude)) */\n      tag_58\n      swap1\n      tag_51\n      jump\t// in\n    tag_58:\n        /* \"contracts/Traceability.sol\":1211:1221  _longitude */\n      dup7\n        /* \"contracts/Traceability.sol\":1198:1223  bytes8(bytes(_longitude)) */\n      tag_59\n      swap1\n      tag_51\n      jump\t// in\n    tag_59:\n        /* \"contracts/Traceability.sol\":1238:1247  _altitude */\n      dup7\n        /* \"contracts/Traceability.sol\":1225:1249  bytes8(bytes(_altitude)) */\n      tag_60\n      swap1\n      tag_51\n      jump\t// in\n    tag_60:\n        /* \"contracts/Traceability.sol\":1264:1274  _timestamp */\n      dup7\n        /* \"contracts/Traceability.sol\":1251:1276  bytes8(bytes(_timestamp)) */\n      tag_61\n      swap1\n      tag_51\n      jump\t// in\n    tag_61:\n        /* \"contracts/Traceability.sol\":1291:1298  _device */\n      dup7\n        /* \"contracts/Traceability.sol\":1278:1300  bytes8(bytes(_device)) */\n      tag_62\n      swap1\n      tag_51\n      jump\t// in\n    tag_62:\n        /* \"contracts/Traceability.sol\":1166:1301  Track(bytes8(bytes(_latitude)), bytes8(bytes(_longitude)), bytes8(bytes(_altitude)), bytes8(bytes(_timestamp)), bytes8(bytes(_device))) */\n      mload(0x40)\n      tag_63\n      swap6\n      swap5\n      swap4\n      swap3\n      swap2\n      swap1\n      tag_43\n      jump\t// in\n    tag_63:\n      mload(0x40)\n      dup1\n      swap2\n      sub\n      swap1\n      log1\n        /* \"contracts/Traceability.sol\":1327:1328  1 */\n      0x01\n        /* \"contracts/Traceability.sol\":1312:1323  trackNumber */\n      0x00\n      dup1\n        /* \"contracts/Traceability.sol\":1312:1328  trackNumber += 1 */\n      dup3\n      dup3\n      dup3\n      swap1\n      sload\n      swap1\n      0x0100\n      exp\n      swap1\n      div\n      0xff\n      and\n      tag_64\n      swap2\n      swap1\n      tag_65\n      jump\t// in\n    tag_64:\n      swap3\n      pop\n      0x0100\n      exp\n      dup2\n      sload\n      dup2\n      0xff\n      mul\n      not\n      and\n      swap1\n      dup4\n      0xff\n      and\n      mul\n      or\n      swap1\n      sstore\n      pop\n        /* \"contracts/Traceability.sol\":836:1336  {\r... */\n      pop\n        /* \"contracts/Traceability.sol\":682:1336  function trackProduct(string memory _latitude, string memory _longitude, string memory _altitude, string memory _timestamp, string memory _device) public {\r... */\n      pop\n      pop\n      pop\n      pop\n      pop\n      jump\t// out\n        /* \"contracts/Traceability.sol\":1432:1803  function getDeviceTrack(string memory _device) public {\r... */\n    tag_18:\n        /* \"contracts/Traceability.sol\":1497:1513  Product memory p */\n      0x00\n        /* \"contracts/Traceability.sol\":1516:1523  product */\n      0x01\n        /* \"contracts/Traceability.sol\":1516:1547  product[bytes8(bytes(_device))] */\n      0x00\n        /* \"contracts/Traceability.sol\":1537:1544  _device */\n      dup4\n        /* \"contracts/Traceability.sol\":1524:1546  bytes8(bytes(_device)) */\n      tag_67\n      swap1\n      tag_51\n      jump\t// in\n    tag_67:\n        /* \"contracts/Traceability.sol\":1516:1547  product[bytes8(bytes(_device))] */\n      not(0xffffffffffffffffffffffffffffffffffffffffffffffff)\n      and\n      not(0xffffffffffffffffffffffffffffffffffffffffffffffff)\n      and\n      dup2\n      mstore\n      0x20\n      add\n      swap1\n      dup2\n      mstore\n      0x20\n      add\n      0x00\n      keccak256\n        /* \"contracts/Traceability.sol\":1497:1547  Product memory p = product[bytes8(bytes(_device))] */\n      mload(0x40)\n      dup1\n      0xa0\n      add\n      0x40\n      mstore\n      swap1\n      dup2\n      0x00\n      dup3\n      add\n      0x00\n      swap1\n      sload\n      swap1\n      0x0100\n      exp\n      swap1\n      div\n      0xc0\n      shl\n      not(0xffffffffffffffffffffffffffffffffffffffffffffffff)\n      and\n      not(0xffffffffffffffffffffffffffffffffffffffffffffffff)\n      and\n      dup2\n      mstore\n      0x20\n      add\n      0x00\n      dup3\n      add\n      0x08\n      swap1\n      sload\n      swap1\n      0x0100\n      exp\n      swap1\n      div\n      0xc0\n      shl\n      not(0xffffffffffffffffffffffffffffffffffffffffffffffff)\n      and\n      not(0xffffffffffffffffffffffffffffffffffffffffffffffff)\n      and\n      dup2\n      mstore\n      0x20\n      add\n      0x00\n      dup3\n      add\n      0x10\n      swap1\n      sload\n      swap1\n      0x0100\n      exp\n      swap1\n      div\n      0xc0\n      shl\n      not(0xffffffffffffffffffffffffffffffffffffffffffffffff)\n      and\n      not(0xffffffffffffffffffffffffffffffffffffffffffffffff)\n      and\n      dup2\n      mstore\n      0x20\n      add\n      0x00\n      dup3\n      add\n      0x18\n      swap1\n      sload\n      swap1\n      0x0100\n      exp\n      swap1\n      div\n      0xc0\n      shl\n      not(0xffffffffffffffffffffffffffffffffffffffffffffffff)\n      and\n      not(0xffffffffffffffffffffffffffffffffffffffffffffffff)\n      and\n      dup2\n      mstore\n      0x20\n      add\n      0x01\n      dup3\n      add\n      0x00\n      swap1\n      sload\n      swap1\n      0x0100\n      exp\n      swap1\n      div\n      0xc0\n      shl\n      not(0xffffffffffffffffffffffffffffffffffffffffffffffff)\n      and\n      not(0xffffffffffffffffffffffffffffffffffffffffffffffff)\n      and\n      dup2\n      mstore\n      pop\n      pop\n      swap1\n      pop\n        /* \"contracts/Traceability.sol\":1581:1582  0 */\n      0x00\n        /* \"contracts/Traceability.sol\":1566:1582  p.timestamp != 0 */\n      0xc0\n      shl\n        /* \"contracts/Traceability.sol\":1566:1567  p */\n      dup2\n        /* \"contracts/Traceability.sol\":1566:1577  p.timestamp */\n      0x60\n      add\n      mload\n        /* \"contracts/Traceability.sol\":1566:1582  p.timestamp != 0 */\n      not(0xffffffffffffffffffffffffffffffffffffffffffffffff)\n      and\n      eq\n      iszero\n        /* \"contracts/Traceability.sol\":1558:1605  require(p.timestamp != 0, \"Device not present\") */\n      tag_68\n      jumpi\n      mload(0x40)\n      0x08c379a000000000000000000000000000000000000000000000000000000000\n      dup2\n      mstore\n      0x04\n      add\n      tag_69\n      swap1\n      tag_70\n      jump\t// in\n    tag_69:\n      mload(0x40)\n      dup1\n      swap2\n      sub\n      swap1\n      revert\n    tag_68:\n        /* \"contracts/Traceability.sol\":1721:1795  GetDeviceTrack(p.latitude, p.longitude, p.altitude, p.timestamp, p.device) */\n      0x838f77567dd6a97ad4c0c1d166650d146183ba7c59d34e5d6e1a8491b32be5d0\n        /* \"contracts/Traceability.sol\":1736:1737  p */\n      dup2\n        /* \"contracts/Traceability.sol\":1736:1746  p.latitude */\n      0x00\n      add\n      mload\n        /* \"contracts/Traceability.sol\":1748:1749  p */\n      dup3\n        /* \"contracts/Traceability.sol\":1748:1759  p.longitude */\n      0x20\n      add\n      mload\n        /* \"contracts/Traceability.sol\":1761:1762  p */\n      dup4\n        /* \"contracts/Traceability.sol\":1761:1771  p.altitude */\n      0x40\n      add\n      mload\n        /* \"contracts/Traceability.sol\":1773:1774  p */\n      dup5\n        /* \"contracts/Traceability.sol\":1773:1784  p.timestamp */\n      0x60\n      add\n      mload\n        /* \"contracts/Traceability.sol\":1786:1787  p */\n      dup6\n        /* \"contracts/Traceability.sol\":1786:1794  p.device */\n      0x80\n      add\n      mload\n        /* \"contracts/Traceability.sol\":1721:1795  GetDeviceTrack(p.latitude, p.longitude, p.altitude, p.timestamp, p.device) */\n      mload(0x40)\n      tag_71\n      swap6\n      swap5\n      swap4\n      swap3\n      swap2\n      swap1\n      tag_43\n      jump\t// in\n    tag_71:\n      mload(0x40)\n      dup1\n      swap2\n      sub\n      swap1\n      log1\n        /* \"contracts/Traceability.sol\":1486:1803  {\r... */\n      pop\n        /* \"contracts/Traceability.sol\":1432:1803  function getDeviceTrack(string memory _device) public {\r... */\n      pop\n      jump\t// out\n        /* \"#utility.yul\":7:419   */\n    tag_73:\n        /* \"#utility.yul\":85:90   */\n      0x00\n        /* \"#utility.yul\":110:176   */\n      tag_75\n        /* \"#utility.yul\":126:175   */\n      tag_76\n        /* \"#utility.yul\":168:174   */\n      dup5\n        /* \"#utility.yul\":126:175   */\n      tag_77\n      jump\t// in\n    tag_76:\n        /* \"#utility.yul\":110:176   */\n      tag_78\n      jump\t// in\n    tag_75:\n        /* \"#utility.yul\":101:176   */\n      swap1\n      pop\n        /* \"#utility.yul\":199:205   */\n      dup3\n        /* \"#utility.yul\":192:197   */\n      dup2\n        /* \"#utility.yul\":185:206   */\n      mstore\n        /* \"#utility.yul\":237:241   */\n      0x20\n        /* \"#utility.yul\":230:235   */\n      dup2\n        /* \"#utility.yul\":226:242   */\n      add\n        /* \"#utility.yul\":275:278   */\n      dup5\n        /* \"#utility.yul\":266:272   */\n      dup5\n        /* \"#utility.yul\":261:264   */\n      dup5\n        /* \"#utility.yul\":257:273   */\n      add\n        /* \"#utility.yul\":254:279   */\n      gt\n        /* \"#utility.yul\":251:363   */\n      iszero\n      tag_79\n      jumpi\n        /* \"#utility.yul\":282:361   */\n      tag_80\n      tag_81\n      jump\t// in\n    tag_80:\n        /* \"#utility.yul\":251:363   */\n    tag_79:\n        /* \"#utility.yul\":372:413   */\n      tag_82\n        /* \"#utility.yul\":406:412   */\n      dup5\n        /* \"#utility.yul\":401:404   */\n      dup3\n        /* \"#utility.yul\":396:399   */\n      dup6\n        /* \"#utility.yul\":372:413   */\n      tag_83\n      jump\t// in\n    tag_82:\n        /* \"#utility.yul\":91:419   */\n      pop\n        /* \"#utility.yul\":7:419   */\n      swap4\n      swap3\n      pop\n      pop\n      pop\n      jump\t// out\n        /* \"#utility.yul\":439:779   */\n    tag_84:\n        /* \"#utility.yul\":495:500   */\n      0x00\n        /* \"#utility.yul\":544:547   */\n      dup3\n        /* \"#utility.yul\":537:541   */\n      0x1f\n        /* \"#utility.yul\":529:535   */\n      dup4\n        /* \"#utility.yul\":525:542   */\n      add\n        /* \"#utility.yul\":521:548   */\n      slt\n        /* \"#utility.yul\":511:633   */\n      tag_86\n      jumpi\n        /* \"#utility.yul\":552:631   */\n      tag_87\n      tag_88\n      jump\t// in\n    tag_87:\n        /* \"#utility.yul\":511:633   */\n    tag_86:\n        /* \"#utility.yul\":669:675   */\n      dup2\n        /* \"#utility.yul\":656:676   */\n      calldataload\n        /* \"#utility.yul\":694:773   */\n      tag_89\n        /* \"#utility.yul\":769:772   */\n      dup5\n        /* \"#utility.yul\":761:767   */\n      dup3\n        /* \"#utility.yul\":754:758   */\n      0x20\n        /* \"#utility.yul\":746:752   */\n      dup7\n        /* \"#utility.yul\":742:759   */\n      add\n        /* \"#utility.yul\":694:773   */\n      tag_73\n      jump\t// in\n    tag_89:\n        /* \"#utility.yul\":685:773   */\n      swap2\n      pop\n        /* \"#utility.yul\":501:779   */\n      pop\n        /* \"#utility.yul\":439:779   */\n      swap3\n      swap2\n      pop\n      pop\n      jump\t// out\n        /* \"#utility.yul\":785:1294   */\n    tag_17:\n        /* \"#utility.yul\":854:860   */\n      0x00\n        /* \"#utility.yul\":903:905   */\n      0x20\n        /* \"#utility.yul\":891:900   */\n      dup3\n        /* \"#utility.yul\":882:889   */\n      dup5\n        /* \"#utility.yul\":878:901   */\n      sub\n        /* \"#utility.yul\":874:906   */\n      slt\n        /* \"#utility.yul\":871:990   */\n      iszero\n      tag_91\n      jumpi\n        /* \"#utility.yul\":909:988   */\n      tag_92\n      tag_93\n      jump\t// in\n    tag_92:\n        /* \"#utility.yul\":871:990   */\n    tag_91:\n        /* \"#utility.yul\":1057:1058   */\n      0x00\n        /* \"#utility.yul\":1046:1055   */\n      dup3\n        /* \"#utility.yul\":1042:1059   */\n      add\n        /* \"#utility.yul\":1029:1060   */\n      calldataload\n        /* \"#utility.yul\":1087:1105   */\n      0xffffffffffffffff\n        /* \"#utility.yul\":1079:1085   */\n      dup2\n        /* \"#utility.yul\":1076:1106   */\n      gt\n        /* \"#utility.yul\":1073:1190   */\n      iszero\n      tag_94\n      jumpi\n        /* \"#utility.yul\":1109:1188   */\n      tag_95\n      tag_96\n      jump\t// in\n    tag_95:\n        /* \"#utility.yul\":1073:1190   */\n    tag_94:\n        /* \"#utility.yul\":1214:1277   */\n      tag_97\n        /* \"#utility.yul\":1269:1276   */\n      dup5\n        /* \"#utility.yul\":1260:1266   */\n      dup3\n        /* \"#utility.yul\":1249:1258   */\n      dup6\n        /* \"#utility.yul\":1245:1267   */\n      add\n        /* \"#utility.yul\":1214:1277   */\n      tag_84\n      jump\t// in\n    tag_97:\n        /* \"#utility.yul\":1204:1277   */\n      swap2\n      pop\n        /* \"#utility.yul\":1000:1287   */\n      pop\n        /* \"#utility.yul\":785:1294   */\n      swap3\n      swap2\n      pop\n      pop\n      jump\t// out\n        /* \"#utility.yul\":1300:3111   */\n    tag_13:\n        /* \"#utility.yul\":1445:1451   */\n      0x00\n        /* \"#utility.yul\":1453:1459   */\n      dup1\n        /* \"#utility.yul\":1461:1467   */\n      0x00\n        /* \"#utility.yul\":1469:1475   */\n      dup1\n        /* \"#utility.yul\":1477:1483   */\n      0x00\n        /* \"#utility.yul\":1526:1529   */\n      0xa0\n        /* \"#utility.yul\":1514:1523   */\n      dup7\n        /* \"#utility.yul\":1505:1512   */\n      dup9\n        /* \"#utility.yul\":1501:1524   */\n      sub\n        /* \"#utility.yul\":1497:1530   */\n      slt\n        /* \"#utility.yul\":1494:1614   */\n      iszero\n      tag_99\n      jumpi\n        /* \"#utility.yul\":1533:1612   */\n      tag_100\n      tag_93\n      jump\t// in\n    tag_100:\n        /* \"#utility.yul\":1494:1614   */\n    tag_99:\n        /* \"#utility.yul\":1681:1682   */\n      0x00\n        /* \"#utility.yul\":1670:1679   */\n      dup7\n        /* \"#utility.yul\":1666:1683   */\n      add\n        /* \"#utility.yul\":1653:1684   */\n      calldataload\n        /* \"#utility.yul\":1711:1729   */\n      0xffffffffffffffff\n        /* \"#utility.yul\":1703:1709   */\n      dup2\n        /* \"#utility.yul\":1700:1730   */\n      gt\n        /* \"#utility.yul\":1697:1814   */\n      iszero\n      tag_101\n      jumpi\n        /* \"#utility.yul\":1733:1812   */\n      tag_102\n      tag_96\n      jump\t// in\n    tag_102:\n        /* \"#utility.yul\":1697:1814   */\n    tag_101:\n        /* \"#utility.yul\":1838:1901   */\n      tag_103\n        /* \"#utility.yul\":1893:1900   */\n      dup9\n        /* \"#utility.yul\":1884:1890   */\n      dup3\n        /* \"#utility.yul\":1873:1882   */\n      dup10\n        /* \"#utility.yul\":1869:1891   */\n      add\n        /* \"#utility.yul\":1838:1901   */\n      tag_84\n      jump\t// in\n    tag_103:\n        /* \"#utility.yul\":1828:1901   */\n      swap6\n      pop\n        /* \"#utility.yul\":1624:1911   */\n      pop\n        /* \"#utility.yul\":1978:1980   */\n      0x20\n        /* \"#utility.yul\":1967:1976   */\n      dup7\n        /* \"#utility.yul\":1963:1981   */\n      add\n        /* \"#utility.yul\":1950:1982   */\n      calldataload\n        /* \"#utility.yul\":2009:2027   */\n      0xffffffffffffffff\n        /* \"#utility.yul\":2001:2007   */\n      dup2\n        /* \"#utility.yul\":1998:2028   */\n      gt\n        /* \"#utility.yul\":1995:2112   */\n      iszero\n      tag_104\n      jumpi\n        /* \"#utility.yul\":2031:2110   */\n      tag_105\n      tag_96\n      jump\t// in\n    tag_105:\n        /* \"#utility.yul\":1995:2112   */\n    tag_104:\n        /* \"#utility.yul\":2136:2199   */\n      tag_106\n        /* \"#utility.yul\":2191:2198   */\n      dup9\n        /* \"#utility.yul\":2182:2188   */\n      dup3\n        /* \"#utility.yul\":2171:2180   */\n      dup10\n        /* \"#utility.yul\":2167:2189   */\n      add\n        /* \"#utility.yul\":2136:2199   */\n      tag_84\n      jump\t// in\n    tag_106:\n        /* \"#utility.yul\":2126:2199   */\n      swap5\n      pop\n        /* \"#utility.yul\":1921:2209   */\n      pop\n        /* \"#utility.yul\":2276:2278   */\n      0x40\n        /* \"#utility.yul\":2265:2274   */\n      dup7\n        /* \"#utility.yul\":2261:2279   */\n      add\n        /* \"#utility.yul\":2248:2280   */\n      calldataload\n        /* \"#utility.yul\":2307:2325   */\n      0xffffffffffffffff\n        /* \"#utility.yul\":2299:2305   */\n      dup2\n        /* \"#utility.yul\":2296:2326   */\n      gt\n        /* \"#utility.yul\":2293:2410   */\n      iszero\n      tag_107\n      jumpi\n        /* \"#utility.yul\":2329:2408   */\n      tag_108\n      tag_96\n      jump\t// in\n    tag_108:\n        /* \"#utility.yul\":2293:2410   */\n    tag_107:\n        /* \"#utility.yul\":2434:2497   */\n      tag_109\n        /* \"#utility.yul\":2489:2496   */\n      dup9\n        /* \"#utility.yul\":2480:2486   */\n      dup3\n        /* \"#utility.yul\":2469:2478   */\n      dup10\n        /* \"#utility.yul\":2465:2487   */\n      add\n        /* \"#utility.yul\":2434:2497   */\n      tag_84\n      jump\t// in\n    tag_109:\n        /* \"#utility.yul\":2424:2497   */\n      swap4\n      pop\n        /* \"#utility.yul\":2219:2507   */\n      pop\n        /* \"#utility.yul\":2574:2576   */\n      0x60\n        /* \"#utility.yul\":2563:2572   */\n      dup7\n        /* \"#utility.yul\":2559:2577   */\n      add\n        /* \"#utility.yul\":2546:2578   */\n      calldataload\n        /* \"#utility.yul\":2605:2623   */\n      0xffffffffffffffff\n        /* \"#utility.yul\":2597:2603   */\n      dup2\n        /* \"#utility.yul\":2594:2624   */\n      gt\n        /* \"#utility.yul\":2591:2708   */\n      iszero\n      tag_110\n      jumpi\n        /* \"#utility.yul\":2627:2706   */\n      tag_111\n      tag_96\n      jump\t// in\n    tag_111:\n        /* \"#utility.yul\":2591:2708   */\n    tag_110:\n        /* \"#utility.yul\":2732:2795   */\n      tag_112\n        /* \"#utility.yul\":2787:2794   */\n      dup9\n        /* \"#utility.yul\":2778:2784   */\n      dup3\n        /* \"#utility.yul\":2767:2776   */\n      dup10\n        /* \"#utility.yul\":2763:2785   */\n      add\n        /* \"#utility.yul\":2732:2795   */\n      tag_84\n      jump\t// in\n    tag_112:\n        /* \"#utility.yul\":2722:2795   */\n      swap3\n      pop\n        /* \"#utility.yul\":2517:2805   */\n      pop\n        /* \"#utility.yul\":2872:2875   */\n      0x80\n        /* \"#utility.yul\":2861:2870   */\n      dup7\n        /* \"#utility.yul\":2857:2876   */\n      add\n        /* \"#utility.yul\":2844:2877   */\n      calldataload\n        /* \"#utility.yul\":2904:2922   */\n      0xffffffffffffffff\n        /* \"#utility.yul\":2896:2902   */\n      dup2\n        /* \"#utility.yul\":2893:2923   */\n      gt\n        /* \"#utility.yul\":2890:3007   */\n      iszero\n      tag_113\n      jumpi\n        /* \"#utility.yul\":2926:3005   */\n      tag_114\n      tag_96\n      jump\t// in\n    tag_114:\n        /* \"#utility.yul\":2890:3007   */\n    tag_113:\n        /* \"#utility.yul\":3031:3094   */\n      tag_115\n        /* \"#utility.yul\":3086:3093   */\n      dup9\n        /* \"#utility.yul\":3077:3083   */\n      dup3\n        /* \"#utility.yul\":3066:3075   */\n      dup10\n        /* \"#utility.yul\":3062:3084   */\n      add\n        /* \"#utility.yul\":3031:3094   */\n      tag_84\n      jump\t// in\n    tag_115:\n        /* \"#utility.yul\":3021:3094   */\n      swap2\n      pop\n        /* \"#utility.yul\":2815:3104   */\n      pop\n        /* \"#utility.yul\":1300:3111   */\n      swap3\n      swap6\n      pop\n      swap3\n      swap6\n      swap1\n      swap4\n      pop\n      jump\t// out\n        /* \"#utility.yul\":3117:3232   */\n    tag_116:\n        /* \"#utility.yul\":3202:3225   */\n      tag_118\n        /* \"#utility.yul\":3219:3224   */\n      dup2\n        /* \"#utility.yul\":3202:3225   */\n      tag_119\n      jump\t// in\n    tag_118:\n        /* \"#utility.yul\":3197:3200   */\n      dup3\n        /* \"#utility.yul\":3190:3226   */\n      mstore\n        /* \"#utility.yul\":3117:3232   */\n      pop\n      pop\n      jump\t// out\n        /* \"#utility.yul\":3238:3604   */\n    tag_120:\n        /* \"#utility.yul\":3380:3383   */\n      0x00\n        /* \"#utility.yul\":3401:3468   */\n      tag_122\n        /* \"#utility.yul\":3465:3467   */\n      0x10\n        /* \"#utility.yul\":3460:3463   */\n      dup4\n        /* \"#utility.yul\":3401:3468   */\n      tag_123\n      jump\t// in\n    tag_122:\n        /* \"#utility.yul\":3394:3468   */\n      swap2\n      pop\n        /* \"#utility.yul\":3477:3570   */\n      tag_124\n        /* \"#utility.yul\":3566:3569   */\n      dup3\n        /* \"#utility.yul\":3477:3570   */\n      tag_125\n      jump\t// in\n    tag_124:\n        /* \"#utility.yul\":3595:3597   */\n      0x20\n        /* \"#utility.yul\":3590:3593   */\n      dup3\n        /* \"#utility.yul\":3586:3598   */\n      add\n        /* \"#utility.yul\":3579:3598   */\n      swap1\n      pop\n        /* \"#utility.yul\":3238:3604   */\n      swap2\n      swap1\n      pop\n      jump\t// out\n        /* \"#utility.yul\":3610:3976   */\n    tag_126:\n        /* \"#utility.yul\":3752:3755   */\n      0x00\n        /* \"#utility.yul\":3773:3840   */\n      tag_128\n        /* \"#utility.yul\":3837:3839   */\n      0x12\n        /* \"#utility.yul\":3832:3835   */\n      dup4\n        /* \"#utility.yul\":3773:3840   */\n      tag_123\n      jump\t// in\n    tag_128:\n        /* \"#utility.yul\":3766:3840   */\n      swap2\n      pop\n        /* \"#utility.yul\":3849:3942   */\n      tag_129\n        /* \"#utility.yul\":3938:3941   */\n      dup3\n        /* \"#utility.yul\":3849:3942   */\n      tag_130\n      jump\t// in\n    tag_129:\n        /* \"#utility.yul\":3967:3969   */\n      0x20\n        /* \"#utility.yul\":3962:3965   */\n      dup3\n        /* \"#utility.yul\":3958:3970   */\n      add\n        /* \"#utility.yul\":3951:3970   */\n      swap1\n      pop\n        /* \"#utility.yul\":3610:3976   */\n      swap2\n      swap1\n      pop\n      jump\t// out\n        /* \"#utility.yul\":3982:4094   */\n    tag_131:\n        /* \"#utility.yul\":4065:4087   */\n      tag_133\n        /* \"#utility.yul\":4081:4086   */\n      dup2\n        /* \"#utility.yul\":4065:4087   */\n      tag_134\n      jump\t// in\n    tag_133:\n        /* \"#utility.yul\":4060:4063   */\n      dup3\n        /* \"#utility.yul\":4053:4088   */\n      mstore\n        /* \"#utility.yul\":3982:4094   */\n      pop\n      pop\n      jump\t// out\n        /* \"#utility.yul\":4100:4744   */\n    tag_43:\n        /* \"#utility.yul\":4295:4299   */\n      0x00\n        /* \"#utility.yul\":4333:4336   */\n      0xa0\n        /* \"#utility.yul\":4322:4331   */\n      dup3\n        /* \"#utility.yul\":4318:4337   */\n      add\n        /* \"#utility.yul\":4310:4337   */\n      swap1\n      pop\n        /* \"#utility.yul\":4347:4416   */\n      tag_136\n        /* \"#utility.yul\":4413:4414   */\n      0x00\n        /* \"#utility.yul\":4402:4411   */\n      dup4\n        /* \"#utility.yul\":4398:4415   */\n      add\n        /* \"#utility.yul\":4389:4395   */\n      dup9\n        /* \"#utility.yul\":4347:4416   */\n      tag_116\n      jump\t// in\n    tag_136:\n        /* \"#utility.yul\":4426:4496   */\n      tag_137\n        /* \"#utility.yul\":4492:4494   */\n      0x20\n        /* \"#utility.yul\":4481:4490   */\n      dup4\n        /* \"#utility.yul\":4477:4495   */\n      add\n        /* \"#utility.yul\":4468:4474   */\n      dup8\n        /* \"#utility.yul\":4426:4496   */\n      tag_116\n      jump\t// in\n    tag_137:\n        /* \"#utility.yul\":4506:4576   */\n      tag_138\n        /* \"#utility.yul\":4572:4574   */\n      0x40\n        /* \"#utility.yul\":4561:4570   */\n      dup4\n        /* \"#utility.yul\":4557:4575   */\n      add\n        /* \"#utility.yul\":4548:4554   */\n      dup7\n        /* \"#utility.yul\":4506:4576   */\n      tag_116\n      jump\t// in\n    tag_138:\n        /* \"#utility.yul\":4586:4656   */\n      tag_139\n        /* \"#utility.yul\":4652:4654   */\n      0x60\n        /* \"#utility.yul\":4641:4650   */\n      dup4\n        /* \"#utility.yul\":4637:4655   */\n      add\n        /* \"#utility.yul\":4628:4634   */\n      dup6\n        /* \"#utility.yul\":4586:4656   */\n      tag_116\n      jump\t// in\n    tag_139:\n        /* \"#utility.yul\":4666:4737   */\n      tag_140\n        /* \"#utility.yul\":4732:4735   */\n      0x80\n        /* \"#utility.yul\":4721:4730   */\n      dup4\n        /* \"#utility.yul\":4717:4736   */\n      add\n        /* \"#utility.yul\":4708:4714   */\n      dup5\n        /* \"#utility.yul\":4666:4737   */\n      tag_116\n      jump\t// in\n    tag_140:\n        /* \"#utility.yul\":4100:4744   */\n      swap7\n      swap6\n      pop\n      pop\n      pop\n      pop\n      pop\n      pop\n      jump\t// out\n        /* \"#utility.yul\":4750:5169   */\n    tag_22:\n        /* \"#utility.yul\":4916:4920   */\n      0x00\n        /* \"#utility.yul\":4954:4956   */\n      0x20\n        /* \"#utility.yul\":4943:4952   */\n      dup3\n        /* \"#utility.yul\":4939:4957   */\n      add\n        /* \"#utility.yul\":4931:4957   */\n      swap1\n      pop\n        /* \"#utility.yul\":5003:5012   */\n      dup2\n        /* \"#utility.yul\":4997:5001   */\n      dup2\n        /* \"#utility.yul\":4993:5013   */\n      sub\n        /* \"#utility.yul\":4989:4990   */\n      0x00\n        /* \"#utility.yul\":4978:4987   */\n      dup4\n        /* \"#utility.yul\":4974:4991   */\n      add\n        /* \"#utility.yul\":4967:5014   */\n      mstore\n        /* \"#utility.yul\":5031:5162   */\n      tag_142\n        /* \"#utility.yul\":5157:5161   */\n      dup2\n        /* \"#utility.yul\":5031:5162   */\n      tag_120\n      jump\t// in\n    tag_142:\n        /* \"#utility.yul\":5023:5162   */\n      swap1\n      pop\n        /* \"#utility.yul\":4750:5169   */\n      swap2\n      swap1\n      pop\n      jump\t// out\n        /* \"#utility.yul\":5175:5594   */\n    tag_70:\n        /* \"#utility.yul\":5341:5345   */\n      0x00\n        /* \"#utility.yul\":5379:5381   */\n      0x20\n        /* \"#utility.yul\":5368:5377   */\n      dup3\n        /* \"#utility.yul\":5364:5382   */\n      add\n        /* \"#utility.yul\":5356:5382   */\n      swap1\n      pop\n        /* \"#utility.yul\":5428:5437   */\n      dup2\n        /* \"#utility.yul\":5422:5426   */\n      dup2\n        /* \"#utility.yul\":5418:5438   */\n      sub\n        /* \"#utility.yul\":5414:5415   */\n      0x00\n        /* \"#utility.yul\":5403:5412   */\n      dup4\n        /* \"#utility.yul\":5399:5416   */\n      add\n        /* \"#utility.yul\":5392:5439   */\n      mstore\n        /* \"#utility.yul\":5456:5587   */\n      tag_144\n        /* \"#utility.yul\":5582:5586   */\n      dup2\n        /* \"#utility.yul\":5456:5587   */\n      tag_126\n      jump\t// in\n    tag_144:\n        /* \"#utility.yul\":5448:5587   */\n      swap1\n      pop\n        /* \"#utility.yul\":5175:5594   */\n      swap2\n      swap1\n      pop\n      jump\t// out\n        /* \"#utility.yul\":5600:5814   */\n    tag_48:\n        /* \"#utility.yul\":5689:5693   */\n      0x00\n        /* \"#utility.yul\":5727:5729   */\n      0x20\n        /* \"#utility.yul\":5716:5725   */\n      dup3\n        /* \"#utility.yul\":5712:5730   */\n      add\n        /* \"#utility.yul\":5704:5730   */\n      swap1\n      pop\n        /* \"#utility.yul\":5740:5807   */\n      tag_146\n        /* \"#utility.yul\":5804:5805   */\n      0x00\n        /* \"#utility.yul\":5793:5802   */\n      dup4\n        /* \"#utility.yul\":5789:5806   */\n      add\n        /* \"#utility.yul\":5780:5786   */\n      dup5\n        /* \"#utility.yul\":5740:5807   */\n      tag_131\n      jump\t// in\n    tag_146:\n        /* \"#utility.yul\":5600:5814   */\n      swap3\n      swap2\n      pop\n      pop\n      jump\t// out\n        /* \"#utility.yul\":5820:5949   */\n    tag_78:\n        /* \"#utility.yul\":5854:5860   */\n      0x00\n        /* \"#utility.yul\":5881:5901   */\n      tag_148\n      tag_149\n      jump\t// in\n    tag_148:\n        /* \"#utility.yul\":5871:5901   */\n      swap1\n      pop\n        /* \"#utility.yul\":5910:5943   */\n      tag_150\n        /* \"#utility.yul\":5938:5942   */\n      dup3\n        /* \"#utility.yul\":5930:5936   */\n      dup3\n        /* \"#utility.yul\":5910:5943   */\n      tag_151\n      jump\t// in\n    tag_150:\n        /* \"#utility.yul\":5820:5949   */\n      swap2\n      swap1\n      pop\n      jump\t// out\n        /* \"#utility.yul\":5955:6030   */\n    tag_149:\n        /* \"#utility.yul\":5988:5994   */\n      0x00\n        /* \"#utility.yul\":6021:6023   */\n      0x40\n        /* \"#utility.yul\":6015:6024   */\n      mload\n        /* \"#utility.yul\":6005:6024   */\n      swap1\n      pop\n        /* \"#utility.yul\":5955:6030   */\n      swap1\n      jump\t// out\n        /* \"#utility.yul\":6036:6344   */\n    tag_77:\n        /* \"#utility.yul\":6098:6102   */\n      0x00\n        /* \"#utility.yul\":6188:6206   */\n      0xffffffffffffffff\n        /* \"#utility.yul\":6180:6186   */\n      dup3\n        /* \"#utility.yul\":6177:6207   */\n      gt\n        /* \"#utility.yul\":6174:6230   */\n      iszero\n      tag_154\n      jumpi\n        /* \"#utility.yul\":6210:6228   */\n      tag_155\n      tag_156\n      jump\t// in\n    tag_155:\n        /* \"#utility.yul\":6174:6230   */\n    tag_154:\n        /* \"#utility.yul\":6248:6277   */\n      tag_157\n        /* \"#utility.yul\":6270:6276   */\n      dup3\n        /* \"#utility.yul\":6248:6277   */\n      tag_158\n      jump\t// in\n    tag_157:\n        /* \"#utility.yul\":6240:6277   */\n      swap1\n      pop\n        /* \"#utility.yul\":6332:6336   */\n      0x20\n        /* \"#utility.yul\":6326:6330   */\n      dup2\n        /* \"#utility.yul\":6322:6337   */\n      add\n        /* \"#utility.yul\":6314:6337   */\n      swap1\n      pop\n        /* \"#utility.yul\":6036:6344   */\n      swap2\n      swap1\n      pop\n      jump\t// out\n        /* \"#utility.yul\":6350:6466   */\n    tag_159:\n        /* \"#utility.yul\":6401:6405   */\n      0x00\n        /* \"#utility.yul\":6424:6427   */\n      dup2\n        /* \"#utility.yul\":6416:6427   */\n      swap1\n      pop\n        /* \"#utility.yul\":6454:6458   */\n      0x20\n        /* \"#utility.yul\":6449:6452   */\n      dup3\n        /* \"#utility.yul\":6445:6459   */\n      add\n        /* \"#utility.yul\":6437:6459   */\n      swap1\n      pop\n        /* \"#utility.yul\":6350:6466   */\n      swap2\n      swap1\n      pop\n      jump\t// out\n        /* \"#utility.yul\":6472:6570   */\n    tag_161:\n        /* \"#utility.yul\":6523:6529   */\n      0x00\n        /* \"#utility.yul\":6557:6562   */\n      dup2\n        /* \"#utility.yul\":6551:6563   */\n      mload\n        /* \"#utility.yul\":6541:6563   */\n      swap1\n      pop\n        /* \"#utility.yul\":6472:6570   */\n      swap2\n      swap1\n      pop\n      jump\t// out\n        /* \"#utility.yul\":6576:6745   */\n    tag_123:\n        /* \"#utility.yul\":6660:6671   */\n      0x00\n        /* \"#utility.yul\":6694:6700   */\n      dup3\n        /* \"#utility.yul\":6689:6692   */\n      dup3\n        /* \"#utility.yul\":6682:6701   */\n      mstore\n        /* \"#utility.yul\":6734:6738   */\n      0x20\n        /* \"#utility.yul\":6729:6732   */\n      dup3\n        /* \"#utility.yul\":6725:6739   */\n      add\n        /* \"#utility.yul\":6710:6739   */\n      swap1\n      pop\n        /* \"#utility.yul\":6576:6745   */\n      swap3\n      swap2\n      pop\n      pop\n      jump\t// out\n        /* \"#utility.yul\":6751:6988   */\n    tag_65:\n        /* \"#utility.yul\":6789:6792   */\n      0x00\n        /* \"#utility.yul\":6808:6826   */\n      tag_165\n        /* \"#utility.yul\":6824:6825   */\n      dup3\n        /* \"#utility.yul\":6808:6826   */\n      tag_134\n      jump\t// in\n    tag_165:\n        /* \"#utility.yul\":6803:6826   */\n      swap2\n      pop\n        /* \"#utility.yul\":6840:6858   */\n      tag_166\n        /* \"#utility.yul\":6856:6857   */\n      dup4\n        /* \"#utility.yul\":6840:6858   */\n      tag_134\n      jump\t// in\n    tag_166:\n        /* \"#utility.yul\":6835:6858   */\n      swap3\n      pop\n        /* \"#utility.yul\":6930:6931   */\n      dup3\n        /* \"#utility.yul\":6924:6928   */\n      0xff\n        /* \"#utility.yul\":6920:6932   */\n      sub\n        /* \"#utility.yul\":6917:6918   */\n      dup3\n        /* \"#utility.yul\":6914:6933   */\n      gt\n        /* \"#utility.yul\":6911:6956   */\n      iszero\n      tag_167\n      jumpi\n        /* \"#utility.yul\":6936:6954   */\n      tag_168\n      tag_169\n      jump\t// in\n    tag_168:\n        /* \"#utility.yul\":6911:6956   */\n    tag_167:\n        /* \"#utility.yul\":6980:6981   */\n      dup3\n        /* \"#utility.yul\":6977:6978   */\n      dup3\n        /* \"#utility.yul\":6973:6982   */\n      add\n        /* \"#utility.yul\":6966:6982   */\n      swap1\n      pop\n        /* \"#utility.yul\":6751:6988   */\n      swap3\n      swap2\n      pop\n      pop\n      jump\t// out\n        /* \"#utility.yul\":6994:7143   */\n    tag_119:\n        /* \"#utility.yul\":7030:7037   */\n      0x00\n        /* \"#utility.yul\":7070:7136   */\n      0xffffffffffffffff000000000000000000000000000000000000000000000000\n        /* \"#utility.yul\":7063:7068   */\n      dup3\n        /* \"#utility.yul\":7059:7137   */\n      and\n        /* \"#utility.yul\":7048:7137   */\n      swap1\n      pop\n        /* \"#utility.yul\":6994:7143   */\n      swap2\n      swap1\n      pop\n      jump\t// out\n        /* \"#utility.yul\":7149:7226   */\n    tag_171:\n        /* \"#utility.yul\":7186:7193   */\n      0x00\n        /* \"#utility.yul\":7215:7220   */\n      dup2\n        /* \"#utility.yul\":7204:7220   */\n      swap1\n      pop\n        /* \"#utility.yul\":7149:7226   */\n      swap2\n      swap1\n      pop\n      jump\t// out\n        /* \"#utility.yul\":7232:7318   */\n    tag_134:\n        /* \"#utility.yul\":7267:7274   */\n      0x00\n        /* \"#utility.yul\":7307:7311   */\n      0xff\n        /* \"#utility.yul\":7300:7305   */\n      dup3\n        /* \"#utility.yul\":7296:7312   */\n      and\n        /* \"#utility.yul\":7285:7312   */\n      swap1\n      pop\n        /* \"#utility.yul\":7232:7318   */\n      swap2\n      swap1\n      pop\n      jump\t// out\n        /* \"#utility.yul\":7324:7914   */\n    tag_51:\n        /* \"#utility.yul\":7407:7412   */\n      0x00\n        /* \"#utility.yul\":7438:7476   */\n      tag_175\n        /* \"#utility.yul\":7470:7475   */\n      dup3\n        /* \"#utility.yul\":7438:7476   */\n      tag_161\n      jump\t// in\n    tag_175:\n        /* \"#utility.yul\":7501:7506   */\n      dup3\n        /* \"#utility.yul\":7528:7568   */\n      tag_176\n        /* \"#utility.yul\":7562:7567   */\n      dup5\n        /* \"#utility.yul\":7528:7568   */\n      tag_159\n      jump\t// in\n    tag_176:\n        /* \"#utility.yul\":7516:7568   */\n      swap1\n      pop\n        /* \"#utility.yul\":7587:7621   */\n      tag_177\n        /* \"#utility.yul\":7612:7620   */\n      dup2\n        /* \"#utility.yul\":7587:7621   */\n      tag_178\n      jump\t// in\n    tag_177:\n        /* \"#utility.yul\":7578:7621   */\n      swap3\n      pop\n        /* \"#utility.yul\":7645:7646   */\n      0x08\n        /* \"#utility.yul\":7637:7643   */\n      dup3\n        /* \"#utility.yul\":7634:7647   */\n      lt\n        /* \"#utility.yul\":7631:7907   */\n      iszero\n      tag_179\n      jumpi\n        /* \"#utility.yul\":7715:7883   */\n      tag_180\n        /* \"#utility.yul\":7799:7865   */\n      0xffffffffffffffff000000000000000000000000000000000000000000000000\n        /* \"#utility.yul\":7769:7775   */\n      dup4\n        /* \"#utility.yul\":7766:7767   */\n      0x08\n        /* \"#utility.yul\":7762:7776   */\n      sub\n        /* \"#utility.yul\":7759:7760   */\n      0x08\n        /* \"#utility.yul\":7755:7777   */\n      mul\n        /* \"#utility.yul\":7715:7883   */\n      tag_181\n      jump\t// in\n    tag_180:\n        /* \"#utility.yul\":7692:7697   */\n      dup4\n        /* \"#utility.yul\":7671:7897   */\n      and\n        /* \"#utility.yul\":7662:7897   */\n      swap3\n      pop\n        /* \"#utility.yul\":7631:7907   */\n    tag_179:\n        /* \"#utility.yul\":7413:7914   */\n      pop\n      pop\n        /* \"#utility.yul\":7324:7914   */\n      swap2\n      swap1\n      pop\n      jump\t// out\n        /* \"#utility.yul\":7920:8074   */\n    tag_83:\n        /* \"#utility.yul\":8004:8010   */\n      dup3\n        /* \"#utility.yul\":7999:8002   */\n      dup2\n        /* \"#utility.yul\":7994:7997   */\n      dup4\n        /* \"#utility.yul\":7981:8011   */\n      calldatacopy\n        /* \"#utility.yul\":8066:8067   */\n      0x00\n        /* \"#utility.yul\":8057:8063   */\n      dup4\n        /* \"#utility.yul\":8052:8055   */\n      dup4\n        /* \"#utility.yul\":8048:8064   */\n      add\n        /* \"#utility.yul\":8041:8068   */\n      mstore\n        /* \"#utility.yul\":7920:8074   */\n      pop\n      pop\n      pop\n      jump\t// out\n        /* \"#utility.yul\":8080:8361   */\n    tag_151:\n        /* \"#utility.yul\":8163:8190   */\n      tag_184\n        /* \"#utility.yul\":8185:8189   */\n      dup3\n        /* \"#utility.yul\":8163:8190   */\n      tag_158\n      jump\t// in\n    tag_184:\n        /* \"#utility.yul\":8155:8161   */\n      dup2\n        /* \"#utility.yul\":8151:8191   */\n      add\n        /* \"#utility.yul\":8293:8299   */\n      dup2\n        /* \"#utility.yul\":8281:8291   */\n      dup2\n        /* \"#utility.yul\":8278:8300   */\n      lt\n        /* \"#utility.yul\":8257:8275   */\n      0xffffffffffffffff\n        /* \"#utility.yul\":8245:8255   */\n      dup3\n        /* \"#utility.yul\":8242:8276   */\n      gt\n        /* \"#utility.yul\":8239:8301   */\n      or\n        /* \"#utility.yul\":8236:8324   */\n      iszero\n      tag_185\n      jumpi\n        /* \"#utility.yul\":8304:8322   */\n      tag_186\n      tag_156\n      jump\t// in\n    tag_186:\n        /* \"#utility.yul\":8236:8324   */\n    tag_185:\n        /* \"#utility.yul\":8344:8354   */\n      dup1\n        /* \"#utility.yul\":8340:8342   */\n      0x40\n        /* \"#utility.yul\":8333:8355   */\n      mstore\n        /* \"#utility.yul\":8123:8361   */\n      pop\n        /* \"#utility.yul\":8080:8361   */\n      pop\n      pop\n      jump\t// out\n        /* \"#utility.yul\":8367:8600   */\n    tag_45:\n        /* \"#utility.yul\":8406:8409   */\n      0x00\n        /* \"#utility.yul\":8429:8453   */\n      tag_188\n        /* \"#utility.yul\":8447:8452   */\n      dup3\n        /* \"#utility.yul\":8429:8453   */\n      tag_171\n      jump\t// in\n    tag_188:\n        /* \"#utility.yul\":8420:8453   */\n      swap2\n      pop\n        /* \"#utility.yul\":8475:8541   */\n      0xffffffffffffffffffffffffffffffffffffffffffffffffffffffffffffffff\n        /* \"#utility.yul\":8468:8473   */\n      dup3\n        /* \"#utility.yul\":8465:8542   */\n      eq\n        /* \"#utility.yul\":8462:8565   */\n      iszero\n      tag_189\n      jumpi\n        /* \"#utility.yul\":8545:8563   */\n      tag_190\n      tag_169\n      jump\t// in\n    tag_190:\n        /* \"#utility.yul\":8462:8565   */\n    tag_189:\n        /* \"#utility.yul\":8592:8593   */\n      0x01\n        /* \"#utility.yul\":8585:8590   */\n      dup3\n        /* \"#utility.yul\":8581:8594   */\n      add\n        /* \"#utility.yul\":8574:8594   */\n      swap1\n      pop\n        /* \"#utility.yul\":8367:8600   */\n      swap2\n      swap1\n      pop\n      jump\t// out\n        /* \"#utility.yul\":8606:8786   */\n    tag_169:\n        /* \"#utility.yul\":8654:8731   */\n      0x4e487b7100000000000000000000000000000000000000000000000000000000\n        /* \"#utility.yul\":8651:8652   */\n      0x00\n        /* \"#utility.yul\":8644:8732   */\n      mstore\n        /* \"#utility.yul\":8751:8755   */\n      0x11\n        /* \"#utility.yul\":8748:8749   */\n      0x04\n        /* \"#utility.yul\":8741:8756   */\n      mstore\n        /* \"#utility.yul\":8775:8779   */\n      0x24\n        /* \"#utility.yul\":8772:8773   */\n      0x00\n        /* \"#utility.yul\":8765:8780   */\n      revert\n        /* \"#utility.yul\":8792:8972   */\n    tag_28:\n        /* \"#utility.yul\":8840:8917   */\n      0x4e487b7100000000000000000000000000000000000000000000000000000000\n        /* \"#utility.yul\":8837:8838   */\n      0x00\n        /* \"#utility.yul\":8830:8918   */\n      mstore\n        /* \"#utility.yul\":8937:8941   */\n      0x32\n        /* \"#utility.yul\":8934:8935   */\n      0x04\n        /* \"#utility.yul\":8927:8942   */\n      mstore\n        /* \"#utility.yul\":8961:8965   */\n      0x24\n        /* \"#utility.yul\":8958:8959   */\n      0x00\n        /* \"#utility.yul\":8951:8966   */\n      revert\n        /* \"#utility.yul\":8978:9158   */\n    tag_156:\n        /* \"#utility.yul\":9026:9103   */\n      0x4e487b7100000000000000000000000000000000000000000000000000000000\n        /* \"#utility.yul\":9023:9024   */\n      0x00\n        /* \"#utility.yul\":9016:9104   */\n      mstore\n        /* \"#utility.yul\":9123:9127   */\n      0x41\n        /* \"#utility.yul\":9120:9121   */\n      0x04\n        /* \"#utility.yul\":9113:9128   */\n      mstore\n        /* \"#utility.yul\":9147:9151   */\n      0x24\n        /* \"#utility.yul\":9144:9145   */\n      0x00\n        /* \"#utility.yul\":9137:9152   */\n      revert\n        /* \"#utility.yul\":9164:9316   */\n    tag_178:\n        /* \"#utility.yul\":9206:9217   */\n      0x00\n        /* \"#utility.yul\":9242:9270   */\n      tag_195\n        /* \"#utility.yul\":9265:9268   */\n      dup3\n        /* \"#utility.yul\":9259:9269   */\n      mload\n        /* \"#utility.yul\":9242:9270   */\n      tag_119\n      jump\t// in\n    tag_195:\n        /* \"#utility.yul\":9304:9309   */\n      dup1\n        /* \"#utility.yul\":9280:9309   */\n      swap2\n      pop\n        /* \"#utility.yul\":9218:9316   */\n      pop\n        /* \"#utility.yul\":9164:9316   */\n      swap2\n      swap1\n      pop\n      jump\t// out\n        /* \"#utility.yul\":9322:9439   */\n    tag_88:\n        /* \"#utility.yul\":9431:9432   */\n      0x00\n        /* \"#utility.yul\":9428:9429   */\n      dup1\n        /* \"#utility.yul\":9421:9433   */\n      revert\n        /* \"#utility.yul\":9445:9562   */\n    tag_81:\n        /* \"#utility.yul\":9554:9555   */\n      0x00\n        /* \"#utility.yul\":9551:9552   */\n      dup1\n        /* \"#utility.yul\":9544:9556   */\n      revert\n        /* \"#utility.yul\":9568:9685   */\n    tag_96:\n        /* \"#utility.yul\":9677:9678   */\n      0x00\n        /* \"#utility.yul\":9674:9675   */\n      dup1\n        /* \"#utility.yul\":9667:9679   */\n      revert\n        /* \"#utility.yul\":9691:9808   */\n    tag_93:\n        /* \"#utility.yul\":9800:9801   */\n      0x00\n        /* \"#utility.yul\":9797:9798   */\n      dup1\n        /* \"#utility.yul\":9790:9802   */\n      revert\n        /* \"#utility.yul\":9814:9916   */\n    tag_158:\n        /* \"#utility.yul\":9855:9861   */\n      0x00\n        /* \"#utility.yul\":9906:9908   */\n      0x1f\n        /* \"#utility.yul\":9902:9909   */\n      not\n        /* \"#utility.yul\":9897:9899   */\n      0x1f\n        /* \"#utility.yul\":9890:9895   */\n      dup4\n        /* \"#utility.yul\":9886:9900   */\n      add\n        /* \"#utility.yul\":9882:9910   */\n      and\n        /* \"#utility.yul\":9872:9910   */\n      swap1\n      pop\n        /* \"#utility.yul\":9814:9916   */\n      swap2\n      swap1\n      pop\n      jump\t// out\n        /* \"#utility.yul\":9922:10029   */\n    tag_181:\n        /* \"#utility.yul\":9966:9974   */\n      0x00\n        /* \"#utility.yul\":10016:10021   */\n      dup3\n        /* \"#utility.yul\":10010:10014   */\n      dup3\n        /* \"#utility.yul\":10006:10022   */\n      shl\n        /* \"#utility.yul\":9985:10022   */\n      swap1\n      pop\n        /* \"#utility.yul\":9922:10029   */\n      swap3\n      swap2\n      pop\n      pop\n      jump\t// out\n        /* \"#utility.yul\":10035:10201   */\n    tag_125:\n        /* \"#utility.yul\":10175:10193   */\n      0x556e7472616365642070726f6475637400000000000000000000000000000000\n        /* \"#utility.yul\":10171:10172   */\n      0x00\n        /* \"#utility.yul\":10163:10169   */\n      dup3\n        /* \"#utility.yul\":10159:10173   */\n      add\n        /* \"#utility.yul\":10152:10194   */\n      mstore\n        /* \"#utility.yul\":10035:10201   */\n      pop\n      jump\t// out\n        /* \"#utility.yul\":10207:10375   */\n    tag_130:\n        /* \"#utility.yul\":10347:10367   */\n      0x446576696365206e6f742070726573656e740000000000000000000000000000\n        /* \"#utility.yul\":10343:10344   */\n      0x00\n        /* \"#utility.yul\":10335:10341   */\n      dup3\n        /* \"#utility.yul\":10331:10345   */\n      add\n        /* \"#utility.yul\":10324:10368   */\n      mstore\n        /* \"#utility.yul\":10207:10375   */\n      pop\n      jump\t// out\n\n    auxdata: 0xa26469706673582212208574e58576e5a36f75c4148c26018d0bb309ca2b196c7e4578abf50c16b50fd964736f6c63430008070033\n}\n",
				"bytecode": {
					"linkReferences": {},
					"object": "608060405260008060006101000a81548160ff021916908360ff16021790555034801561002b57600080fd5b50610f618061003b6000396000f3fe608060405234801561001057600080fd5b506004361061004c5760003560e01c8063ab269de514610051578063be1c766b1461005b578063c9a124b714610065578063dafb4ef714610081575b600080fd5b61005961009d565b005b610063610244565b005b61007f600480360381019061007a9190610a00565b610282565b005b61009b600480360381019061009691906109b7565b6106a8565b005b6000600280549050116100e5576040517f08c379a00000000000000000000000000000000000000000000000000000000081526004016100dc90610bbe565b60405180910390fd5b60005b600280549050811015610241577f838f77567dd6a97ad4c0c1d166650d146183ba7c59d34e5d6e1a8491b32be5d06002828154811061012a57610129610e34565b5b906000526020600020906002020160000160009054906101000a900460c01b6002838154811061015d5761015c610e34565b5b906000526020600020906002020160000160089054906101000a900460c01b600284815481106101905761018f610e34565b5b906000526020600020906002020160000160109054906101000a900460c01b600285815481106101c3576101c2610e34565b5b906000526020600020906002020160000160189054906101000a900460c01b600286815481106101f6576101f5610e34565b5b906000526020600020906002020160010160009054906101000a900460c01b604051610226959493929190610b6b565b60405180910390a1808061023990610dbc565b9150506100e8565b50565b7f11faa32eb71008ea8a2443858afc5f1c2dc6531f38c8f495c2386728486176446002805490506040516102789190610bfe565b60405180910390a1565b60008161028e90610d15565b90506040518060a00160405280876102a590610d15565b77ffffffffffffffffffffffffffffffffffffffffffffffff19168152602001866102cf90610d15565b77ffffffffffffffffffffffffffffffffffffffffffffffff19168152602001856102f990610d15565b77ffffffffffffffffffffffffffffffffffffffffffffffff191681526020018461032390610d15565b77ffffffffffffffffffffffffffffffffffffffffffffffff191681526020018361034d90610d15565b77ffffffffffffffffffffffffffffffffffffffffffffffff1916815250600160008377ffffffffffffffffffffffffffffffffffffffffffffffff191677ffffffffffffffffffffffffffffffffffffffffffffffff1916815260200190815260200160002060008201518160000160006101000a81548167ffffffffffffffff021916908360c01c021790555060208201518160000160086101000a81548167ffffffffffffffff021916908360c01c021790555060408201518160000160106101000a81548167ffffffffffffffff021916908360c01c021790555060608201518160000160186101000a81548167ffffffffffffffff021916908360c01c021790555060808201518160010160006101000a81548167ffffffffffffffff021916908360c01c02179055509050506002600160008377ffffffffffffffffffffffffffffffffffffffffffffffff191677ffffffffffffffffffffffffffffffffffffffffffffffff1916815260200190815260200160002090806001815401808255809150506001900390600052602060002090600202016000909190919091506000820160009054906101000a900460c01b8160000160006101000a81548167ffffffffffffffff021916908360c01c02179055506000820160089054906101000a900460c01b8160000160086101000a81548167ffffffffffffffff021916908360c01c02179055506000820160109054906101000a900460c01b8160000160106101000a81548167ffffffffffffffff021916908360c01c02179055506000820160189054906101000a900460c01b8160000160186101000a81548167ffffffffffffffff021916908360c01c02179055506001820160009054906101000a900460c01b8160010160006101000a81548167ffffffffffffffff021916908360c01c021790555050507f0ab6b8fa98dcb3202ce3b4bdb1333242ff3e6f52dd5aee20c1a202d1cb649d568661062990610d15565b8661063390610d15565b8661063d90610d15565b8661064790610d15565b8661065190610d15565b604051610662959493929190610b6b565b60405180910390a160016000808282829054906101000a900460ff166106889190610c9b565b92506101000a81548160ff021916908360ff160217905550505050505050565b600060016000836106b890610d15565b77ffffffffffffffffffffffffffffffffffffffffffffffff191677ffffffffffffffffffffffffffffffffffffffffffffffff191681526020019081526020016000206040518060a00160405290816000820160009054906101000a900460c01b77ffffffffffffffffffffffffffffffffffffffffffffffff191677ffffffffffffffffffffffffffffffffffffffffffffffff191681526020016000820160089054906101000a900460c01b77ffffffffffffffffffffffffffffffffffffffffffffffff191677ffffffffffffffffffffffffffffffffffffffffffffffff191681526020016000820160109054906101000a900460c01b77ffffffffffffffffffffffffffffffffffffffffffffffff191677ffffffffffffffffffffffffffffffffffffffffffffffff191681526020016000820160189054906101000a900460c01b77ffffffffffffffffffffffffffffffffffffffffffffffff191677ffffffffffffffffffffffffffffffffffffffffffffffff191681526020016001820160009054906101000a900460c01b77ffffffffffffffffffffffffffffffffffffffffffffffff191677ffffffffffffffffffffffffffffffffffffffffffffffff1916815250509050600060c01b816060015177ffffffffffffffffffffffffffffffffffffffffffffffff191614156108f0576040517f08c379a00000000000000000000000000000000000000000000000000000000081526004016108e790610bde565b60405180910390fd5b7f838f77567dd6a97ad4c0c1d166650d146183ba7c59d34e5d6e1a8491b32be5d08160000151826020015183604001518460600151856080015160405161093b959493929190610b6b565b60405180910390a15050565b600061095a61095584610c3e565b610c19565b90508281526020810184848401111561097657610975610eac565b5b610981848285610d7c565b509392505050565b600082601f83011261099e5761099d610ea7565b5b81356109ae848260208601610947565b91505092915050565b6000602082840312156109cd576109cc610eb6565b5b600082013567ffffffffffffffff8111156109eb576109ea610eb1565b5b6109f784828501610989565b91505092915050565b600080600080600060a08688031215610a1c57610a1b610eb6565b5b600086013567ffffffffffffffff811115610a3a57610a39610eb1565b5b610a4688828901610989565b955050602086013567ffffffffffffffff811115610a6757610a66610eb1565b5b610a7388828901610989565b945050604086013567ffffffffffffffff811115610a9457610a93610eb1565b5b610aa088828901610989565b935050606086013567ffffffffffffffff811115610ac157610ac0610eb1565b5b610acd88828901610989565b925050608086013567ffffffffffffffff811115610aee57610aed610eb1565b5b610afa88828901610989565b9150509295509295909350565b610b1081610cd2565b82525050565b6000610b23601083610c8a565b9150610b2e82610ed9565b602082019050919050565b6000610b46601283610c8a565b9150610b5182610f02565b602082019050919050565b610b6581610d08565b82525050565b600060a082019050610b806000830188610b07565b610b8d6020830187610b07565b610b9a6040830186610b07565b610ba76060830185610b07565b610bb46080830184610b07565b9695505050505050565b60006020820190508181036000830152610bd781610b16565b9050919050565b60006020820190508181036000830152610bf781610b39565b9050919050565b6000602082019050610c136000830184610b5c565b92915050565b6000610c23610c34565b9050610c2f8282610d8b565b919050565b6000604051905090565b600067ffffffffffffffff821115610c5957610c58610e63565b5b610c6282610ebb565b9050602081019050919050565b6000819050602082019050919050565b600081519050919050565b600082825260208201905092915050565b6000610ca682610d08565b9150610cb183610d08565b92508260ff03821115610cc757610cc6610e05565b5b828201905092915050565b60007fffffffffffffffff00000000000000000000000000000000000000000000000082169050919050565b6000819050919050565b600060ff82169050919050565b6000610d2082610c7f565b82610d2a84610c6f565b9050610d3581610e92565b92506008821015610d7557610d707fffffffffffffffff00000000000000000000000000000000000000000000000083600803600802610ecc565b831692505b5050919050565b82818337600083830152505050565b610d9482610ebb565b810181811067ffffffffffffffff82111715610db357610db2610e63565b5b80604052505050565b6000610dc782610cfe565b91507fffffffffffffffffffffffffffffffffffffffffffffffffffffffffffffffff821415610dfa57610df9610e05565b5b600182019050919050565b7f4e487b7100000000000000000000000000000000000000000000000000000000600052601160045260246000fd5b7f4e487b7100000000000000000000000000000000000000000000000000000000600052603260045260246000fd5b7f4e487b7100000000000000000000000000000000000000000000000000000000600052604160045260246000fd5b6000610e9e8251610cd2565b80915050919050565b600080fd5b600080fd5b600080fd5b600080fd5b6000601f19601f8301169050919050565b600082821b905092915050565b7f556e7472616365642070726f6475637400000000000000000000000000000000600082015250565b7f446576696365206e6f742070726573656e74000000000000000000000000000060008201525056fea26469706673582212208574e58576e5a36f75c4148c26018d0bb309ca2b196c7e4578abf50c16b50fd964736f6c63430008070033",
					"opcodes": "PUSH1 0x80 PUSH1 0x40 MSTORE PUSH1 0x0 DUP1 PUSH1 0x0 PUSH2 0x100 EXP DUP2 SLOAD DUP2 PUSH1 0xFF MUL NOT AND SWAP1 DUP4 PUSH1 0xFF AND MUL OR SWAP1 SSTORE POP CALLVALUE DUP1 ISZERO PUSH2 0x2B JUMPI PUSH1 0x0 DUP1 REVERT JUMPDEST POP PUSH2 0xF61 DUP1 PUSH2 0x3B PUSH1 0x0 CODECOPY PUSH1 0x0 RETURN INVALID PUSH1 0x80 PUSH1 0x40 MSTORE CALLVALUE DUP1 ISZERO PUSH2 0x10 JUMPI PUSH1 0x0 DUP1 REVERT JUMPDEST POP PUSH1 0x4 CALLDATASIZE LT PUSH2 0x4C JUMPI PUSH1 0x0 CALLDATALOAD PUSH1 0xE0 SHR DUP1 PUSH4 0xAB269DE5 EQ PUSH2 0x51 JUMPI DUP1 PUSH4 0xBE1C766B EQ PUSH2 0x5B JUMPI DUP1 PUSH4 0xC9A124B7 EQ PUSH2 0x65 JUMPI DUP1 PUSH4 0xDAFB4EF7 EQ PUSH2 0x81 JUMPI JUMPDEST PUSH1 0x0 DUP1 REVERT JUMPDEST PUSH2 0x59 PUSH2 0x9D JUMP JUMPDEST STOP JUMPDEST PUSH2 0x63 PUSH2 0x244 JUMP JUMPDEST STOP JUMPDEST PUSH2 0x7F PUSH1 0x4 DUP1 CALLDATASIZE SUB DUP2 ADD SWAP1 PUSH2 0x7A SWAP2 SWAP1 PUSH2 0xA00 JUMP JUMPDEST PUSH2 0x282 JUMP JUMPDEST STOP JUMPDEST PUSH2 0x9B PUSH1 0x4 DUP1 CALLDATASIZE SUB DUP2 ADD SWAP1 PUSH2 0x96 SWAP2 SWAP1 PUSH2 0x9B7 JUMP JUMPDEST PUSH2 0x6A8 JUMP JUMPDEST STOP JUMPDEST PUSH1 0x0 PUSH1 0x2 DUP1 SLOAD SWAP1 POP GT PUSH2 0xE5 JUMPI PUSH1 0x40 MLOAD PUSH32 0x8C379A000000000000000000000000000000000000000000000000000000000 DUP2 MSTORE PUSH1 0x4 ADD PUSH2 0xDC SWAP1 PUSH2 0xBBE JUMP JUMPDEST PUSH1 0x40 MLOAD DUP1 SWAP2 SUB SWAP1 REVERT JUMPDEST PUSH1 0x0 JUMPDEST PUSH1 0x2 DUP1 SLOAD SWAP1 POP DUP2 LT ISZERO PUSH2 0x241 JUMPI PUSH32 0x838F77567DD6A97AD4C0C1D166650D146183BA7C59D34E5D6E1A8491B32BE5D0 PUSH1 0x2 DUP3 DUP2 SLOAD DUP2 LT PUSH2 0x12A JUMPI PUSH2 0x129 PUSH2 0xE34 JUMP JUMPDEST JUMPDEST SWAP1 PUSH1 0x0 MSTORE PUSH1 0x20 PUSH1 0x0 KECCAK256 SWAP1 PUSH1 0x2 MUL ADD PUSH1 0x0 ADD PUSH1 0x0 SWAP1 SLOAD SWAP1 PUSH2 0x100 EXP SWAP1 DIV PUSH1 0xC0 SHL PUSH1 0x2 DUP4 DUP2 SLOAD DUP2 LT PUSH2 0x15D JUMPI PUSH2 0x15C PUSH2 0xE34 JUMP JUMPDEST JUMPDEST SWAP1 PUSH1 0x0 MSTORE PUSH1 0x20 PUSH1 0x0 KECCAK256 SWAP1 PUSH1 0x2 MUL ADD PUSH1 0x0 ADD PUSH1 0x8 SWAP1 SLOAD SWAP1 PUSH2 0x100 EXP SWAP1 DIV PUSH1 0xC0 SHL PUSH1 0x2 DUP5 DUP2 SLOAD DUP2 LT PUSH2 0x190 JUMPI PUSH2 0x18F PUSH2 0xE34 JUMP JUMPDEST JUMPDEST SWAP1 PUSH1 0x0 MSTORE PUSH1 0x20 PUSH1 0x0 KECCAK256 SWAP1 PUSH1 0x2 MUL ADD PUSH1 0x0 ADD PUSH1 0x10 SWAP1 SLOAD SWAP1 PUSH2 0x100 EXP SWAP1 DIV PUSH1 0xC0 SHL PUSH1 0x2 DUP6 DUP2 SLOAD DUP2 LT PUSH2 0x1C3 JUMPI PUSH2 0x1C2 PUSH2 0xE34 JUMP JUMPDEST JUMPDEST SWAP1 PUSH1 0x0 MSTORE PUSH1 0x20 PUSH1 0x0 KECCAK256 SWAP1 PUSH1 0x2 MUL ADD PUSH1 0x0 ADD PUSH1 0x18 SWAP1 SLOAD SWAP1 PUSH2 0x100 EXP SWAP1 DIV PUSH1 0xC0 SHL PUSH1 0x2 DUP7 DUP2 SLOAD DUP2 LT PUSH2 0x1F6 JUMPI PUSH2 0x1F5 PUSH2 0xE34 JUMP JUMPDEST JUMPDEST SWAP1 PUSH1 0x0 MSTORE PUSH1 0x20 PUSH1 0x0 KECCAK256 SWAP1 PUSH1 0x2 MUL ADD PUSH1 0x1 ADD PUSH1 0x0 SWAP1 SLOAD SWAP1 PUSH2 0x100 EXP SWAP1 DIV PUSH1 0xC0 SHL PUSH1 0x40 MLOAD PUSH2 0x226 SWAP6 SWAP5 SWAP4 SWAP3 SWAP2 SWAP1 PUSH2 0xB6B JUMP JUMPDEST PUSH1 0x40 MLOAD DUP1 SWAP2 SUB SWAP1 LOG1 DUP1 DUP1 PUSH2 0x239 SWAP1 PUSH2 0xDBC JUMP JUMPDEST SWAP2 POP POP PUSH2 0xE8 JUMP JUMPDEST POP JUMP JUMPDEST PUSH32 0x11FAA32EB71008EA8A2443858AFC5F1C2DC6531F38C8F495C238672848617644 PUSH1 0x2 DUP1 SLOAD SWAP1 POP PUSH1 0x40 MLOAD PUSH2 0x278 SWAP2 SWAP1 PUSH2 0xBFE JUMP JUMPDEST PUSH1 0x40 MLOAD DUP1 SWAP2 SUB SWAP1 LOG1 JUMP JUMPDEST PUSH1 0x0 DUP2 PUSH2 0x28E SWAP1 PUSH2 0xD15 JUMP JUMPDEST SWAP1 POP PUSH1 0x40 MLOAD DUP1 PUSH1 0xA0 ADD PUSH1 0x40 MSTORE DUP1 DUP8 PUSH2 0x2A5 SWAP1 PUSH2 0xD15 JUMP JUMPDEST PUSH24 0xFFFFFFFFFFFFFFFFFFFFFFFFFFFFFFFFFFFFFFFFFFFFFFFF NOT AND DUP2 MSTORE PUSH1 0x20 ADD DUP7 PUSH2 0x2CF SWAP1 PUSH2 0xD15 JUMP JUMPDEST PUSH24 0xFFFFFFFFFFFFFFFFFFFFFFFFFFFFFFFFFFFFFFFFFFFFFFFF NOT AND DUP2 MSTORE PUSH1 0x20 ADD DUP6 PUSH2 0x2F9 SWAP1 PUSH2 0xD15 JUMP JUMPDEST PUSH24 0xFFFFFFFFFFFFFFFFFFFFFFFFFFFFFFFFFFFFFFFFFFFFFFFF NOT AND DUP2 MSTORE PUSH1 0x20 ADD DUP5 PUSH2 0x323 SWAP1 PUSH2 0xD15 JUMP JUMPDEST PUSH24 0xFFFFFFFFFFFFFFFFFFFFFFFFFFFFFFFFFFFFFFFFFFFFFFFF NOT AND DUP2 MSTORE PUSH1 0x20 ADD DUP4 PUSH2 0x34D SWAP1 PUSH2 0xD15 JUMP JUMPDEST PUSH24 0xFFFFFFFFFFFFFFFFFFFFFFFFFFFFFFFFFFFFFFFFFFFFFFFF NOT AND DUP2 MSTORE POP PUSH1 0x1 PUSH1 0x0 DUP4 PUSH24 0xFFFFFFFFFFFFFFFFFFFFFFFFFFFFFFFFFFFFFFFFFFFFFFFF NOT AND PUSH24 0xFFFFFFFFFFFFFFFFFFFFFFFFFFFFFFFFFFFFFFFFFFFFFFFF NOT AND DUP2 MSTORE PUSH1 0x20 ADD SWAP1 DUP2 MSTORE PUSH1 0x20 ADD PUSH1 0x0 KECCAK256 PUSH1 0x0 DUP3 ADD MLOAD DUP2 PUSH1 0x0 ADD PUSH1 0x0 PUSH2 0x100 EXP DUP2 SLOAD DUP2 PUSH8 0xFFFFFFFFFFFFFFFF MUL NOT AND SWAP1 DUP4 PUSH1 0xC0 SHR MUL OR SWAP1 SSTORE POP PUSH1 0x20 DUP3 ADD MLOAD DUP2 PUSH1 0x0 ADD PUSH1 0x8 PUSH2 0x100 EXP DUP2 SLOAD DUP2 PUSH8 0xFFFFFFFFFFFFFFFF MUL NOT AND SWAP1 DUP4 PUSH1 0xC0 SHR MUL OR SWAP1 SSTORE POP PUSH1 0x40 DUP3 ADD MLOAD DUP2 PUSH1 0x0 ADD PUSH1 0x10 PUSH2 0x100 EXP DUP2 SLOAD DUP2 PUSH8 0xFFFFFFFFFFFFFFFF MUL NOT AND SWAP1 DUP4 PUSH1 0xC0 SHR MUL OR SWAP1 SSTORE POP PUSH1 0x60 DUP3 ADD MLOAD DUP2 PUSH1 0x0 ADD PUSH1 0x18 PUSH2 0x100 EXP DUP2 SLOAD DUP2 PUSH8 0xFFFFFFFFFFFFFFFF MUL NOT AND SWAP1 DUP4 PUSH1 0xC0 SHR MUL OR SWAP1 SSTORE POP PUSH1 0x80 DUP3 ADD MLOAD DUP2 PUSH1 0x1 ADD PUSH1 0x0 PUSH2 0x100 EXP DUP2 SLOAD DUP2 PUSH8 0xFFFFFFFFFFFFFFFF MUL NOT AND SWAP1 DUP4 PUSH1 0xC0 SHR MUL OR SWAP1 SSTORE POP SWAP1 POP POP PUSH1 0x2 PUSH1 0x1 PUSH1 0x0 DUP4 PUSH24 0xFFFFFFFFFFFFFFFFFFFFFFFFFFFFFFFFFFFFFFFFFFFFFFFF NOT AND PUSH24 0xFFFFFFFFFFFFFFFFFFFFFFFFFFFFFFFFFFFFFFFFFFFFFFFF NOT AND DUP2 MSTORE PUSH1 0x20 ADD SWAP1 DUP2 MSTORE PUSH1 0x20 ADD PUSH1 0x0 KECCAK256 SWAP1 DUP1 PUSH1 0x1 DUP2 SLOAD ADD DUP1 DUP3 SSTORE DUP1 SWAP2 POP POP PUSH1 0x1 SWAP1 SUB SWAP1 PUSH1 0x0 MSTORE PUSH1 0x20 PUSH1 0x0 KECCAK256 SWAP1 PUSH1 0x2 MUL ADD PUSH1 0x0 SWAP1 SWAP2 SWAP1 SWAP2 SWAP1 SWAP2 POP PUSH1 0x0 DUP3 ADD PUSH1 0x0 SWAP1 SLOAD SWAP1 PUSH2 0x100 EXP SWAP1 DIV PUSH1 0xC0 SHL DUP2 PUSH1 0x0 ADD PUSH1 0x0 PUSH2 0x100 EXP DUP2 SLOAD DUP2 PUSH8 0xFFFFFFFFFFFFFFFF MUL NOT AND SWAP1 DUP4 PUSH1 0xC0 SHR MUL OR SWAP1 SSTORE POP PUSH1 0x0 DUP3 ADD PUSH1 0x8 SWAP1 SLOAD SWAP1 PUSH2 0x100 EXP SWAP1 DIV PUSH1 0xC0 SHL DUP2 PUSH1 0x0 ADD PUSH1 0x8 PUSH2 0x100 EXP DUP2 SLOAD DUP2 PUSH8 0xFFFFFFFFFFFFFFFF MUL NOT AND SWAP1 DUP4 PUSH1 0xC0 SHR MUL OR SWAP1 SSTORE POP PUSH1 0x0 DUP3 ADD PUSH1 0x10 SWAP1 SLOAD SWAP1 PUSH2 0x100 EXP SWAP1 DIV PUSH1 0xC0 SHL DUP2 PUSH1 0x0 ADD PUSH1 0x10 PUSH2 0x100 EXP DUP2 SLOAD DUP2 PUSH8 0xFFFFFFFFFFFFFFFF MUL NOT AND SWAP1 DUP4 PUSH1 0xC0 SHR MUL OR SWAP1 SSTORE POP PUSH1 0x0 DUP3 ADD PUSH1 0x18 SWAP1 SLOAD SWAP1 PUSH2 0x100 EXP SWAP1 DIV PUSH1 0xC0 SHL DUP2 PUSH1 0x0 ADD PUSH1 0x18 PUSH2 0x100 EXP DUP2 SLOAD DUP2 PUSH8 0xFFFFFFFFFFFFFFFF MUL NOT AND SWAP1 DUP4 PUSH1 0xC0 SHR MUL OR SWAP1 SSTORE POP PUSH1 0x1 DUP3 ADD PUSH1 0x0 SWAP1 SLOAD SWAP1 PUSH2 0x100 EXP SWAP1 DIV PUSH1 0xC0 SHL DUP2 PUSH1 0x1 ADD PUSH1 0x0 PUSH2 0x100 EXP DUP2 SLOAD DUP2 PUSH8 0xFFFFFFFFFFFFFFFF MUL NOT AND SWAP1 DUP4 PUSH1 0xC0 SHR MUL OR SWAP1 SSTORE POP POP POP PUSH32 0xAB6B8FA98DCB3202CE3B4BDB1333242FF3E6F52DD5AEE20C1A202D1CB649D56 DUP7 PUSH2 0x629 SWAP1 PUSH2 0xD15 JUMP JUMPDEST DUP7 PUSH2 0x633 SWAP1 PUSH2 0xD15 JUMP JUMPDEST DUP7 PUSH2 0x63D SWAP1 PUSH2 0xD15 JUMP JUMPDEST DUP7 PUSH2 0x647 SWAP1 PUSH2 0xD15 JUMP JUMPDEST DUP7 PUSH2 0x651 SWAP1 PUSH2 0xD15 JUMP JUMPDEST PUSH1 0x40 MLOAD PUSH2 0x662 SWAP6 SWAP5 SWAP4 SWAP3 SWAP2 SWAP1 PUSH2 0xB6B JUMP JUMPDEST PUSH1 0x40 MLOAD DUP1 SWAP2 SUB SWAP1 LOG1 PUSH1 0x1 PUSH1 0x0 DUP1 DUP3 DUP3 DUP3 SWAP1 SLOAD SWAP1 PUSH2 0x100 EXP SWAP1 DIV PUSH1 0xFF AND PUSH2 0x688 SWAP2 SWAP1 PUSH2 0xC9B JUMP JUMPDEST SWAP3 POP PUSH2 0x100 EXP DUP2 SLOAD DUP2 PUSH1 0xFF MUL NOT AND SWAP1 DUP4 PUSH1 0xFF AND MUL OR SWAP1 SSTORE POP POP POP POP POP POP POP JUMP JUMPDEST PUSH1 0x0 PUSH1 0x1 PUSH1 0x0 DUP4 PUSH2 0x6B8 SWAP1 PUSH2 0xD15 JUMP JUMPDEST PUSH24 0xFFFFFFFFFFFFFFFFFFFFFFFFFFFFFFFFFFFFFFFFFFFFFFFF NOT AND PUSH24 0xFFFFFFFFFFFFFFFFFFFFFFFFFFFFFFFFFFFFFFFFFFFFFFFF NOT AND DUP2 MSTORE PUSH1 0x20 ADD SWAP1 DUP2 MSTORE PUSH1 0x20 ADD PUSH1 0x0 KECCAK256 PUSH1 0x40 MLOAD DUP1 PUSH1 0xA0 ADD PUSH1 0x40 MSTORE SWAP1 DUP2 PUSH1 0x0 DUP3 ADD PUSH1 0x0 SWAP1 SLOAD SWAP1 PUSH2 0x100 EXP SWAP1 DIV PUSH1 0xC0 SHL PUSH24 0xFFFFFFFFFFFFFFFFFFFFFFFFFFFFFFFFFFFFFFFFFFFFFFFF NOT AND PUSH24 0xFFFFFFFFFFFFFFFFFFFFFFFFFFFFFFFFFFFFFFFFFFFFFFFF NOT AND DUP2 MSTORE PUSH1 0x20 ADD PUSH1 0x0 DUP3 ADD PUSH1 0x8 SWAP1 SLOAD SWAP1 PUSH2 0x100 EXP SWAP1 DIV PUSH1 0xC0 SHL PUSH24 0xFFFFFFFFFFFFFFFFFFFFFFFFFFFFFFFFFFFFFFFFFFFFFFFF NOT AND PUSH24 0xFFFFFFFFFFFFFFFFFFFFFFFFFFFFFFFFFFFFFFFFFFFFFFFF NOT AND DUP2 MSTORE PUSH1 0x20 ADD PUSH1 0x0 DUP3 ADD PUSH1 0x10 SWAP1 SLOAD SWAP1 PUSH2 0x100 EXP SWAP1 DIV PUSH1 0xC0 SHL PUSH24 0xFFFFFFFFFFFFFFFFFFFFFFFFFFFFFFFFFFFFFFFFFFFFFFFF NOT AND PUSH24 0xFFFFFFFFFFFFFFFFFFFFFFFFFFFFFFFFFFFFFFFFFFFFFFFF NOT AND DUP2 MSTORE PUSH1 0x20 ADD PUSH1 0x0 DUP3 ADD PUSH1 0x18 SWAP1 SLOAD SWAP1 PUSH2 0x100 EXP SWAP1 DIV PUSH1 0xC0 SHL PUSH24 0xFFFFFFFFFFFFFFFFFFFFFFFFFFFFFFFFFFFFFFFFFFFFFFFF NOT AND PUSH24 0xFFFFFFFFFFFFFFFFFFFFFFFFFFFFFFFFFFFFFFFFFFFFFFFF NOT AND DUP2 MSTORE PUSH1 0x20 ADD PUSH1 0x1 DUP3 ADD PUSH1 0x0 SWAP1 SLOAD SWAP1 PUSH2 0x100 EXP SWAP1 DIV PUSH1 0xC0 SHL PUSH24 0xFFFFFFFFFFFFFFFFFFFFFFFFFFFFFFFFFFFFFFFFFFFFFFFF NOT AND PUSH24 0xFFFFFFFFFFFFFFFFFFFFFFFFFFFFFFFFFFFFFFFFFFFFFFFF NOT AND DUP2 MSTORE POP POP SWAP1 POP PUSH1 0x0 PUSH1 0xC0 SHL DUP2 PUSH1 0x60 ADD MLOAD PUSH24 0xFFFFFFFFFFFFFFFFFFFFFFFFFFFFFFFFFFFFFFFFFFFFFFFF NOT AND EQ ISZERO PUSH2 0x8F0 JUMPI PUSH1 0x40 MLOAD PUSH32 0x8C379A000000000000000000000000000000000000000000000000000000000 DUP2 MSTORE PUSH1 0x4 ADD PUSH2 0x8E7 SWAP1 PUSH2 0xBDE JUMP JUMPDEST PUSH1 0x40 MLOAD DUP1 SWAP2 SUB SWAP1 REVERT JUMPDEST PUSH32 0x838F77567DD6A97AD4C0C1D166650D146183BA7C59D34E5D6E1A8491B32BE5D0 DUP2 PUSH1 0x0 ADD MLOAD DUP3 PUSH1 0x20 ADD MLOAD DUP4 PUSH1 0x40 ADD MLOAD DUP5 PUSH1 0x60 ADD MLOAD DUP6 PUSH1 0x80 ADD MLOAD PUSH1 0x40 MLOAD PUSH2 0x93B SWAP6 SWAP5 SWAP4 SWAP3 SWAP2 SWAP1 PUSH2 0xB6B JUMP JUMPDEST PUSH1 0x40 MLOAD DUP1 SWAP2 SUB SWAP1 LOG1 POP POP JUMP JUMPDEST PUSH1 0x0 PUSH2 0x95A PUSH2 0x955 DUP5 PUSH2 0xC3E JUMP JUMPDEST PUSH2 0xC19 JUMP JUMPDEST SWAP1 POP DUP3 DUP2 MSTORE PUSH1 0x20 DUP2 ADD DUP5 DUP5 DUP5 ADD GT ISZERO PUSH2 0x976 JUMPI PUSH2 0x975 PUSH2 0xEAC JUMP JUMPDEST JUMPDEST PUSH2 0x981 DUP5 DUP3 DUP6 PUSH2 0xD7C JUMP JUMPDEST POP SWAP4 SWAP3 POP POP POP JUMP JUMPDEST PUSH1 0x0 DUP3 PUSH1 0x1F DUP4 ADD SLT PUSH2 0x99E JUMPI PUSH2 0x99D PUSH2 0xEA7 JUMP JUMPDEST JUMPDEST DUP2 CALLDATALOAD PUSH2 0x9AE DUP5 DUP3 PUSH1 0x20 DUP7 ADD PUSH2 0x947 JUMP JUMPDEST SWAP2 POP POP SWAP3 SWAP2 POP POP JUMP JUMPDEST PUSH1 0x0 PUSH1 0x20 DUP3 DUP5 SUB SLT ISZERO PUSH2 0x9CD JUMPI PUSH2 0x9CC PUSH2 0xEB6 JUMP JUMPDEST JUMPDEST PUSH1 0x0 DUP3 ADD CALLDATALOAD PUSH8 0xFFFFFFFFFFFFFFFF DUP2 GT ISZERO PUSH2 0x9EB JUMPI PUSH2 0x9EA PUSH2 0xEB1 JUMP JUMPDEST JUMPDEST PUSH2 0x9F7 DUP5 DUP3 DUP6 ADD PUSH2 0x989 JUMP JUMPDEST SWAP2 POP POP SWAP3 SWAP2 POP POP JUMP JUMPDEST PUSH1 0x0 DUP1 PUSH1 0x0 DUP1 PUSH1 0x0 PUSH1 0xA0 DUP7 DUP9 SUB SLT ISZERO PUSH2 0xA1C JUMPI PUSH2 0xA1B PUSH2 0xEB6 JUMP JUMPDEST JUMPDEST PUSH1 0x0 DUP7 ADD CALLDATALOAD PUSH8 0xFFFFFFFFFFFFFFFF DUP2 GT ISZERO PUSH2 0xA3A JUMPI PUSH2 0xA39 PUSH2 0xEB1 JUMP JUMPDEST JUMPDEST PUSH2 0xA46 DUP9 DUP3 DUP10 ADD PUSH2 0x989 JUMP JUMPDEST SWAP6 POP POP PUSH1 0x20 DUP7 ADD CALLDATALOAD PUSH8 0xFFFFFFFFFFFFFFFF DUP2 GT ISZERO PUSH2 0xA67 JUMPI PUSH2 0xA66 PUSH2 0xEB1 JUMP JUMPDEST JUMPDEST PUSH2 0xA73 DUP9 DUP3 DUP10 ADD PUSH2 0x989 JUMP JUMPDEST SWAP5 POP POP PUSH1 0x40 DUP7 ADD CALLDATALOAD PUSH8 0xFFFFFFFFFFFFFFFF DUP2 GT ISZERO PUSH2 0xA94 JUMPI PUSH2 0xA93 PUSH2 0xEB1 JUMP JUMPDEST JUMPDEST PUSH2 0xAA0 DUP9 DUP3 DUP10 ADD PUSH2 0x989 JUMP JUMPDEST SWAP4 POP POP PUSH1 0x60 DUP7 ADD CALLDATALOAD PUSH8 0xFFFFFFFFFFFFFFFF DUP2 GT ISZERO PUSH2 0xAC1 JUMPI PUSH2 0xAC0 PUSH2 0xEB1 JUMP JUMPDEST JUMPDEST PUSH2 0xACD DUP9 DUP3 DUP10 ADD PUSH2 0x989 JUMP JUMPDEST SWAP3 POP POP PUSH1 0x80 DUP7 ADD CALLDATALOAD PUSH8 0xFFFFFFFFFFFFFFFF DUP2 GT ISZERO PUSH2 0xAEE JUMPI PUSH2 0xAED PUSH2 0xEB1 JUMP JUMPDEST JUMPDEST PUSH2 0xAFA DUP9 DUP3 DUP10 ADD PUSH2 0x989 JUMP JUMPDEST SWAP2 POP POP SWAP3 SWAP6 POP SWAP3 SWAP6 SWAP1 SWAP4 POP JUMP JUMPDEST PUSH2 0xB10 DUP2 PUSH2 0xCD2 JUMP JUMPDEST DUP3 MSTORE POP POP JUMP JUMPDEST PUSH1 0x0 PUSH2 0xB23 PUSH1 0x10 DUP4 PUSH2 0xC8A JUMP JUMPDEST SWAP2 POP PUSH2 0xB2E DUP3 PUSH2 0xED9 JUMP JUMPDEST PUSH1 0x20 DUP3 ADD SWAP1 POP SWAP2 SWAP1 POP JUMP JUMPDEST PUSH1 0x0 PUSH2 0xB46 PUSH1 0x12 DUP4 PUSH2 0xC8A JUMP JUMPDEST SWAP2 POP PUSH2 0xB51 DUP3 PUSH2 0xF02 JUMP JUMPDEST PUSH1 0x20 DUP3 ADD SWAP1 POP SWAP2 SWAP1 POP JUMP JUMPDEST PUSH2 0xB65 DUP2 PUSH2 0xD08 JUMP JUMPDEST DUP3 MSTORE POP POP JUMP JUMPDEST PUSH1 0x0 PUSH1 0xA0 DUP3 ADD SWAP1 POP PUSH2 0xB80 PUSH1 0x0 DUP4 ADD DUP9 PUSH2 0xB07 JUMP JUMPDEST PUSH2 0xB8D PUSH1 0x20 DUP4 ADD DUP8 PUSH2 0xB07 JUMP JUMPDEST PUSH2 0xB9A PUSH1 0x40 DUP4 ADD DUP7 PUSH2 0xB07 JUMP JUMPDEST PUSH2 0xBA7 PUSH1 0x60 DUP4 ADD DUP6 PUSH2 0xB07 JUMP JUMPDEST PUSH2 0xBB4 PUSH1 0x80 DUP4 ADD DUP5 PUSH2 0xB07 JUMP JUMPDEST SWAP7 SWAP6 POP POP POP POP POP POP JUMP JUMPDEST PUSH1 0x0 PUSH1 0x20 DUP3 ADD SWAP1 POP DUP2 DUP2 SUB PUSH1 0x0 DUP4 ADD MSTORE PUSH2 0xBD7 DUP2 PUSH2 0xB16 JUMP JUMPDEST SWAP1 POP SWAP2 SWAP1 POP JUMP JUMPDEST PUSH1 0x0 PUSH1 0x20 DUP3 ADD SWAP1 POP DUP2 DUP2 SUB PUSH1 0x0 DUP4 ADD MSTORE PUSH2 0xBF7 DUP2 PUSH2 0xB39 JUMP JUMPDEST SWAP1 POP SWAP2 SWAP1 POP JUMP JUMPDEST PUSH1 0x0 PUSH1 0x20 DUP3 ADD SWAP1 POP PUSH2 0xC13 PUSH1 0x0 DUP4 ADD DUP5 PUSH2 0xB5C JUMP JUMPDEST SWAP3 SWAP2 POP POP JUMP JUMPDEST PUSH1 0x0 PUSH2 0xC23 PUSH2 0xC34 JUMP JUMPDEST SWAP1 POP PUSH2 0xC2F DUP3 DUP3 PUSH2 0xD8B JUMP JUMPDEST SWAP2 SWAP1 POP JUMP JUMPDEST PUSH1 0x0 PUSH1 0x40 MLOAD SWAP1 POP SWAP1 JUMP JUMPDEST PUSH1 0x0 PUSH8 0xFFFFFFFFFFFFFFFF DUP3 GT ISZERO PUSH2 0xC59 JUMPI PUSH2 0xC58 PUSH2 0xE63 JUMP JUMPDEST JUMPDEST PUSH2 0xC62 DUP3 PUSH2 0xEBB JUMP JUMPDEST SWAP1 POP PUSH1 0x20 DUP2 ADD SWAP1 POP SWAP2 SWAP1 POP JUMP JUMPDEST PUSH1 0x0 DUP2 SWAP1 POP PUSH1 0x20 DUP3 ADD SWAP1 POP SWAP2 SWAP1 POP JUMP JUMPDEST PUSH1 0x0 DUP2 MLOAD SWAP1 POP SWAP2 SWAP1 POP JUMP JUMPDEST PUSH1 0x0 DUP3 DUP3 MSTORE PUSH1 0x20 DUP3 ADD SWAP1 POP SWAP3 SWAP2 POP POP JUMP JUMPDEST PUSH1 0x0 PUSH2 0xCA6 DUP3 PUSH2 0xD08 JUMP JUMPDEST SWAP2 POP PUSH2 0xCB1 DUP4 PUSH2 0xD08 JUMP JUMPDEST SWAP3 POP DUP3 PUSH1 0xFF SUB DUP3 GT ISZERO PUSH2 0xCC7 JUMPI PUSH2 0xCC6 PUSH2 0xE05 JUMP JUMPDEST JUMPDEST DUP3 DUP3 ADD SWAP1 POP SWAP3 SWAP2 POP POP JUMP JUMPDEST PUSH1 0x0 PUSH32 0xFFFFFFFFFFFFFFFF000000000000000000000000000000000000000000000000 DUP3 AND SWAP1 POP SWAP2 SWAP1 POP JUMP JUMPDEST PUSH1 0x0 DUP2 SWAP1 POP SWAP2 SWAP1 POP JUMP JUMPDEST PUSH1 0x0 PUSH1 0xFF DUP3 AND SWAP1 POP SWAP2 SWAP1 POP JUMP JUMPDEST PUSH1 0x0 PUSH2 0xD20 DUP3 PUSH2 0xC7F JUMP JUMPDEST DUP3 PUSH2 0xD2A DUP5 PUSH2 0xC6F JUMP JUMPDEST SWAP1 POP PUSH2 0xD35 DUP2 PUSH2 0xE92 JUMP JUMPDEST SWAP3 POP PUSH1 0x8 DUP3 LT ISZERO PUSH2 0xD75 JUMPI PUSH2 0xD70 PUSH32 0xFFFFFFFFFFFFFFFF000000000000000000000000000000000000000000000000 DUP4 PUSH1 0x8 SUB PUSH1 0x8 MUL PUSH2 0xECC JUMP JUMPDEST DUP4 AND SWAP3 POP JUMPDEST POP POP SWAP2 SWAP1 POP JUMP JUMPDEST DUP3 DUP2 DUP4 CALLDATACOPY PUSH1 0x0 DUP4 DUP4 ADD MSTORE POP POP POP JUMP JUMPDEST PUSH2 0xD94 DUP3 PUSH2 0xEBB JUMP JUMPDEST DUP2 ADD DUP2 DUP2 LT PUSH8 0xFFFFFFFFFFFFFFFF DUP3 GT OR ISZERO PUSH2 0xDB3 JUMPI PUSH2 0xDB2 PUSH2 0xE63 JUMP JUMPDEST JUMPDEST DUP1 PUSH1 0x40 MSTORE POP POP POP JUMP JUMPDEST PUSH1 0x0 PUSH2 0xDC7 DUP3 PUSH2 0xCFE JUMP JUMPDEST SWAP2 POP PUSH32 0xFFFFFFFFFFFFFFFFFFFFFFFFFFFFFFFFFFFFFFFFFFFFFFFFFFFFFFFFFFFFFFFF DUP3 EQ ISZERO PUSH2 0xDFA JUMPI PUSH2 0xDF9 PUSH2 0xE05 JUMP JUMPDEST JUMPDEST PUSH1 0x1 DUP3 ADD SWAP1 POP SWAP2 SWAP1 POP JUMP JUMPDEST PUSH32 0x4E487B7100000000000000000000000000000000000000000000000000000000 PUSH1 0x0 MSTORE PUSH1 0x11 PUSH1 0x4 MSTORE PUSH1 0x24 PUSH1 0x0 REVERT JUMPDEST PUSH32 0x4E487B7100000000000000000000000000000000000000000000000000000000 PUSH1 0x0 MSTORE PUSH1 0x32 PUSH1 0x4 MSTORE PUSH1 0x24 PUSH1 0x0 REVERT JUMPDEST PUSH32 0x4E487B7100000000000000000000000000000000000000000000000000000000 PUSH1 0x0 MSTORE PUSH1 0x41 PUSH1 0x4 MSTORE PUSH1 0x24 PUSH1 0x0 REVERT JUMPDEST PUSH1 0x0 PUSH2 0xE9E DUP3 MLOAD PUSH2 0xCD2 JUMP JUMPDEST DUP1 SWAP2 POP POP SWAP2 SWAP1 POP JUMP JUMPDEST PUSH1 0x0 DUP1 REVERT JUMPDEST PUSH1 0x0 DUP1 REVERT JUMPDEST PUSH1 0x0 DUP1 REVERT JUMPDEST PUSH1 0x0 DUP1 REVERT JUMPDEST PUSH1 0x0 PUSH1 0x1F NOT PUSH1 0x1F DUP4 ADD AND SWAP1 POP SWAP2 SWAP1 POP JUMP JUMPDEST PUSH1 0x0 DUP3 DUP3 SHL SWAP1 POP SWAP3 SWAP2 POP POP JUMP JUMPDEST PUSH32 0x556E7472616365642070726F6475637400000000000000000000000000000000 PUSH1 0x0 DUP3 ADD MSTORE POP JUMP JUMPDEST PUSH32 0x446576696365206E6F742070726573656E740000000000000000000000000000 PUSH1 0x0 DUP3 ADD MSTORE POP JUMP INVALID LOG2 PUSH5 0x6970667358 0x22 SLT KECCAK256 DUP6 PUSH21 0xE58576E5A36F75C4148C26018D0BB309CA2B196C7E GASLIMIT PUSH25 0xABF50C16B50FD964736F6C6343000807003300000000000000 "
				},
				"gasEstimates": {
					"creation": {
						"codeDepositCost": "787400",
						"executionCost": "25092",
						"totalCost": "812492"
					},
					"external": {
						"getDeviceTrack(string)": "infinite",
						"getLength()": "3449",
						"getProductTraceability()": "infinite",
						"trackProduct(string,string,string,string,string)": "infinite"
					}
				},
				"methodIdentifiers": {
					"getDeviceTrack(string)": "dafb4ef7",
					"getLength()": "be1c766b",
					"getProductTraceability()": "ab269de5",
					"trackProduct(string,string,string,string,string)": "c9a124b7"
				}
			},
			"storageLayout": {
				"storage": [
					{
						"astId": 15,
						"contract": "contracts/Traceability.sol:Traceability",
						"label": "trackNumber",
						"offset": 0,
						"slot": "0",
						"type": "t_uint8"
					},
					{
						"astId": 20,
						"contract": "contracts/Traceability.sol:Traceability",
						"label": "product",
						"offset": 0,
						"slot": "1",
						"type": "t_mapping(t_bytes8,t_struct(Product)12_storage)"
					},
					{
						"astId": 24,
						"contract": "contracts/Traceability.sol:Traceability",
						"label": "track",
						"offset": 0,
						"slot": "2",
						"type": "t_array(t_struct(Product)12_storage)dyn_storage"
					}
				],
				"types": {
					"t_array(t_struct(Product)12_storage)dyn_storage": {
						"base": "t_struct(Product)12_storage",
						"encoding": "dynamic_array",
						"label": "struct Traceability.Product[]",
						"numberOfBytes": "32"
					},
					"t_bytes8": {
						"encoding": "inplace",
						"label": "bytes8",
						"numberOfBytes": "8"
					},
					"t_mapping(t_bytes8,t_struct(Product)12_storage)": {
						"encoding": "mapping",
						"key": "t_bytes8",
						"label": "mapping(bytes8 => struct Traceability.Product)",
						"numberOfBytes": "32",
						"value": "t_struct(Product)12_storage"
					},
					"t_struct(Product)12_storage": {
						"encoding": "inplace",
						"label": "struct Traceability.Product",
						"members": [
							{
								"astId": 3,
								"contract": "contracts/Traceability.sol:Traceability",
								"label": "latitude",
								"offset": 0,
								"slot": "0",
								"type": "t_bytes8"
							},
							{
								"astId": 5,
								"contract": "contracts/Traceability.sol:Traceability",
								"label": "longitude",
								"offset": 8,
								"slot": "0",
								"type": "t_bytes8"
							},
							{
								"astId": 7,
								"contract": "contracts/Traceability.sol:Traceability",
								"label": "altitude",
								"offset": 16,
								"slot": "0",
								"type": "t_bytes8"
							},
							{
								"astId": 9,
								"contract": "contracts/Traceability.sol:Traceability",
								"label": "timestamp",
								"offset": 24,
								"slot": "0",
								"type": "t_bytes8"
							},
							{
								"astId": 11,
								"contract": "contracts/Traceability.sol:Traceability",
								"label": "device",
								"offset": 0,
								"slot": "1",
								"type": "t_bytes8"
							}
						],
						"numberOfBytes": "64"
					},
					"t_uint8": {
						"encoding": "inplace",
						"label": "uint8",
						"numberOfBytes": "1"
					}
				}
			},
			"userdoc": {
				"kind": "user",
				"methods": {},
				"version": 1
			}
		}
	}
}