{
	"contracts/Traceability.sol": {
		"Traceability": {
			"abi": [
				{
					"anonymous": false,
					"inputs": [
						{
							"indexed": false,
							"internalType": "string",
							"name": "_latitude",
							"type": "string"
						},
						{
							"indexed": false,
							"internalType": "string",
							"name": "_longitude",
							"type": "string"
						},
						{
							"indexed": false,
							"internalType": "string",
							"name": "_altitude",
							"type": "string"
						},
						{
							"indexed": false,
							"internalType": "string",
							"name": "_timestamp",
							"type": "string"
						},
						{
							"indexed": false,
							"internalType": "string",
							"name": "_device",
							"type": "string"
						}
					],
					"name": "GetDeviceTrack",
					"type": "event"
				},
				{
					"anonymous": false,
					"inputs": [
						{
							"indexed": false,
							"internalType": "uint8",
							"name": "_trackNumber",
							"type": "uint8"
						}
					],
					"name": "Length",
					"type": "event"
				},
				{
					"anonymous": false,
					"inputs": [
						{
							"indexed": false,
							"internalType": "string",
							"name": "_latitude",
							"type": "string"
						},
						{
							"indexed": false,
							"internalType": "string",
							"name": "_longitude",
							"type": "string"
						},
						{
							"indexed": false,
							"internalType": "string",
							"name": "_altitude",
							"type": "string"
						},
						{
							"indexed": false,
							"internalType": "string",
							"name": "_timestamp",
							"type": "string"
						},
						{
							"indexed": false,
							"internalType": "string",
							"name": "_device",
							"type": "string"
						}
					],
					"name": "Track",
					"type": "event"
				},
				{
					"inputs": [
						{
							"internalType": "string",
							"name": "_device",
							"type": "string"
						}
					],
					"name": "getDeviceTrack",
					"outputs": [],
					"stateMutability": "nonpayable",
					"type": "function"
				},
				{
					"inputs": [],
					"name": "getLength",
					"outputs": [],
					"stateMutability": "nonpayable",
					"type": "function"
				},
				{
					"inputs": [],
					"name": "getProductTraceability",
					"outputs": [],
					"stateMutability": "nonpayable",
					"type": "function"
				},
				{
					"inputs": [
						{
							"internalType": "string",
							"name": "_latitude",
							"type": "string"
						},
						{
							"internalType": "string",
							"name": "_longitude",
							"type": "string"
						},
						{
							"internalType": "string",
							"name": "_altitude",
							"type": "string"
						},
						{
							"internalType": "string",
							"name": "_timestamp",
							"type": "string"
						},
						{
							"internalType": "string",
							"name": "_device",
							"type": "string"
						}
					],
					"name": "trackProduct",
					"outputs": [],
					"stateMutability": "nonpayable",
					"type": "function"
				}
			],
			"devdoc": {
				"kind": "dev",
				"methods": {},
				"version": 1
			},
			"evm": {
				"assembly": "    /* \"contracts/Traceability.sol\":64:1876  contract Traceability {\r... */\n  mstore(0x40, 0x80)\n    /* \"contracts/Traceability.sol\":284:285  0 */\n  0x00\n    /* \"contracts/Traceability.sol\":256:285  uint8 private trackNumber = 0 */\n  dup1\n  exp(0x0100, 0x00)\n  dup2\n  sload\n  dup2\n  0xff\n  mul\n  not\n  and\n  swap1\n  dup4\n  0xff\n  and\n  mul\n  or\n  swap1\n  sstore\n  pop\n    /* \"contracts/Traceability.sol\":64:1876  contract Traceability {\r... */\n  callvalue\n  dup1\n  iszero\n  tag_1\n  jumpi\n  0x00\n  dup1\n  revert\ntag_1:\n  pop\n  dataSize(sub_0)\n  dup1\n  dataOffset(sub_0)\n  0x00\n  codecopy\n  0x00\n  return\nstop\n\nsub_0: assembly {\n        /* \"contracts/Traceability.sol\":64:1876  contract Traceability {\r... */\n      mstore(0x40, 0x80)\n      callvalue\n      dup1\n      iszero\n      tag_1\n      jumpi\n      0x00\n      dup1\n      revert\n    tag_1:\n      pop\n      jumpi(tag_2, lt(calldatasize, 0x04))\n      shr(0xe0, calldataload(0x00))\n      dup1\n      0xab269de5\n      eq\n      tag_3\n      jumpi\n      dup1\n      0xbe1c766b\n      eq\n      tag_4\n      jumpi\n      dup1\n      0xc9a124b7\n      eq\n      tag_5\n      jumpi\n      dup1\n      0xdafb4ef7\n      eq\n      tag_6\n      jumpi\n    tag_2:\n      0x00\n      dup1\n      revert\n        /* \"contracts/Traceability.sol\":1577:1873  function getProductTraceability() public {\r... */\n    tag_3:\n      tag_7\n      tag_8\n      jump\t// in\n    tag_7:\n      stop\n        /* \"contracts/Traceability.sol\":1166:1246  function getLength() public {\r... */\n    tag_4:\n      tag_9\n      tag_10\n      jump\t// in\n    tag_9:\n      stop\n        /* \"contracts/Traceability.sol\":647:1158  function trackProduct(string memory _latitude, string memory _longitude, string memory _altitude, string memory _timestamp, string memory _device) public {\r... */\n    tag_5:\n      tag_11\n      0x04\n      dup1\n      calldatasize\n      sub\n      dup2\n      add\n      swap1\n      tag_12\n      swap2\n      swap1\n      tag_13\n      jump\t// in\n    tag_12:\n      tag_14\n      jump\t// in\n    tag_11:\n      stop\n        /* \"contracts/Traceability.sol\":1254:1569  function getDeviceTrack(string memory _device) public {\r... */\n    tag_6:\n      tag_15\n      0x04\n      dup1\n      calldatasize\n      sub\n      dup2\n      add\n      swap1\n      tag_16\n      swap2\n      swap1\n      tag_17\n      jump\t// in\n    tag_16:\n      tag_18\n      jump\t// in\n    tag_15:\n      stop\n        /* \"contracts/Traceability.sol\":1577:1873  function getProductTraceability() public {\r... */\n    tag_8:\n        /* \"contracts/Traceability.sol\":1652:1653  0 */\n      0x00\n        /* \"contracts/Traceability.sol\":1637:1642  track */\n      0x02\n        /* \"contracts/Traceability.sol\":1637:1649  track.length */\n      dup1\n      sload\n      swap1\n      pop\n        /* \"contracts/Traceability.sol\":1637:1653  track.length > 0 */\n      gt\n        /* \"contracts/Traceability.sol\":1629:1674  require(track.length > 0, \"Untraced product\") */\n      tag_20\n      jumpi\n      mload(0x40)\n      0x08c379a000000000000000000000000000000000000000000000000000000000\n      dup2\n      mstore\n      0x04\n      add\n      tag_21\n      swap1\n      tag_22\n      jump\t// in\n    tag_21:\n      mload(0x40)\n      dup1\n      swap2\n      sub\n      swap1\n      revert\n    tag_20:\n        /* \"contracts/Traceability.sol\":1690:1696  uint i */\n      0x00\n        /* \"contracts/Traceability.sol\":1685:1866  for (uint i = 0; i < track.length; i++) {\r... */\n    tag_23:\n        /* \"contracts/Traceability.sol\":1706:1711  track */\n      0x02\n        /* \"contracts/Traceability.sol\":1706:1718  track.length */\n      dup1\n      sload\n      swap1\n      pop\n        /* \"contracts/Traceability.sol\":1702:1703  i */\n      dup2\n        /* \"contracts/Traceability.sol\":1702:1718  i < track.length */\n      lt\n        /* \"contracts/Traceability.sol\":1685:1866  for (uint i = 0; i < track.length; i++) {\r... */\n      iszero\n      tag_24\n      jumpi\n        /* \"contracts/Traceability.sol\":1745:1854  GetDeviceTrack(track[i].latitude, track[i].longitude, track[i].altitude, track[i].timestamp, track[i].device) */\n      0x12748e7427420be67153e4a944d976bbfc3035c580d8f7fb9982725ac71ba2af\n        /* \"contracts/Traceability.sol\":1760:1765  track */\n      0x02\n        /* \"contracts/Traceability.sol\":1766:1767  i */\n      dup3\n        /* \"contracts/Traceability.sol\":1760:1768  track[i] */\n      dup2\n      sload\n      dup2\n      lt\n      tag_26\n      jumpi\n      tag_27\n      tag_28\n      jump\t// in\n    tag_27:\n    tag_26:\n      swap1\n      0x00\n      mstore\n      keccak256(0x00, 0x20)\n      swap1\n      0x05\n      mul\n      add\n        /* \"contracts/Traceability.sol\":1760:1777  track[i].latitude */\n      0x00\n      add\n        /* \"contracts/Traceability.sol\":1779:1784  track */\n      0x02\n        /* \"contracts/Traceability.sol\":1785:1786  i */\n      dup4\n        /* \"contracts/Traceability.sol\":1779:1787  track[i] */\n      dup2\n      sload\n      dup2\n      lt\n      tag_30\n      jumpi\n      tag_31\n      tag_28\n      jump\t// in\n    tag_31:\n    tag_30:\n      swap1\n      0x00\n      mstore\n      keccak256(0x00, 0x20)\n      swap1\n      0x05\n      mul\n      add\n        /* \"contracts/Traceability.sol\":1779:1797  track[i].longitude */\n      0x01\n      add\n        /* \"contracts/Traceability.sol\":1799:1804  track */\n      0x02\n        /* \"contracts/Traceability.sol\":1805:1806  i */\n      dup5\n        /* \"contracts/Traceability.sol\":1799:1807  track[i] */\n      dup2\n      sload\n      dup2\n      lt\n      tag_33\n      jumpi\n      tag_34\n      tag_28\n      jump\t// in\n    tag_34:\n    tag_33:\n      swap1\n      0x00\n      mstore\n      keccak256(0x00, 0x20)\n      swap1\n      0x05\n      mul\n      add\n        /* \"contracts/Traceability.sol\":1799:1816  track[i].altitude */\n      0x02\n      add\n        /* \"contracts/Traceability.sol\":1818:1823  track */\n      0x02\n        /* \"contracts/Traceability.sol\":1824:1825  i */\n      dup6\n        /* \"contracts/Traceability.sol\":1818:1826  track[i] */\n      dup2\n      sload\n      dup2\n      lt\n      tag_36\n      jumpi\n      tag_37\n      tag_28\n      jump\t// in\n    tag_37:\n    tag_36:\n      swap1\n      0x00\n      mstore\n      keccak256(0x00, 0x20)\n      swap1\n      0x05\n      mul\n      add\n        /* \"contracts/Traceability.sol\":1818:1836  track[i].timestamp */\n      0x03\n      add\n        /* \"contracts/Traceability.sol\":1838:1843  track */\n      0x02\n        /* \"contracts/Traceability.sol\":1844:1845  i */\n      dup7\n        /* \"contracts/Traceability.sol\":1838:1846  track[i] */\n      dup2\n      sload\n      dup2\n      lt\n      tag_39\n      jumpi\n      tag_40\n      tag_28\n      jump\t// in\n    tag_40:\n    tag_39:\n      swap1\n      0x00\n      mstore\n      keccak256(0x00, 0x20)\n      swap1\n      0x05\n      mul\n      add\n        /* \"contracts/Traceability.sol\":1838:1853  track[i].device */\n      0x04\n      add\n        /* \"contracts/Traceability.sol\":1745:1854  GetDeviceTrack(track[i].latitude, track[i].longitude, track[i].altitude, track[i].timestamp, track[i].device) */\n      mload(0x40)\n      tag_42\n      swap6\n      swap5\n      swap4\n      swap3\n      swap2\n      swap1\n      tag_43\n      jump\t// in\n    tag_42:\n      mload(0x40)\n      dup1\n      swap2\n      sub\n      swap1\n      log1\n        /* \"contracts/Traceability.sol\":1720:1723  i++ */\n      dup1\n      dup1\n      tag_44\n      swap1\n      tag_45\n      jump\t// in\n    tag_44:\n      swap2\n      pop\n      pop\n        /* \"contracts/Traceability.sol\":1685:1866  for (uint i = 0; i < track.length; i++) {\r... */\n      jump(tag_23)\n    tag_24:\n      pop\n        /* \"contracts/Traceability.sol\":1577:1873  function getProductTraceability() public {\r... */\n      jump\t// out\n        /* \"contracts/Traceability.sol\":1166:1246  function getLength() public {\r... */\n    tag_10:\n        /* \"contracts/Traceability.sol\":1210:1238  Length(uint8 (track.length)) */\n      0x11faa32eb71008ea8a2443858afc5f1c2dc6531f38c8f495c238672848617644\n        /* \"contracts/Traceability.sol\":1224:1229  track */\n      0x02\n        /* \"contracts/Traceability.sol\":1224:1236  track.length */\n      dup1\n      sload\n      swap1\n      pop\n        /* \"contracts/Traceability.sol\":1210:1238  Length(uint8 (track.length)) */\n      mload(0x40)\n      tag_47\n      swap2\n      swap1\n      tag_48\n      jump\t// in\n    tag_47:\n      mload(0x40)\n      dup1\n      swap2\n      sub\n      swap1\n      log1\n        /* \"contracts/Traceability.sol\":1166:1246  function getLength() public {\r... */\n      jump\t// out\n        /* \"contracts/Traceability.sol\":647:1158  function trackProduct(string memory _latitude, string memory _longitude, string memory _altitude, string memory _timestamp, string memory _device) public {\r... */\n    tag_14:\n        /* \"contracts/Traceability.sol\":812:834  string memory _device_ */\n      0x00\n        /* \"contracts/Traceability.sol\":850:857  _device */\n      dup2\n        /* \"contracts/Traceability.sol\":812:859  string memory _device_ = string(bytes(_device)) */\n      swap1\n      pop\n        /* \"contracts/Traceability.sol\":890:1007  Product ({ latitude: _latitude, longitude: _longitude, altitude: _altitude, timestamp: _timestamp, device: _device }) */\n      mload(0x40)\n      dup1\n      0xa0\n      add\n      0x40\n      mstore\n      dup1\n        /* \"contracts/Traceability.sol\":911:920  _latitude */\n      dup8\n        /* \"contracts/Traceability.sol\":890:1007  Product ({ latitude: _latitude, longitude: _longitude, altitude: _altitude, timestamp: _timestamp, device: _device }) */\n      dup2\n      mstore\n      0x20\n      add\n        /* \"contracts/Traceability.sol\":933:943  _longitude */\n      dup7\n        /* \"contracts/Traceability.sol\":890:1007  Product ({ latitude: _latitude, longitude: _longitude, altitude: _altitude, timestamp: _timestamp, device: _device }) */\n      dup2\n      mstore\n      0x20\n      add\n        /* \"contracts/Traceability.sol\":955:964  _altitude */\n      dup6\n        /* \"contracts/Traceability.sol\":890:1007  Product ({ latitude: _latitude, longitude: _longitude, altitude: _altitude, timestamp: _timestamp, device: _device }) */\n      dup2\n      mstore\n      0x20\n      add\n        /* \"contracts/Traceability.sol\":977:987  _timestamp */\n      dup5\n        /* \"contracts/Traceability.sol\":890:1007  Product ({ latitude: _latitude, longitude: _longitude, altitude: _altitude, timestamp: _timestamp, device: _device }) */\n      dup2\n      mstore\n      0x20\n      add\n        /* \"contracts/Traceability.sol\":997:1004  _device */\n      dup4\n        /* \"contracts/Traceability.sol\":890:1007  Product ({ latitude: _latitude, longitude: _longitude, altitude: _altitude, timestamp: _timestamp, device: _device }) */\n      dup2\n      mstore\n      pop\n        /* \"contracts/Traceability.sol\":870:877  product */\n      0x01\n        /* \"contracts/Traceability.sol\":878:886  _device_ */\n      dup3\n        /* \"contracts/Traceability.sol\":870:887  product[_device_] */\n      mload(0x40)\n      tag_50\n      swap2\n      swap1\n      tag_51\n      jump\t// in\n    tag_50:\n      swap1\n      dup2\n      mstore\n      0x20\n      add\n      mload(0x40)\n      dup1\n      swap2\n      sub\n      swap1\n      keccak256\n        /* \"contracts/Traceability.sol\":870:1007  product[_device_] = Product ({ latitude: _latitude, longitude: _longitude, altitude: _altitude, timestamp: _timestamp, device: _device }) */\n      0x00\n      dup3\n      add\n      mload\n      dup2\n      0x00\n      add\n      swap1\n      dup1\n      mload\n      swap1\n      0x20\n      add\n      swap1\n      tag_52\n      swap3\n      swap2\n      swap1\n      tag_53\n      jump\t// in\n    tag_52:\n      pop\n      0x20\n      dup3\n      add\n      mload\n      dup2\n      0x01\n      add\n      swap1\n      dup1\n      mload\n      swap1\n      0x20\n      add\n      swap1\n      tag_54\n      swap3\n      swap2\n      swap1\n      tag_53\n      jump\t// in\n    tag_54:\n      pop\n      0x40\n      dup3\n      add\n      mload\n      dup2\n      0x02\n      add\n      swap1\n      dup1\n      mload\n      swap1\n      0x20\n      add\n      swap1\n      tag_55\n      swap3\n      swap2\n      swap1\n      tag_53\n      jump\t// in\n    tag_55:\n      pop\n      0x60\n      dup3\n      add\n      mload\n      dup2\n      0x03\n      add\n      swap1\n      dup1\n      mload\n      swap1\n      0x20\n      add\n      swap1\n      tag_56\n      swap3\n      swap2\n      swap1\n      tag_53\n      jump\t// in\n    tag_56:\n      pop\n      0x80\n      dup3\n      add\n      mload\n      dup2\n      0x04\n      add\n      swap1\n      dup1\n      mload\n      swap1\n      0x20\n      add\n      swap1\n      tag_57\n      swap3\n      swap2\n      swap1\n      tag_53\n      jump\t// in\n    tag_57:\n      pop\n      swap1\n      pop\n      pop\n        /* \"contracts/Traceability.sol\":1018:1023  track */\n      0x02\n        /* \"contracts/Traceability.sol\":1029:1036  product */\n      0x01\n        /* \"contracts/Traceability.sol\":1037:1045  _device_ */\n      dup3\n        /* \"contracts/Traceability.sol\":1029:1046  product[_device_] */\n      mload(0x40)\n      tag_58\n      swap2\n      swap1\n      tag_51\n      jump\t// in\n    tag_58:\n      swap1\n      dup2\n      mstore\n      0x20\n      add\n      mload(0x40)\n      dup1\n      swap2\n      sub\n      swap1\n      keccak256\n        /* \"contracts/Traceability.sol\":1018:1047  track.push(product[_device_]) */\n      swap1\n      dup1\n      0x01\n      dup2\n      sload\n      add\n      dup1\n      dup3\n      sstore\n      dup1\n      swap2\n      pop\n      pop\n      0x01\n      swap1\n      sub\n      swap1\n      0x00\n      mstore\n      keccak256(0x00, 0x20)\n      swap1\n      0x05\n      mul\n      add\n      0x00\n      swap1\n      swap2\n      swap1\n      swap2\n      swap1\n      swap2\n      pop\n      0x00\n      dup3\n      add\n      dup2\n      0x00\n      add\n      swap1\n      dup1\n      sload\n      tag_60\n      swap1\n      tag_61\n      jump\t// in\n    tag_60:\n      tag_62\n      swap3\n      swap2\n      swap1\n      tag_63\n      jump\t// in\n    tag_62:\n      pop\n      0x01\n      dup3\n      add\n      dup2\n      0x01\n      add\n      swap1\n      dup1\n      sload\n      tag_64\n      swap1\n      tag_61\n      jump\t// in\n    tag_64:\n      tag_65\n      swap3\n      swap2\n      swap1\n      tag_63\n      jump\t// in\n    tag_65:\n      pop\n      0x02\n      dup3\n      add\n      dup2\n      0x02\n      add\n      swap1\n      dup1\n      sload\n      tag_66\n      swap1\n      tag_61\n      jump\t// in\n    tag_66:\n      tag_67\n      swap3\n      swap2\n      swap1\n      tag_63\n      jump\t// in\n    tag_67:\n      pop\n      0x03\n      dup3\n      add\n      dup2\n      0x03\n      add\n      swap1\n      dup1\n      sload\n      tag_68\n      swap1\n      tag_61\n      jump\t// in\n    tag_68:\n      tag_69\n      swap3\n      swap2\n      swap1\n      tag_63\n      jump\t// in\n    tag_69:\n      pop\n      0x04\n      dup3\n      add\n      dup2\n      0x04\n      add\n      swap1\n      dup1\n      sload\n      tag_70\n      swap1\n      tag_61\n      jump\t// in\n    tag_70:\n      tag_71\n      swap3\n      swap2\n      swap1\n      tag_63\n      jump\t// in\n    tag_71:\n      pop\n      pop\n      pop\n        /* \"contracts/Traceability.sol\":1063:1123  Track(_latitude, _longitude, _altitude, _timestamp, _device) */\n      0x7eabfb4c1444a9a544eac109c3192cfa3836d35623a8847ec44b3f8774ebd9b6\n        /* \"contracts/Traceability.sol\":1069:1078  _latitude */\n      dup7\n        /* \"contracts/Traceability.sol\":1080:1090  _longitude */\n      dup7\n        /* \"contracts/Traceability.sol\":1092:1101  _altitude */\n      dup7\n        /* \"contracts/Traceability.sol\":1103:1113  _timestamp */\n      dup7\n        /* \"contracts/Traceability.sol\":1115:1122  _device */\n      dup7\n        /* \"contracts/Traceability.sol\":1063:1123  Track(_latitude, _longitude, _altitude, _timestamp, _device) */\n      mload(0x40)\n      tag_72\n      swap6\n      swap5\n      swap4\n      swap3\n      swap2\n      swap1\n      tag_73\n      jump\t// in\n    tag_72:\n      mload(0x40)\n      dup1\n      swap2\n      sub\n      swap1\n      log1\n        /* \"contracts/Traceability.sol\":1149:1150  1 */\n      0x01\n        /* \"contracts/Traceability.sol\":1134:1145  trackNumber */\n      0x00\n      dup1\n        /* \"contracts/Traceability.sol\":1134:1150  trackNumber += 1 */\n      dup3\n      dup3\n      dup3\n      swap1\n      sload\n      swap1\n      0x0100\n      exp\n      swap1\n      div\n      0xff\n      and\n      tag_74\n      swap2\n      swap1\n      tag_75\n      jump\t// in\n    tag_74:\n      swap3\n      pop\n      0x0100\n      exp\n      dup2\n      sload\n      dup2\n      0xff\n      mul\n      not\n      and\n      swap1\n      dup4\n      0xff\n      and\n      mul\n      or\n      swap1\n      sstore\n      pop\n        /* \"contracts/Traceability.sol\":801:1158  {\r... */\n      pop\n        /* \"contracts/Traceability.sol\":647:1158  function trackProduct(string memory _latitude, string memory _longitude, string memory _altitude, string memory _timestamp, string memory _device) public {\r... */\n      pop\n      pop\n      pop\n      pop\n      pop\n      jump\t// out\n        /* \"contracts/Traceability.sol\":1254:1569  function getDeviceTrack(string memory _device) public {\r... */\n    tag_18:\n        /* \"contracts/Traceability.sol\":1319:1335  Product memory p */\n      0x00\n        /* \"contracts/Traceability.sol\":1338:1345  product */\n      0x01\n        /* \"contracts/Traceability.sol\":1346:1353  _device */\n      dup3\n        /* \"contracts/Traceability.sol\":1338:1354  product[_device] */\n      mload(0x40)\n      tag_77\n      swap2\n      swap1\n      tag_51\n      jump\t// in\n    tag_77:\n      swap1\n      dup2\n      mstore\n      0x20\n      add\n      mload(0x40)\n      dup1\n      swap2\n      sub\n      swap1\n      keccak256\n        /* \"contracts/Traceability.sol\":1319:1354  Product memory p = product[_device] */\n      mload(0x40)\n      dup1\n      0xa0\n      add\n      0x40\n      mstore\n      swap1\n      dup2\n      0x00\n      dup3\n      add\n      dup1\n      sload\n      tag_78\n      swap1\n      tag_61\n      jump\t// in\n    tag_78:\n      dup1\n      0x1f\n      add\n      0x20\n      dup1\n      swap2\n      div\n      mul\n      0x20\n      add\n      mload(0x40)\n      swap1\n      dup2\n      add\n      0x40\n      mstore\n      dup1\n      swap3\n      swap2\n      swap1\n      dup2\n      dup2\n      mstore\n      0x20\n      add\n      dup3\n      dup1\n      sload\n      tag_79\n      swap1\n      tag_61\n      jump\t// in\n    tag_79:\n      dup1\n      iszero\n      tag_80\n      jumpi\n      dup1\n      0x1f\n      lt\n      tag_81\n      jumpi\n      0x0100\n      dup1\n      dup4\n      sload\n      div\n      mul\n      dup4\n      mstore\n      swap2\n      0x20\n      add\n      swap2\n      jump(tag_80)\n    tag_81:\n      dup3\n      add\n      swap2\n      swap1\n      0x00\n      mstore\n      keccak256(0x00, 0x20)\n      swap1\n    tag_82:\n      dup2\n      sload\n      dup2\n      mstore\n      swap1\n      0x01\n      add\n      swap1\n      0x20\n      add\n      dup1\n      dup4\n      gt\n      tag_82\n      jumpi\n      dup3\n      swap1\n      sub\n      0x1f\n      and\n      dup3\n      add\n      swap2\n    tag_80:\n      pop\n      pop\n      pop\n      pop\n      pop\n      dup2\n      mstore\n      0x20\n      add\n      0x01\n      dup3\n      add\n      dup1\n      sload\n      tag_83\n      swap1\n      tag_61\n      jump\t// in\n    tag_83:\n      dup1\n      0x1f\n      add\n      0x20\n      dup1\n      swap2\n      div\n      mul\n      0x20\n      add\n      mload(0x40)\n      swap1\n      dup2\n      add\n      0x40\n      mstore\n      dup1\n      swap3\n      swap2\n      swap1\n      dup2\n      dup2\n      mstore\n      0x20\n      add\n      dup3\n      dup1\n      sload\n      tag_84\n      swap1\n      tag_61\n      jump\t// in\n    tag_84:\n      dup1\n      iszero\n      tag_85\n      jumpi\n      dup1\n      0x1f\n      lt\n      tag_86\n      jumpi\n      0x0100\n      dup1\n      dup4\n      sload\n      div\n      mul\n      dup4\n      mstore\n      swap2\n      0x20\n      add\n      swap2\n      jump(tag_85)\n    tag_86:\n      dup3\n      add\n      swap2\n      swap1\n      0x00\n      mstore\n      keccak256(0x00, 0x20)\n      swap1\n    tag_87:\n      dup2\n      sload\n      dup2\n      mstore\n      swap1\n      0x01\n      add\n      swap1\n      0x20\n      add\n      dup1\n      dup4\n      gt\n      tag_87\n      jumpi\n      dup3\n      swap1\n      sub\n      0x1f\n      and\n      dup3\n      add\n      swap2\n    tag_85:\n      pop\n      pop\n      pop\n      pop\n      pop\n      dup2\n      mstore\n      0x20\n      add\n      0x02\n      dup3\n      add\n      dup1\n      sload\n      tag_88\n      swap1\n      tag_61\n      jump\t// in\n    tag_88:\n      dup1\n      0x1f\n      add\n      0x20\n      dup1\n      swap2\n      div\n      mul\n      0x20\n      add\n      mload(0x40)\n      swap1\n      dup2\n      add\n      0x40\n      mstore\n      dup1\n      swap3\n      swap2\n      swap1\n      dup2\n      dup2\n      mstore\n      0x20\n      add\n      dup3\n      dup1\n      sload\n      tag_89\n      swap1\n      tag_61\n      jump\t// in\n    tag_89:\n      dup1\n      iszero\n      tag_90\n      jumpi\n      dup1\n      0x1f\n      lt\n      tag_91\n      jumpi\n      0x0100\n      dup1\n      dup4\n      sload\n      div\n      mul\n      dup4\n      mstore\n      swap2\n      0x20\n      add\n      swap2\n      jump(tag_90)\n    tag_91:\n      dup3\n      add\n      swap2\n      swap1\n      0x00\n      mstore\n      keccak256(0x00, 0x20)\n      swap1\n    tag_92:\n      dup2\n      sload\n      dup2\n      mstore\n      swap1\n      0x01\n      add\n      swap1\n      0x20\n      add\n      dup1\n      dup4\n      gt\n      tag_92\n      jumpi\n      dup3\n      swap1\n      sub\n      0x1f\n      and\n      dup3\n      add\n      swap2\n    tag_90:\n      pop\n      pop\n      pop\n      pop\n      pop\n      dup2\n      mstore\n      0x20\n      add\n      0x03\n      dup3\n      add\n      dup1\n      sload\n      tag_93\n      swap1\n      tag_61\n      jump\t// in\n    tag_93:\n      dup1\n      0x1f\n      add\n      0x20\n      dup1\n      swap2\n      div\n      mul\n      0x20\n      add\n      mload(0x40)\n      swap1\n      dup2\n      add\n      0x40\n      mstore\n      dup1\n      swap3\n      swap2\n      swap1\n      dup2\n      dup2\n      mstore\n      0x20\n      add\n      dup3\n      dup1\n      sload\n      tag_94\n      swap1\n      tag_61\n      jump\t// in\n    tag_94:\n      dup1\n      iszero\n      tag_95\n      jumpi\n      dup1\n      0x1f\n      lt\n      tag_96\n      jumpi\n      0x0100\n      dup1\n      dup4\n      sload\n      div\n      mul\n      dup4\n      mstore\n      swap2\n      0x20\n      add\n      swap2\n      jump(tag_95)\n    tag_96:\n      dup3\n      add\n      swap2\n      swap1\n      0x00\n      mstore\n      keccak256(0x00, 0x20)\n      swap1\n    tag_97:\n      dup2\n      sload\n      dup2\n      mstore\n      swap1\n      0x01\n      add\n      swap1\n      0x20\n      add\n      dup1\n      dup4\n      gt\n      tag_97\n      jumpi\n      dup3\n      swap1\n      sub\n      0x1f\n      and\n      dup3\n      add\n      swap2\n    tag_95:\n      pop\n      pop\n      pop\n      pop\n      pop\n      dup2\n      mstore\n      0x20\n      add\n      0x04\n      dup3\n      add\n      dup1\n      sload\n      tag_98\n      swap1\n      tag_61\n      jump\t// in\n    tag_98:\n      dup1\n      0x1f\n      add\n      0x20\n      dup1\n      swap2\n      div\n      mul\n      0x20\n      add\n      mload(0x40)\n      swap1\n      dup2\n      add\n      0x40\n      mstore\n      dup1\n      swap3\n      swap2\n      swap1\n      dup2\n      dup2\n      mstore\n      0x20\n      add\n      dup3\n      dup1\n      sload\n      tag_99\n      swap1\n      tag_61\n      jump\t// in\n    tag_99:\n      dup1\n      iszero\n      tag_100\n      jumpi\n      dup1\n      0x1f\n      lt\n      tag_101\n      jumpi\n      0x0100\n      dup1\n      dup4\n      sload\n      div\n      mul\n      dup4\n      mstore\n      swap2\n      0x20\n      add\n      swap2\n      jump(tag_100)\n    tag_101:\n      dup3\n      add\n      swap2\n      swap1\n      0x00\n      mstore\n      keccak256(0x00, 0x20)\n      swap1\n    tag_102:\n      dup2\n      sload\n      dup2\n      mstore\n      swap1\n      0x01\n      add\n      swap1\n      0x20\n      add\n      dup1\n      dup4\n      gt\n      tag_102\n      jumpi\n      dup3\n      swap1\n      sub\n      0x1f\n      and\n      dup3\n      add\n      swap2\n    tag_100:\n      pop\n      pop\n      pop\n      pop\n      pop\n      dup2\n      mstore\n      pop\n      pop\n      swap1\n      pop\n        /* \"contracts/Traceability.sol\":1427:1447  abi.encodePacked(\"\") */\n      add(0x20, mload(0x40))\n      tag_103\n      swap1\n      tag_104\n      jump\t// in\n    tag_103:\n      mload(0x40)\n      0x20\n      dup2\n      dup4\n      sub\n      sub\n      dup2\n      mstore\n      swap1\n      0x40\n      mstore\n        /* \"contracts/Traceability.sol\":1417:1448  keccak256(abi.encodePacked(\"\")) */\n      dup1\n      mload\n      swap1\n      0x20\n      add\n      keccak256\n        /* \"contracts/Traceability.sol\":1400:1401  p */\n      dup2\n        /* \"contracts/Traceability.sol\":1400:1411  p.timestamp */\n      0x60\n      add\n      mload\n        /* \"contracts/Traceability.sol\":1383:1412  abi.encodePacked(p.timestamp) */\n      add(0x20, mload(0x40))\n      tag_105\n      swap2\n      swap1\n      tag_51\n      jump\t// in\n    tag_105:\n      mload(0x40)\n      0x20\n      dup2\n      dup4\n      sub\n      sub\n      dup2\n      mstore\n      swap1\n      0x40\n      mstore\n        /* \"contracts/Traceability.sol\":1373:1413  keccak256(abi.encodePacked(p.timestamp)) */\n      dup1\n      mload\n      swap1\n      0x20\n      add\n      keccak256\n        /* \"contracts/Traceability.sol\":1373:1448  keccak256(abi.encodePacked(p.timestamp)) != keccak256(abi.encodePacked(\"\")) */\n      eq\n      iszero\n        /* \"contracts/Traceability.sol\":1365:1471  require(keccak256(abi.encodePacked(p.timestamp)) != keccak256(abi.encodePacked(\"\")), \"Device not present\") */\n      tag_106\n      jumpi\n      mload(0x40)\n      0x08c379a000000000000000000000000000000000000000000000000000000000\n      dup2\n      mstore\n      0x04\n      add\n      tag_107\n      swap1\n      tag_108\n      jump\t// in\n    tag_107:\n      mload(0x40)\n      dup1\n      swap2\n      sub\n      swap1\n      revert\n    tag_106:\n        /* \"contracts/Traceability.sol\":1487:1561  GetDeviceTrack(p.latitude, p.longitude, p.altitude, p.timestamp, p.device) */\n      0x12748e7427420be67153e4a944d976bbfc3035c580d8f7fb9982725ac71ba2af\n        /* \"contracts/Traceability.sol\":1502:1503  p */\n      dup2\n        /* \"contracts/Traceability.sol\":1502:1512  p.latitude */\n      0x00\n      add\n      mload\n        /* \"contracts/Traceability.sol\":1514:1515  p */\n      dup3\n        /* \"contracts/Traceability.sol\":1514:1525  p.longitude */\n      0x20\n      add\n      mload\n        /* \"contracts/Traceability.sol\":1527:1528  p */\n      dup4\n        /* \"contracts/Traceability.sol\":1527:1537  p.altitude */\n      0x40\n      add\n      mload\n        /* \"contracts/Traceability.sol\":1539:1540  p */\n      dup5\n        /* \"contracts/Traceability.sol\":1539:1550  p.timestamp */\n      0x60\n      add\n      mload\n        /* \"contracts/Traceability.sol\":1552:1553  p */\n      dup6\n        /* \"contracts/Traceability.sol\":1552:1560  p.device */\n      0x80\n      add\n      mload\n        /* \"contracts/Traceability.sol\":1487:1561  GetDeviceTrack(p.latitude, p.longitude, p.altitude, p.timestamp, p.device) */\n      mload(0x40)\n      tag_109\n      swap6\n      swap5\n      swap4\n      swap3\n      swap2\n      swap1\n      tag_73\n      jump\t// in\n    tag_109:\n      mload(0x40)\n      dup1\n      swap2\n      sub\n      swap1\n      log1\n        /* \"contracts/Traceability.sol\":1308:1569  {\r... */\n      pop\n        /* \"contracts/Traceability.sol\":1254:1569  function getDeviceTrack(string memory _device) public {\r... */\n      pop\n      jump\t// out\n    tag_53:\n      dup3\n      dup1\n      sload\n      tag_110\n      swap1\n      tag_61\n      jump\t// in\n    tag_110:\n      swap1\n      0x00\n      mstore\n      keccak256(0x00, 0x20)\n      swap1\n      0x1f\n      add\n      0x20\n      swap1\n      div\n      dup2\n      add\n      swap3\n      dup3\n      tag_112\n      jumpi\n      0x00\n      dup6\n      sstore\n      jump(tag_111)\n    tag_112:\n      dup3\n      0x1f\n      lt\n      tag_113\n      jumpi\n      dup1\n      mload\n      not(0xff)\n      and\n      dup4\n      dup1\n      add\n      or\n      dup6\n      sstore\n      jump(tag_111)\n    tag_113:\n      dup3\n      dup1\n      add\n      0x01\n      add\n      dup6\n      sstore\n      dup3\n      iszero\n      tag_111\n      jumpi\n      swap2\n      dup3\n      add\n    tag_114:\n      dup3\n      dup2\n      gt\n      iszero\n      tag_115\n      jumpi\n      dup3\n      mload\n      dup3\n      sstore\n      swap2\n      0x20\n      add\n      swap2\n      swap1\n      0x01\n      add\n      swap1\n      jump(tag_114)\n    tag_115:\n    tag_111:\n      pop\n      swap1\n      pop\n      tag_116\n      swap2\n      swap1\n      tag_117\n      jump\t// in\n    tag_116:\n      pop\n      swap1\n      jump\t// out\n    tag_63:\n      dup3\n      dup1\n      sload\n      tag_118\n      swap1\n      tag_61\n      jump\t// in\n    tag_118:\n      swap1\n      0x00\n      mstore\n      keccak256(0x00, 0x20)\n      swap1\n      0x1f\n      add\n      0x20\n      swap1\n      div\n      dup2\n      add\n      swap3\n      dup3\n      tag_120\n      jumpi\n      0x00\n      dup6\n      sstore\n      jump(tag_119)\n    tag_120:\n      dup3\n      0x1f\n      lt\n      tag_121\n      jumpi\n      dup1\n      sload\n      dup6\n      sstore\n      jump(tag_119)\n    tag_121:\n      dup3\n      dup1\n      add\n      0x01\n      add\n      dup6\n      sstore\n      dup3\n      iszero\n      tag_119\n      jumpi\n      0x00\n      mstore\n      keccak256(0x00, 0x20)\n      swap2\n      0x1f\n      add\n      0x20\n      swap1\n      div\n      dup3\n      add\n    tag_122:\n      dup3\n      dup2\n      gt\n      iszero\n      tag_123\n      jumpi\n      dup3\n      sload\n      dup3\n      sstore\n      swap2\n      0x01\n      add\n      swap2\n      swap1\n      0x01\n      add\n      swap1\n      jump(tag_122)\n    tag_123:\n    tag_119:\n      pop\n      swap1\n      pop\n      tag_124\n      swap2\n      swap1\n      tag_117\n      jump\t// in\n    tag_124:\n      pop\n      swap1\n      jump\t// out\n    tag_117:\n    tag_125:\n      dup1\n      dup3\n      gt\n      iszero\n      tag_126\n      jumpi\n      0x00\n      dup2\n      0x00\n      swap1\n      sstore\n      pop\n      0x01\n      add\n      jump(tag_125)\n    tag_126:\n      pop\n      swap1\n      jump\t// out\n        /* \"#utility.yul\":7:419   */\n    tag_128:\n        /* \"#utility.yul\":85:90   */\n      0x00\n        /* \"#utility.yul\":110:176   */\n      tag_130\n        /* \"#utility.yul\":126:175   */\n      tag_131\n        /* \"#utility.yul\":168:174   */\n      dup5\n        /* \"#utility.yul\":126:175   */\n      tag_132\n      jump\t// in\n    tag_131:\n        /* \"#utility.yul\":110:176   */\n      tag_133\n      jump\t// in\n    tag_130:\n        /* \"#utility.yul\":101:176   */\n      swap1\n      pop\n        /* \"#utility.yul\":199:205   */\n      dup3\n        /* \"#utility.yul\":192:197   */\n      dup2\n        /* \"#utility.yul\":185:206   */\n      mstore\n        /* \"#utility.yul\":237:241   */\n      0x20\n        /* \"#utility.yul\":230:235   */\n      dup2\n        /* \"#utility.yul\":226:242   */\n      add\n        /* \"#utility.yul\":275:278   */\n      dup5\n        /* \"#utility.yul\":266:272   */\n      dup5\n        /* \"#utility.yul\":261:264   */\n      dup5\n        /* \"#utility.yul\":257:273   */\n      add\n        /* \"#utility.yul\":254:279   */\n      gt\n        /* \"#utility.yul\":251:363   */\n      iszero\n      tag_134\n      jumpi\n        /* \"#utility.yul\":282:361   */\n      tag_135\n      tag_136\n      jump\t// in\n    tag_135:\n        /* \"#utility.yul\":251:363   */\n    tag_134:\n        /* \"#utility.yul\":372:413   */\n      tag_137\n        /* \"#utility.yul\":406:412   */\n      dup5\n        /* \"#utility.yul\":401:404   */\n      dup3\n        /* \"#utility.yul\":396:399   */\n      dup6\n        /* \"#utility.yul\":372:413   */\n      tag_138\n      jump\t// in\n    tag_137:\n        /* \"#utility.yul\":91:419   */\n      pop\n        /* \"#utility.yul\":7:419   */\n      swap4\n      swap3\n      pop\n      pop\n      pop\n      jump\t// out\n        /* \"#utility.yul\":439:779   */\n    tag_139:\n        /* \"#utility.yul\":495:500   */\n      0x00\n        /* \"#utility.yul\":544:547   */\n      dup3\n        /* \"#utility.yul\":537:541   */\n      0x1f\n        /* \"#utility.yul\":529:535   */\n      dup4\n        /* \"#utility.yul\":525:542   */\n      add\n        /* \"#utility.yul\":521:548   */\n      slt\n        /* \"#utility.yul\":511:633   */\n      tag_141\n      jumpi\n        /* \"#utility.yul\":552:631   */\n      tag_142\n      tag_143\n      jump\t// in\n    tag_142:\n        /* \"#utility.yul\":511:633   */\n    tag_141:\n        /* \"#utility.yul\":669:675   */\n      dup2\n        /* \"#utility.yul\":656:676   */\n      calldataload\n        /* \"#utility.yul\":694:773   */\n      tag_144\n        /* \"#utility.yul\":769:772   */\n      dup5\n        /* \"#utility.yul\":761:767   */\n      dup3\n        /* \"#utility.yul\":754:758   */\n      0x20\n        /* \"#utility.yul\":746:752   */\n      dup7\n        /* \"#utility.yul\":742:759   */\n      add\n        /* \"#utility.yul\":694:773   */\n      tag_128\n      jump\t// in\n    tag_144:\n        /* \"#utility.yul\":685:773   */\n      swap2\n      pop\n        /* \"#utility.yul\":501:779   */\n      pop\n        /* \"#utility.yul\":439:779   */\n      swap3\n      swap2\n      pop\n      pop\n      jump\t// out\n        /* \"#utility.yul\":785:1294   */\n    tag_17:\n        /* \"#utility.yul\":854:860   */\n      0x00\n        /* \"#utility.yul\":903:905   */\n      0x20\n        /* \"#utility.yul\":891:900   */\n      dup3\n        /* \"#utility.yul\":882:889   */\n      dup5\n        /* \"#utility.yul\":878:901   */\n      sub\n        /* \"#utility.yul\":874:906   */\n      slt\n        /* \"#utility.yul\":871:990   */\n      iszero\n      tag_146\n      jumpi\n        /* \"#utility.yul\":909:988   */\n      tag_147\n      tag_148\n      jump\t// in\n    tag_147:\n        /* \"#utility.yul\":871:990   */\n    tag_146:\n        /* \"#utility.yul\":1057:1058   */\n      0x00\n        /* \"#utility.yul\":1046:1055   */\n      dup3\n        /* \"#utility.yul\":1042:1059   */\n      add\n        /* \"#utility.yul\":1029:1060   */\n      calldataload\n        /* \"#utility.yul\":1087:1105   */\n      0xffffffffffffffff\n        /* \"#utility.yul\":1079:1085   */\n      dup2\n        /* \"#utility.yul\":1076:1106   */\n      gt\n        /* \"#utility.yul\":1073:1190   */\n      iszero\n      tag_149\n      jumpi\n        /* \"#utility.yul\":1109:1188   */\n      tag_150\n      tag_151\n      jump\t// in\n    tag_150:\n        /* \"#utility.yul\":1073:1190   */\n    tag_149:\n        /* \"#utility.yul\":1214:1277   */\n      tag_152\n        /* \"#utility.yul\":1269:1276   */\n      dup5\n        /* \"#utility.yul\":1260:1266   */\n      dup3\n        /* \"#utility.yul\":1249:1258   */\n      dup6\n        /* \"#utility.yul\":1245:1267   */\n      add\n        /* \"#utility.yul\":1214:1277   */\n      tag_139\n      jump\t// in\n    tag_152:\n        /* \"#utility.yul\":1204:1277   */\n      swap2\n      pop\n        /* \"#utility.yul\":1000:1287   */\n      pop\n        /* \"#utility.yul\":785:1294   */\n      swap3\n      swap2\n      pop\n      pop\n      jump\t// out\n        /* \"#utility.yul\":1300:3111   */\n    tag_13:\n        /* \"#utility.yul\":1445:1451   */\n      0x00\n        /* \"#utility.yul\":1453:1459   */\n      dup1\n        /* \"#utility.yul\":1461:1467   */\n      0x00\n        /* \"#utility.yul\":1469:1475   */\n      dup1\n        /* \"#utility.yul\":1477:1483   */\n      0x00\n        /* \"#utility.yul\":1526:1529   */\n      0xa0\n        /* \"#utility.yul\":1514:1523   */\n      dup7\n        /* \"#utility.yul\":1505:1512   */\n      dup9\n        /* \"#utility.yul\":1501:1524   */\n      sub\n        /* \"#utility.yul\":1497:1530   */\n      slt\n        /* \"#utility.yul\":1494:1614   */\n      iszero\n      tag_154\n      jumpi\n        /* \"#utility.yul\":1533:1612   */\n      tag_155\n      tag_148\n      jump\t// in\n    tag_155:\n        /* \"#utility.yul\":1494:1614   */\n    tag_154:\n        /* \"#utility.yul\":1681:1682   */\n      0x00\n        /* \"#utility.yul\":1670:1679   */\n      dup7\n        /* \"#utility.yul\":1666:1683   */\n      add\n        /* \"#utility.yul\":1653:1684   */\n      calldataload\n        /* \"#utility.yul\":1711:1729   */\n      0xffffffffffffffff\n        /* \"#utility.yul\":1703:1709   */\n      dup2\n        /* \"#utility.yul\":1700:1730   */\n      gt\n        /* \"#utility.yul\":1697:1814   */\n      iszero\n      tag_156\n      jumpi\n        /* \"#utility.yul\":1733:1812   */\n      tag_157\n      tag_151\n      jump\t// in\n    tag_157:\n        /* \"#utility.yul\":1697:1814   */\n    tag_156:\n        /* \"#utility.yul\":1838:1901   */\n      tag_158\n        /* \"#utility.yul\":1893:1900   */\n      dup9\n        /* \"#utility.yul\":1884:1890   */\n      dup3\n        /* \"#utility.yul\":1873:1882   */\n      dup10\n        /* \"#utility.yul\":1869:1891   */\n      add\n        /* \"#utility.yul\":1838:1901   */\n      tag_139\n      jump\t// in\n    tag_158:\n        /* \"#utility.yul\":1828:1901   */\n      swap6\n      pop\n        /* \"#utility.yul\":1624:1911   */\n      pop\n        /* \"#utility.yul\":1978:1980   */\n      0x20\n        /* \"#utility.yul\":1967:1976   */\n      dup7\n        /* \"#utility.yul\":1963:1981   */\n      add\n        /* \"#utility.yul\":1950:1982   */\n      calldataload\n        /* \"#utility.yul\":2009:2027   */\n      0xffffffffffffffff\n        /* \"#utility.yul\":2001:2007   */\n      dup2\n        /* \"#utility.yul\":1998:2028   */\n      gt\n        /* \"#utility.yul\":1995:2112   */\n      iszero\n      tag_159\n      jumpi\n        /* \"#utility.yul\":2031:2110   */\n      tag_160\n      tag_151\n      jump\t// in\n    tag_160:\n        /* \"#utility.yul\":1995:2112   */\n    tag_159:\n        /* \"#utility.yul\":2136:2199   */\n      tag_161\n        /* \"#utility.yul\":2191:2198   */\n      dup9\n        /* \"#utility.yul\":2182:2188   */\n      dup3\n        /* \"#utility.yul\":2171:2180   */\n      dup10\n        /* \"#utility.yul\":2167:2189   */\n      add\n        /* \"#utility.yul\":2136:2199   */\n      tag_139\n      jump\t// in\n    tag_161:\n        /* \"#utility.yul\":2126:2199   */\n      swap5\n      pop\n        /* \"#utility.yul\":1921:2209   */\n      pop\n        /* \"#utility.yul\":2276:2278   */\n      0x40\n        /* \"#utility.yul\":2265:2274   */\n      dup7\n        /* \"#utility.yul\":2261:2279   */\n      add\n        /* \"#utility.yul\":2248:2280   */\n      calldataload\n        /* \"#utility.yul\":2307:2325   */\n      0xffffffffffffffff\n        /* \"#utility.yul\":2299:2305   */\n      dup2\n        /* \"#utility.yul\":2296:2326   */\n      gt\n        /* \"#utility.yul\":2293:2410   */\n      iszero\n      tag_162\n      jumpi\n        /* \"#utility.yul\":2329:2408   */\n      tag_163\n      tag_151\n      jump\t// in\n    tag_163:\n        /* \"#utility.yul\":2293:2410   */\n    tag_162:\n        /* \"#utility.yul\":2434:2497   */\n      tag_164\n        /* \"#utility.yul\":2489:2496   */\n      dup9\n        /* \"#utility.yul\":2480:2486   */\n      dup3\n        /* \"#utility.yul\":2469:2478   */\n      dup10\n        /* \"#utility.yul\":2465:2487   */\n      add\n        /* \"#utility.yul\":2434:2497   */\n      tag_139\n      jump\t// in\n    tag_164:\n        /* \"#utility.yul\":2424:2497   */\n      swap4\n      pop\n        /* \"#utility.yul\":2219:2507   */\n      pop\n        /* \"#utility.yul\":2574:2576   */\n      0x60\n        /* \"#utility.yul\":2563:2572   */\n      dup7\n        /* \"#utility.yul\":2559:2577   */\n      add\n        /* \"#utility.yul\":2546:2578   */\n      calldataload\n        /* \"#utility.yul\":2605:2623   */\n      0xffffffffffffffff\n        /* \"#utility.yul\":2597:2603   */\n      dup2\n        /* \"#utility.yul\":2594:2624   */\n      gt\n        /* \"#utility.yul\":2591:2708   */\n      iszero\n      tag_165\n      jumpi\n        /* \"#utility.yul\":2627:2706   */\n      tag_166\n      tag_151\n      jump\t// in\n    tag_166:\n        /* \"#utility.yul\":2591:2708   */\n    tag_165:\n        /* \"#utility.yul\":2732:2795   */\n      tag_167\n        /* \"#utility.yul\":2787:2794   */\n      dup9\n        /* \"#utility.yul\":2778:2784   */\n      dup3\n        /* \"#utility.yul\":2767:2776   */\n      dup10\n        /* \"#utility.yul\":2763:2785   */\n      add\n        /* \"#utility.yul\":2732:2795   */\n      tag_139\n      jump\t// in\n    tag_167:\n        /* \"#utility.yul\":2722:2795   */\n      swap3\n      pop\n        /* \"#utility.yul\":2517:2805   */\n      pop\n        /* \"#utility.yul\":2872:2875   */\n      0x80\n        /* \"#utility.yul\":2861:2870   */\n      dup7\n        /* \"#utility.yul\":2857:2876   */\n      add\n        /* \"#utility.yul\":2844:2877   */\n      calldataload\n        /* \"#utility.yul\":2904:2922   */\n      0xffffffffffffffff\n        /* \"#utility.yul\":2896:2902   */\n      dup2\n        /* \"#utility.yul\":2893:2923   */\n      gt\n        /* \"#utility.yul\":2890:3007   */\n      iszero\n      tag_168\n      jumpi\n        /* \"#utility.yul\":2926:3005   */\n      tag_169\n      tag_151\n      jump\t// in\n    tag_169:\n        /* \"#utility.yul\":2890:3007   */\n    tag_168:\n        /* \"#utility.yul\":3031:3094   */\n      tag_170\n        /* \"#utility.yul\":3086:3093   */\n      dup9\n        /* \"#utility.yul\":3077:3083   */\n      dup3\n        /* \"#utility.yul\":3066:3075   */\n      dup10\n        /* \"#utility.yul\":3062:3084   */\n      add\n        /* \"#utility.yul\":3031:3094   */\n      tag_139\n      jump\t// in\n    tag_170:\n        /* \"#utility.yul\":3021:3094   */\n      swap2\n      pop\n        /* \"#utility.yul\":2815:3104   */\n      pop\n        /* \"#utility.yul\":1300:3111   */\n      swap3\n      swap6\n      pop\n      swap3\n      swap6\n      swap1\n      swap4\n      pop\n      jump\t// out\n        /* \"#utility.yul\":3117:3481   */\n    tag_171:\n        /* \"#utility.yul\":3205:3208   */\n      0x00\n        /* \"#utility.yul\":3233:3272   */\n      tag_173\n        /* \"#utility.yul\":3266:3271   */\n      dup3\n        /* \"#utility.yul\":3233:3272   */\n      tag_174\n      jump\t// in\n    tag_173:\n        /* \"#utility.yul\":3288:3359   */\n      tag_175\n        /* \"#utility.yul\":3352:3358   */\n      dup2\n        /* \"#utility.yul\":3347:3350   */\n      dup6\n        /* \"#utility.yul\":3288:3359   */\n      tag_176\n      jump\t// in\n    tag_175:\n        /* \"#utility.yul\":3281:3359   */\n      swap4\n      pop\n        /* \"#utility.yul\":3368:3420   */\n      tag_177\n        /* \"#utility.yul\":3413:3419   */\n      dup2\n        /* \"#utility.yul\":3408:3411   */\n      dup6\n        /* \"#utility.yul\":3401:3405   */\n      0x20\n        /* \"#utility.yul\":3394:3399   */\n      dup7\n        /* \"#utility.yul\":3390:3406   */\n      add\n        /* \"#utility.yul\":3368:3420   */\n      tag_178\n      jump\t// in\n    tag_177:\n        /* \"#utility.yul\":3445:3474   */\n      tag_179\n        /* \"#utility.yul\":3467:3473   */\n      dup2\n        /* \"#utility.yul\":3445:3474   */\n      tag_180\n      jump\t// in\n    tag_179:\n        /* \"#utility.yul\":3440:3443   */\n      dup5\n        /* \"#utility.yul\":3436:3475   */\n      add\n        /* \"#utility.yul\":3429:3475   */\n      swap2\n      pop\n        /* \"#utility.yul\":3209:3481   */\n      pop\n        /* \"#utility.yul\":3117:3481   */\n      swap3\n      swap2\n      pop\n      pop\n      jump\t// out\n        /* \"#utility.yul\":3487:3864   */\n    tag_181:\n        /* \"#utility.yul\":3593:3596   */\n      0x00\n        /* \"#utility.yul\":3621:3660   */\n      tag_183\n        /* \"#utility.yul\":3654:3659   */\n      dup3\n        /* \"#utility.yul\":3621:3660   */\n      tag_174\n      jump\t// in\n    tag_183:\n        /* \"#utility.yul\":3676:3765   */\n      tag_184\n        /* \"#utility.yul\":3758:3764   */\n      dup2\n        /* \"#utility.yul\":3753:3756   */\n      dup6\n        /* \"#utility.yul\":3676:3765   */\n      tag_185\n      jump\t// in\n    tag_184:\n        /* \"#utility.yul\":3669:3765   */\n      swap4\n      pop\n        /* \"#utility.yul\":3774:3826   */\n      tag_186\n        /* \"#utility.yul\":3819:3825   */\n      dup2\n        /* \"#utility.yul\":3814:3817   */\n      dup6\n        /* \"#utility.yul\":3807:3811   */\n      0x20\n        /* \"#utility.yul\":3800:3805   */\n      dup7\n        /* \"#utility.yul\":3796:3812   */\n      add\n        /* \"#utility.yul\":3774:3826   */\n      tag_178\n      jump\t// in\n    tag_186:\n        /* \"#utility.yul\":3851:3857   */\n      dup1\n        /* \"#utility.yul\":3846:3849   */\n      dup5\n        /* \"#utility.yul\":3842:3858   */\n      add\n        /* \"#utility.yul\":3835:3858   */\n      swap2\n      pop\n        /* \"#utility.yul\":3597:3864   */\n      pop\n        /* \"#utility.yul\":3487:3864   */\n      swap3\n      swap2\n      pop\n      pop\n      jump\t// out\n        /* \"#utility.yul\":3894:4696   */\n    tag_187:\n        /* \"#utility.yul\":3979:3982   */\n      0x00\n        /* \"#utility.yul\":4016:4021   */\n      dup2\n        /* \"#utility.yul\":4010:4022   */\n      sload\n        /* \"#utility.yul\":4045:4081   */\n      tag_189\n        /* \"#utility.yul\":4071:4080   */\n      dup2\n        /* \"#utility.yul\":4045:4081   */\n      tag_61\n      jump\t// in\n    tag_189:\n        /* \"#utility.yul\":4097:4168   */\n      tag_190\n        /* \"#utility.yul\":4161:4167   */\n      dup2\n        /* \"#utility.yul\":4156:4159   */\n      dup7\n        /* \"#utility.yul\":4097:4168   */\n      tag_176\n      jump\t// in\n    tag_190:\n        /* \"#utility.yul\":4090:4168   */\n      swap5\n      pop\n        /* \"#utility.yul\":4199:4200   */\n      0x01\n        /* \"#utility.yul\":4188:4197   */\n      dup3\n        /* \"#utility.yul\":4184:4201   */\n      and\n        /* \"#utility.yul\":4215:4216   */\n      0x00\n        /* \"#utility.yul\":4210:4345   */\n      dup2\n      eq\n      tag_192\n      jumpi\n        /* \"#utility.yul\":4359:4360   */\n      0x01\n        /* \"#utility.yul\":4354:4690   */\n      dup2\n      eq\n      tag_193\n      jumpi\n        /* \"#utility.yul\":4177:4690   */\n      jump(tag_191)\n        /* \"#utility.yul\":4210:4345   */\n    tag_192:\n        /* \"#utility.yul\":4294:4298   */\n      0xff\n        /* \"#utility.yul\":4290:4299   */\n      not\n        /* \"#utility.yul\":4279:4288   */\n      dup4\n        /* \"#utility.yul\":4275:4300   */\n      and\n        /* \"#utility.yul\":4270:4273   */\n      dup7\n        /* \"#utility.yul\":4263:4301   */\n      mstore\n        /* \"#utility.yul\":4330:4334   */\n      0x20\n        /* \"#utility.yul\":4325:4328   */\n      dup7\n        /* \"#utility.yul\":4321:4335   */\n      add\n        /* \"#utility.yul\":4314:4335   */\n      swap4\n      pop\n        /* \"#utility.yul\":4210:4345   */\n      jump(tag_191)\n        /* \"#utility.yul\":4354:4690   */\n    tag_193:\n        /* \"#utility.yul\":4421:4459   */\n      tag_194\n        /* \"#utility.yul\":4453:4458   */\n      dup6\n        /* \"#utility.yul\":4421:4459   */\n      tag_195\n      jump\t// in\n    tag_194:\n        /* \"#utility.yul\":4481:4482   */\n      0x00\n        /* \"#utility.yul\":4495:4649   */\n    tag_196:\n        /* \"#utility.yul\":4509:4515   */\n      dup4\n        /* \"#utility.yul\":4506:4507   */\n      dup2\n        /* \"#utility.yul\":4503:4516   */\n      lt\n        /* \"#utility.yul\":4495:4649   */\n      iszero\n      tag_198\n      jumpi\n        /* \"#utility.yul\":4583:4590   */\n      dup2\n        /* \"#utility.yul\":4577:4591   */\n      sload\n        /* \"#utility.yul\":4573:4574   */\n      dup2\n        /* \"#utility.yul\":4568:4571   */\n      dup10\n        /* \"#utility.yul\":4564:4575   */\n      add\n        /* \"#utility.yul\":4557:4592   */\n      mstore\n        /* \"#utility.yul\":4633:4634   */\n      0x01\n        /* \"#utility.yul\":4624:4631   */\n      dup3\n        /* \"#utility.yul\":4620:4635   */\n      add\n        /* \"#utility.yul\":4609:4635   */\n      swap2\n      pop\n        /* \"#utility.yul\":4531:4535   */\n      0x20\n        /* \"#utility.yul\":4528:4529   */\n      dup2\n        /* \"#utility.yul\":4524:4536   */\n      add\n        /* \"#utility.yul\":4519:4536   */\n      swap1\n      pop\n        /* \"#utility.yul\":4495:4649   */\n      jump(tag_196)\n    tag_198:\n        /* \"#utility.yul\":4678:4679   */\n      dup1\n        /* \"#utility.yul\":4673:4676   */\n      dup9\n        /* \"#utility.yul\":4669:4680   */\n      add\n        /* \"#utility.yul\":4662:4680   */\n      swap6\n      pop\n        /* \"#utility.yul\":4361:4690   */\n      pop\n      pop\n        /* \"#utility.yul\":4177:4690   */\n    tag_191:\n      pop\n        /* \"#utility.yul\":3983:4696   */\n      pop\n      pop\n        /* \"#utility.yul\":3894:4696   */\n      swap3\n      swap2\n      pop\n      pop\n      jump\t// out\n        /* \"#utility.yul\":4702:5102   */\n    tag_199:\n        /* \"#utility.yul\":4862:4865   */\n      0x00\n        /* \"#utility.yul\":4883:4967   */\n      tag_201\n        /* \"#utility.yul\":4965:4966   */\n      0x00\n        /* \"#utility.yul\":4960:4963   */\n      dup4\n        /* \"#utility.yul\":4883:4967   */\n      tag_185\n      jump\t// in\n    tag_201:\n        /* \"#utility.yul\":4876:4967   */\n      swap2\n      pop\n        /* \"#utility.yul\":4976:5069   */\n      tag_202\n        /* \"#utility.yul\":5065:5068   */\n      dup3\n        /* \"#utility.yul\":4976:5069   */\n      tag_203\n      jump\t// in\n    tag_202:\n        /* \"#utility.yul\":5094:5095   */\n      0x00\n        /* \"#utility.yul\":5089:5092   */\n      dup3\n        /* \"#utility.yul\":5085:5096   */\n      add\n        /* \"#utility.yul\":5078:5096   */\n      swap1\n      pop\n        /* \"#utility.yul\":4702:5102   */\n      swap2\n      swap1\n      pop\n      jump\t// out\n        /* \"#utility.yul\":5108:5474   */\n    tag_204:\n        /* \"#utility.yul\":5250:5253   */\n      0x00\n        /* \"#utility.yul\":5271:5338   */\n      tag_206\n        /* \"#utility.yul\":5335:5337   */\n      0x10\n        /* \"#utility.yul\":5330:5333   */\n      dup4\n        /* \"#utility.yul\":5271:5338   */\n      tag_176\n      jump\t// in\n    tag_206:\n        /* \"#utility.yul\":5264:5338   */\n      swap2\n      pop\n        /* \"#utility.yul\":5347:5440   */\n      tag_207\n        /* \"#utility.yul\":5436:5439   */\n      dup3\n        /* \"#utility.yul\":5347:5440   */\n      tag_208\n      jump\t// in\n    tag_207:\n        /* \"#utility.yul\":5465:5467   */\n      0x20\n        /* \"#utility.yul\":5460:5463   */\n      dup3\n        /* \"#utility.yul\":5456:5468   */\n      add\n        /* \"#utility.yul\":5449:5468   */\n      swap1\n      pop\n        /* \"#utility.yul\":5108:5474   */\n      swap2\n      swap1\n      pop\n      jump\t// out\n        /* \"#utility.yul\":5480:5846   */\n    tag_209:\n        /* \"#utility.yul\":5622:5625   */\n      0x00\n        /* \"#utility.yul\":5643:5710   */\n      tag_211\n        /* \"#utility.yul\":5707:5709   */\n      0x12\n        /* \"#utility.yul\":5702:5705   */\n      dup4\n        /* \"#utility.yul\":5643:5710   */\n      tag_176\n      jump\t// in\n    tag_211:\n        /* \"#utility.yul\":5636:5710   */\n      swap2\n      pop\n        /* \"#utility.yul\":5719:5812   */\n      tag_212\n        /* \"#utility.yul\":5808:5811   */\n      dup3\n        /* \"#utility.yul\":5719:5812   */\n      tag_213\n      jump\t// in\n    tag_212:\n        /* \"#utility.yul\":5837:5839   */\n      0x20\n        /* \"#utility.yul\":5832:5835   */\n      dup3\n        /* \"#utility.yul\":5828:5840   */\n      add\n        /* \"#utility.yul\":5821:5840   */\n      swap1\n      pop\n        /* \"#utility.yul\":5480:5846   */\n      swap2\n      swap1\n      pop\n      jump\t// out\n        /* \"#utility.yul\":5852:5964   */\n    tag_214:\n        /* \"#utility.yul\":5935:5957   */\n      tag_216\n        /* \"#utility.yul\":5951:5956   */\n      dup2\n        /* \"#utility.yul\":5935:5957   */\n      tag_217\n      jump\t// in\n    tag_216:\n        /* \"#utility.yul\":5930:5933   */\n      dup3\n        /* \"#utility.yul\":5923:5958   */\n      mstore\n        /* \"#utility.yul\":5852:5964   */\n      pop\n      pop\n      jump\t// out\n        /* \"#utility.yul\":5970:6245   */\n    tag_51:\n        /* \"#utility.yul\":6102:6105   */\n      0x00\n        /* \"#utility.yul\":6124:6219   */\n      tag_219\n        /* \"#utility.yul\":6215:6218   */\n      dup3\n        /* \"#utility.yul\":6206:6212   */\n      dup5\n        /* \"#utility.yul\":6124:6219   */\n      tag_181\n      jump\t// in\n    tag_219:\n        /* \"#utility.yul\":6117:6219   */\n      swap2\n      pop\n        /* \"#utility.yul\":6236:6239   */\n      dup2\n        /* \"#utility.yul\":6229:6239   */\n      swap1\n      pop\n        /* \"#utility.yul\":5970:6245   */\n      swap3\n      swap2\n      pop\n      pop\n      jump\t// out\n        /* \"#utility.yul\":6251:6632   */\n    tag_104:\n        /* \"#utility.yul\":6436:6439   */\n      0x00\n        /* \"#utility.yul\":6458:6606   */\n      tag_221\n        /* \"#utility.yul\":6602:6605   */\n      dup3\n        /* \"#utility.yul\":6458:6606   */\n      tag_199\n      jump\t// in\n    tag_221:\n        /* \"#utility.yul\":6451:6606   */\n      swap2\n      pop\n        /* \"#utility.yul\":6623:6626   */\n      dup2\n        /* \"#utility.yul\":6616:6626   */\n      swap1\n      pop\n        /* \"#utility.yul\":6251:6632   */\n      swap2\n      swap1\n      pop\n      jump\t// out\n        /* \"#utility.yul\":6638:7757   */\n    tag_73:\n        /* \"#utility.yul\":6943:6947   */\n      0x00\n        /* \"#utility.yul\":6981:6984   */\n      0xa0\n        /* \"#utility.yul\":6970:6979   */\n      dup3\n        /* \"#utility.yul\":6966:6985   */\n      add\n        /* \"#utility.yul\":6958:6985   */\n      swap1\n      pop\n        /* \"#utility.yul\":7031:7040   */\n      dup2\n        /* \"#utility.yul\":7025:7029   */\n      dup2\n        /* \"#utility.yul\":7021:7041   */\n      sub\n        /* \"#utility.yul\":7017:7018   */\n      0x00\n        /* \"#utility.yul\":7006:7015   */\n      dup4\n        /* \"#utility.yul\":7002:7019   */\n      add\n        /* \"#utility.yul\":6995:7042   */\n      mstore\n        /* \"#utility.yul\":7059:7137   */\n      tag_223\n        /* \"#utility.yul\":7132:7136   */\n      dup2\n        /* \"#utility.yul\":7123:7129   */\n      dup9\n        /* \"#utility.yul\":7059:7137   */\n      tag_171\n      jump\t// in\n    tag_223:\n        /* \"#utility.yul\":7051:7137   */\n      swap1\n      pop\n        /* \"#utility.yul\":7184:7193   */\n      dup2\n        /* \"#utility.yul\":7178:7182   */\n      dup2\n        /* \"#utility.yul\":7174:7194   */\n      sub\n        /* \"#utility.yul\":7169:7171   */\n      0x20\n        /* \"#utility.yul\":7158:7167   */\n      dup4\n        /* \"#utility.yul\":7154:7172   */\n      add\n        /* \"#utility.yul\":7147:7195   */\n      mstore\n        /* \"#utility.yul\":7212:7290   */\n      tag_224\n        /* \"#utility.yul\":7285:7289   */\n      dup2\n        /* \"#utility.yul\":7276:7282   */\n      dup8\n        /* \"#utility.yul\":7212:7290   */\n      tag_171\n      jump\t// in\n    tag_224:\n        /* \"#utility.yul\":7204:7290   */\n      swap1\n      pop\n        /* \"#utility.yul\":7337:7346   */\n      dup2\n        /* \"#utility.yul\":7331:7335   */\n      dup2\n        /* \"#utility.yul\":7327:7347   */\n      sub\n        /* \"#utility.yul\":7322:7324   */\n      0x40\n        /* \"#utility.yul\":7311:7320   */\n      dup4\n        /* \"#utility.yul\":7307:7325   */\n      add\n        /* \"#utility.yul\":7300:7348   */\n      mstore\n        /* \"#utility.yul\":7365:7443   */\n      tag_225\n        /* \"#utility.yul\":7438:7442   */\n      dup2\n        /* \"#utility.yul\":7429:7435   */\n      dup7\n        /* \"#utility.yul\":7365:7443   */\n      tag_171\n      jump\t// in\n    tag_225:\n        /* \"#utility.yul\":7357:7443   */\n      swap1\n      pop\n        /* \"#utility.yul\":7490:7499   */\n      dup2\n        /* \"#utility.yul\":7484:7488   */\n      dup2\n        /* \"#utility.yul\":7480:7500   */\n      sub\n        /* \"#utility.yul\":7475:7477   */\n      0x60\n        /* \"#utility.yul\":7464:7473   */\n      dup4\n        /* \"#utility.yul\":7460:7478   */\n      add\n        /* \"#utility.yul\":7453:7501   */\n      mstore\n        /* \"#utility.yul\":7518:7596   */\n      tag_226\n        /* \"#utility.yul\":7591:7595   */\n      dup2\n        /* \"#utility.yul\":7582:7588   */\n      dup6\n        /* \"#utility.yul\":7518:7596   */\n      tag_171\n      jump\t// in\n    tag_226:\n        /* \"#utility.yul\":7510:7596   */\n      swap1\n      pop\n        /* \"#utility.yul\":7644:7653   */\n      dup2\n        /* \"#utility.yul\":7638:7642   */\n      dup2\n        /* \"#utility.yul\":7634:7654   */\n      sub\n        /* \"#utility.yul\":7628:7631   */\n      0x80\n        /* \"#utility.yul\":7617:7626   */\n      dup4\n        /* \"#utility.yul\":7613:7632   */\n      add\n        /* \"#utility.yul\":7606:7655   */\n      mstore\n        /* \"#utility.yul\":7672:7750   */\n      tag_227\n        /* \"#utility.yul\":7745:7749   */\n      dup2\n        /* \"#utility.yul\":7736:7742   */\n      dup5\n        /* \"#utility.yul\":7672:7750   */\n      tag_171\n      jump\t// in\n    tag_227:\n        /* \"#utility.yul\":7664:7750   */\n      swap1\n      pop\n        /* \"#utility.yul\":6638:7757   */\n      swap7\n      swap6\n      pop\n      pop\n      pop\n      pop\n      pop\n      pop\n      jump\t// out\n        /* \"#utility.yul\":7763:8852   */\n    tag_43:\n        /* \"#utility.yul\":8053:8057   */\n      0x00\n        /* \"#utility.yul\":8091:8094   */\n      0xa0\n        /* \"#utility.yul\":8080:8089   */\n      dup3\n        /* \"#utility.yul\":8076:8095   */\n      add\n        /* \"#utility.yul\":8068:8095   */\n      swap1\n      pop\n        /* \"#utility.yul\":8141:8150   */\n      dup2\n        /* \"#utility.yul\":8135:8139   */\n      dup2\n        /* \"#utility.yul\":8131:8151   */\n      sub\n        /* \"#utility.yul\":8127:8128   */\n      0x00\n        /* \"#utility.yul\":8116:8125   */\n      dup4\n        /* \"#utility.yul\":8112:8129   */\n      add\n        /* \"#utility.yul\":8105:8152   */\n      mstore\n        /* \"#utility.yul\":8169:8244   */\n      tag_229\n        /* \"#utility.yul\":8239:8243   */\n      dup2\n        /* \"#utility.yul\":8230:8236   */\n      dup9\n        /* \"#utility.yul\":8169:8244   */\n      tag_187\n      jump\t// in\n    tag_229:\n        /* \"#utility.yul\":8161:8244   */\n      swap1\n      pop\n        /* \"#utility.yul\":8291:8300   */\n      dup2\n        /* \"#utility.yul\":8285:8289   */\n      dup2\n        /* \"#utility.yul\":8281:8301   */\n      sub\n        /* \"#utility.yul\":8276:8278   */\n      0x20\n        /* \"#utility.yul\":8265:8274   */\n      dup4\n        /* \"#utility.yul\":8261:8279   */\n      add\n        /* \"#utility.yul\":8254:8302   */\n      mstore\n        /* \"#utility.yul\":8319:8394   */\n      tag_230\n        /* \"#utility.yul\":8389:8393   */\n      dup2\n        /* \"#utility.yul\":8380:8386   */\n      dup8\n        /* \"#utility.yul\":8319:8394   */\n      tag_187\n      jump\t// in\n    tag_230:\n        /* \"#utility.yul\":8311:8394   */\n      swap1\n      pop\n        /* \"#utility.yul\":8441:8450   */\n      dup2\n        /* \"#utility.yul\":8435:8439   */\n      dup2\n        /* \"#utility.yul\":8431:8451   */\n      sub\n        /* \"#utility.yul\":8426:8428   */\n      0x40\n        /* \"#utility.yul\":8415:8424   */\n      dup4\n        /* \"#utility.yul\":8411:8429   */\n      add\n        /* \"#utility.yul\":8404:8452   */\n      mstore\n        /* \"#utility.yul\":8469:8544   */\n      tag_231\n        /* \"#utility.yul\":8539:8543   */\n      dup2\n        /* \"#utility.yul\":8530:8536   */\n      dup7\n        /* \"#utility.yul\":8469:8544   */\n      tag_187\n      jump\t// in\n    tag_231:\n        /* \"#utility.yul\":8461:8544   */\n      swap1\n      pop\n        /* \"#utility.yul\":8591:8600   */\n      dup2\n        /* \"#utility.yul\":8585:8589   */\n      dup2\n        /* \"#utility.yul\":8581:8601   */\n      sub\n        /* \"#utility.yul\":8576:8578   */\n      0x60\n        /* \"#utility.yul\":8565:8574   */\n      dup4\n        /* \"#utility.yul\":8561:8579   */\n      add\n        /* \"#utility.yul\":8554:8602   */\n      mstore\n        /* \"#utility.yul\":8619:8694   */\n      tag_232\n        /* \"#utility.yul\":8689:8693   */\n      dup2\n        /* \"#utility.yul\":8680:8686   */\n      dup6\n        /* \"#utility.yul\":8619:8694   */\n      tag_187\n      jump\t// in\n    tag_232:\n        /* \"#utility.yul\":8611:8694   */\n      swap1\n      pop\n        /* \"#utility.yul\":8742:8751   */\n      dup2\n        /* \"#utility.yul\":8736:8740   */\n      dup2\n        /* \"#utility.yul\":8732:8752   */\n      sub\n        /* \"#utility.yul\":8726:8729   */\n      0x80\n        /* \"#utility.yul\":8715:8724   */\n      dup4\n        /* \"#utility.yul\":8711:8730   */\n      add\n        /* \"#utility.yul\":8704:8753   */\n      mstore\n        /* \"#utility.yul\":8770:8845   */\n      tag_233\n        /* \"#utility.yul\":8840:8844   */\n      dup2\n        /* \"#utility.yul\":8831:8837   */\n      dup5\n        /* \"#utility.yul\":8770:8845   */\n      tag_187\n      jump\t// in\n    tag_233:\n        /* \"#utility.yul\":8762:8845   */\n      swap1\n      pop\n        /* \"#utility.yul\":7763:8852   */\n      swap7\n      swap6\n      pop\n      pop\n      pop\n      pop\n      pop\n      pop\n      jump\t// out\n        /* \"#utility.yul\":8858:9277   */\n    tag_22:\n        /* \"#utility.yul\":9024:9028   */\n      0x00\n        /* \"#utility.yul\":9062:9064   */\n      0x20\n        /* \"#utility.yul\":9051:9060   */\n      dup3\n        /* \"#utility.yul\":9047:9065   */\n      add\n        /* \"#utility.yul\":9039:9065   */\n      swap1\n      pop\n        /* \"#utility.yul\":9111:9120   */\n      dup2\n        /* \"#utility.yul\":9105:9109   */\n      dup2\n        /* \"#utility.yul\":9101:9121   */\n      sub\n        /* \"#utility.yul\":9097:9098   */\n      0x00\n        /* \"#utility.yul\":9086:9095   */\n      dup4\n        /* \"#utility.yul\":9082:9099   */\n      add\n        /* \"#utility.yul\":9075:9122   */\n      mstore\n        /* \"#utility.yul\":9139:9270   */\n      tag_235\n        /* \"#utility.yul\":9265:9269   */\n      dup2\n        /* \"#utility.yul\":9139:9270   */\n      tag_204\n      jump\t// in\n    tag_235:\n        /* \"#utility.yul\":9131:9270   */\n      swap1\n      pop\n        /* \"#utility.yul\":8858:9277   */\n      swap2\n      swap1\n      pop\n      jump\t// out\n        /* \"#utility.yul\":9283:9702   */\n    tag_108:\n        /* \"#utility.yul\":9449:9453   */\n      0x00\n        /* \"#utility.yul\":9487:9489   */\n      0x20\n        /* \"#utility.yul\":9476:9485   */\n      dup3\n        /* \"#utility.yul\":9472:9490   */\n      add\n        /* \"#utility.yul\":9464:9490   */\n      swap1\n      pop\n        /* \"#utility.yul\":9536:9545   */\n      dup2\n        /* \"#utility.yul\":9530:9534   */\n      dup2\n        /* \"#utility.yul\":9526:9546   */\n      sub\n        /* \"#utility.yul\":9522:9523   */\n      0x00\n        /* \"#utility.yul\":9511:9520   */\n      dup4\n        /* \"#utility.yul\":9507:9524   */\n      add\n        /* \"#utility.yul\":9500:9547   */\n      mstore\n        /* \"#utility.yul\":9564:9695   */\n      tag_237\n        /* \"#utility.yul\":9690:9694   */\n      dup2\n        /* \"#utility.yul\":9564:9695   */\n      tag_209\n      jump\t// in\n    tag_237:\n        /* \"#utility.yul\":9556:9695   */\n      swap1\n      pop\n        /* \"#utility.yul\":9283:9702   */\n      swap2\n      swap1\n      pop\n      jump\t// out\n        /* \"#utility.yul\":9708:9922   */\n    tag_48:\n        /* \"#utility.yul\":9797:9801   */\n      0x00\n        /* \"#utility.yul\":9835:9837   */\n      0x20\n        /* \"#utility.yul\":9824:9833   */\n      dup3\n        /* \"#utility.yul\":9820:9838   */\n      add\n        /* \"#utility.yul\":9812:9838   */\n      swap1\n      pop\n        /* \"#utility.yul\":9848:9915   */\n      tag_239\n        /* \"#utility.yul\":9912:9913   */\n      0x00\n        /* \"#utility.yul\":9901:9910   */\n      dup4\n        /* \"#utility.yul\":9897:9914   */\n      add\n        /* \"#utility.yul\":9888:9894   */\n      dup5\n        /* \"#utility.yul\":9848:9915   */\n      tag_214\n      jump\t// in\n    tag_239:\n        /* \"#utility.yul\":9708:9922   */\n      swap3\n      swap2\n      pop\n      pop\n      jump\t// out\n        /* \"#utility.yul\":9928:10057   */\n    tag_133:\n        /* \"#utility.yul\":9962:9968   */\n      0x00\n        /* \"#utility.yul\":9989:10009   */\n      tag_241\n      tag_242\n      jump\t// in\n    tag_241:\n        /* \"#utility.yul\":9979:10009   */\n      swap1\n      pop\n        /* \"#utility.yul\":10018:10051   */\n      tag_243\n        /* \"#utility.yul\":10046:10050   */\n      dup3\n        /* \"#utility.yul\":10038:10044   */\n      dup3\n        /* \"#utility.yul\":10018:10051   */\n      tag_244\n      jump\t// in\n    tag_243:\n        /* \"#utility.yul\":9928:10057   */\n      swap2\n      swap1\n      pop\n      jump\t// out\n        /* \"#utility.yul\":10063:10138   */\n    tag_242:\n        /* \"#utility.yul\":10096:10102   */\n      0x00\n        /* \"#utility.yul\":10129:10131   */\n      0x40\n        /* \"#utility.yul\":10123:10132   */\n      mload\n        /* \"#utility.yul\":10113:10132   */\n      swap1\n      pop\n        /* \"#utility.yul\":10063:10138   */\n      swap1\n      jump\t// out\n        /* \"#utility.yul\":10144:10452   */\n    tag_132:\n        /* \"#utility.yul\":10206:10210   */\n      0x00\n        /* \"#utility.yul\":10296:10314   */\n      0xffffffffffffffff\n        /* \"#utility.yul\":10288:10294   */\n      dup3\n        /* \"#utility.yul\":10285:10315   */\n      gt\n        /* \"#utility.yul\":10282:10338   */\n      iszero\n      tag_247\n      jumpi\n        /* \"#utility.yul\":10318:10336   */\n      tag_248\n      tag_249\n      jump\t// in\n    tag_248:\n        /* \"#utility.yul\":10282:10338   */\n    tag_247:\n        /* \"#utility.yul\":10356:10385   */\n      tag_250\n        /* \"#utility.yul\":10378:10384   */\n      dup3\n        /* \"#utility.yul\":10356:10385   */\n      tag_180\n      jump\t// in\n    tag_250:\n        /* \"#utility.yul\":10348:10385   */\n      swap1\n      pop\n        /* \"#utility.yul\":10440:10444   */\n      0x20\n        /* \"#utility.yul\":10434:10438   */\n      dup2\n        /* \"#utility.yul\":10430:10445   */\n      add\n        /* \"#utility.yul\":10422:10445   */\n      swap1\n      pop\n        /* \"#utility.yul\":10144:10452   */\n      swap2\n      swap1\n      pop\n      jump\t// out\n        /* \"#utility.yul\":10458:10599   */\n    tag_195:\n        /* \"#utility.yul\":10507:10511   */\n      0x00\n        /* \"#utility.yul\":10530:10533   */\n      dup2\n        /* \"#utility.yul\":10522:10533   */\n      swap1\n      pop\n        /* \"#utility.yul\":10553:10556   */\n      dup2\n        /* \"#utility.yul\":10550:10551   */\n      0x00\n        /* \"#utility.yul\":10543:10557   */\n      mstore\n        /* \"#utility.yul\":10587:10591   */\n      0x20\n        /* \"#utility.yul\":10584:10585   */\n      0x00\n        /* \"#utility.yul\":10574:10592   */\n      keccak256\n        /* \"#utility.yul\":10566:10592   */\n      swap1\n      pop\n        /* \"#utility.yul\":10458:10599   */\n      swap2\n      swap1\n      pop\n      jump\t// out\n        /* \"#utility.yul\":10605:10704   */\n    tag_174:\n        /* \"#utility.yul\":10657:10663   */\n      0x00\n        /* \"#utility.yul\":10691:10696   */\n      dup2\n        /* \"#utility.yul\":10685:10697   */\n      mload\n        /* \"#utility.yul\":10675:10697   */\n      swap1\n      pop\n        /* \"#utility.yul\":10605:10704   */\n      swap2\n      swap1\n      pop\n      jump\t// out\n        /* \"#utility.yul\":10710:10879   */\n    tag_176:\n        /* \"#utility.yul\":10794:10805   */\n      0x00\n        /* \"#utility.yul\":10828:10834   */\n      dup3\n        /* \"#utility.yul\":10823:10826   */\n      dup3\n        /* \"#utility.yul\":10816:10835   */\n      mstore\n        /* \"#utility.yul\":10868:10872   */\n      0x20\n        /* \"#utility.yul\":10863:10866   */\n      dup3\n        /* \"#utility.yul\":10859:10873   */\n      add\n        /* \"#utility.yul\":10844:10873   */\n      swap1\n      pop\n        /* \"#utility.yul\":10710:10879   */\n      swap3\n      swap2\n      pop\n      pop\n      jump\t// out\n        /* \"#utility.yul\":10885:11033   */\n    tag_185:\n        /* \"#utility.yul\":10987:10998   */\n      0x00\n        /* \"#utility.yul\":11024:11027   */\n      dup2\n        /* \"#utility.yul\":11009:11027   */\n      swap1\n      pop\n        /* \"#utility.yul\":10885:11033   */\n      swap3\n      swap2\n      pop\n      pop\n      jump\t// out\n        /* \"#utility.yul\":11039:11276   */\n    tag_75:\n        /* \"#utility.yul\":11077:11080   */\n      0x00\n        /* \"#utility.yul\":11096:11114   */\n      tag_256\n        /* \"#utility.yul\":11112:11113   */\n      dup3\n        /* \"#utility.yul\":11096:11114   */\n      tag_217\n      jump\t// in\n    tag_256:\n        /* \"#utility.yul\":11091:11114   */\n      swap2\n      pop\n        /* \"#utility.yul\":11128:11146   */\n      tag_257\n        /* \"#utility.yul\":11144:11145   */\n      dup4\n        /* \"#utility.yul\":11128:11146   */\n      tag_217\n      jump\t// in\n    tag_257:\n        /* \"#utility.yul\":11123:11146   */\n      swap3\n      pop\n        /* \"#utility.yul\":11218:11219   */\n      dup3\n        /* \"#utility.yul\":11212:11216   */\n      0xff\n        /* \"#utility.yul\":11208:11220   */\n      sub\n        /* \"#utility.yul\":11205:11206   */\n      dup3\n        /* \"#utility.yul\":11202:11221   */\n      gt\n        /* \"#utility.yul\":11199:11244   */\n      iszero\n      tag_258\n      jumpi\n        /* \"#utility.yul\":11224:11242   */\n      tag_259\n      tag_260\n      jump\t// in\n    tag_259:\n        /* \"#utility.yul\":11199:11244   */\n    tag_258:\n        /* \"#utility.yul\":11268:11269   */\n      dup3\n        /* \"#utility.yul\":11265:11266   */\n      dup3\n        /* \"#utility.yul\":11261:11270   */\n      add\n        /* \"#utility.yul\":11254:11270   */\n      swap1\n      pop\n        /* \"#utility.yul\":11039:11276   */\n      swap3\n      swap2\n      pop\n      pop\n      jump\t// out\n        /* \"#utility.yul\":11282:11359   */\n    tag_261:\n        /* \"#utility.yul\":11319:11326   */\n      0x00\n        /* \"#utility.yul\":11348:11353   */\n      dup2\n        /* \"#utility.yul\":11337:11353   */\n      swap1\n      pop\n        /* \"#utility.yul\":11282:11359   */\n      swap2\n      swap1\n      pop\n      jump\t// out\n        /* \"#utility.yul\":11365:11451   */\n    tag_217:\n        /* \"#utility.yul\":11400:11407   */\n      0x00\n        /* \"#utility.yul\":11440:11444   */\n      0xff\n        /* \"#utility.yul\":11433:11438   */\n      dup3\n        /* \"#utility.yul\":11429:11445   */\n      and\n        /* \"#utility.yul\":11418:11445   */\n      swap1\n      pop\n        /* \"#utility.yul\":11365:11451   */\n      swap2\n      swap1\n      pop\n      jump\t// out\n        /* \"#utility.yul\":11457:11611   */\n    tag_138:\n        /* \"#utility.yul\":11541:11547   */\n      dup3\n        /* \"#utility.yul\":11536:11539   */\n      dup2\n        /* \"#utility.yul\":11531:11534   */\n      dup4\n        /* \"#utility.yul\":11518:11548   */\n      calldatacopy\n        /* \"#utility.yul\":11603:11604   */\n      0x00\n        /* \"#utility.yul\":11594:11600   */\n      dup4\n        /* \"#utility.yul\":11589:11592   */\n      dup4\n        /* \"#utility.yul\":11585:11601   */\n      add\n        /* \"#utility.yul\":11578:11605   */\n      mstore\n        /* \"#utility.yul\":11457:11611   */\n      pop\n      pop\n      pop\n      jump\t// out\n        /* \"#utility.yul\":11617:11924   */\n    tag_178:\n        /* \"#utility.yul\":11685:11686   */\n      0x00\n        /* \"#utility.yul\":11695:11808   */\n    tag_266:\n        /* \"#utility.yul\":11709:11715   */\n      dup4\n        /* \"#utility.yul\":11706:11707   */\n      dup2\n        /* \"#utility.yul\":11703:11716   */\n      lt\n        /* \"#utility.yul\":11695:11808   */\n      iszero\n      tag_268\n      jumpi\n        /* \"#utility.yul\":11794:11795   */\n      dup1\n        /* \"#utility.yul\":11789:11792   */\n      dup3\n        /* \"#utility.yul\":11785:11796   */\n      add\n        /* \"#utility.yul\":11779:11797   */\n      mload\n        /* \"#utility.yul\":11775:11776   */\n      dup2\n        /* \"#utility.yul\":11770:11773   */\n      dup5\n        /* \"#utility.yul\":11766:11777   */\n      add\n        /* \"#utility.yul\":11759:11798   */\n      mstore\n        /* \"#utility.yul\":11731:11733   */\n      0x20\n        /* \"#utility.yul\":11728:11729   */\n      dup2\n        /* \"#utility.yul\":11724:11734   */\n      add\n        /* \"#utility.yul\":11719:11734   */\n      swap1\n      pop\n        /* \"#utility.yul\":11695:11808   */\n      jump(tag_266)\n    tag_268:\n        /* \"#utility.yul\":11826:11832   */\n      dup4\n        /* \"#utility.yul\":11823:11824   */\n      dup2\n        /* \"#utility.yul\":11820:11833   */\n      gt\n        /* \"#utility.yul\":11817:11918   */\n      iszero\n      tag_269\n      jumpi\n        /* \"#utility.yul\":11906:11907   */\n      0x00\n        /* \"#utility.yul\":11897:11903   */\n      dup5\n        /* \"#utility.yul\":11892:11895   */\n      dup5\n        /* \"#utility.yul\":11888:11904   */\n      add\n        /* \"#utility.yul\":11881:11908   */\n      mstore\n        /* \"#utility.yul\":11817:11918   */\n    tag_269:\n        /* \"#utility.yul\":11666:11924   */\n      pop\n        /* \"#utility.yul\":11617:11924   */\n      pop\n      pop\n      pop\n      jump\t// out\n        /* \"#utility.yul\":11930:12250   */\n    tag_61:\n        /* \"#utility.yul\":11974:11980   */\n      0x00\n        /* \"#utility.yul\":12011:12012   */\n      0x02\n        /* \"#utility.yul\":12005:12009   */\n      dup3\n        /* \"#utility.yul\":12001:12013   */\n      div\n        /* \"#utility.yul\":11991:12013   */\n      swap1\n      pop\n        /* \"#utility.yul\":12058:12059   */\n      0x01\n        /* \"#utility.yul\":12052:12056   */\n      dup3\n        /* \"#utility.yul\":12048:12060   */\n      and\n        /* \"#utility.yul\":12079:12097   */\n      dup1\n        /* \"#utility.yul\":12069:12150   */\n      tag_271\n      jumpi\n        /* \"#utility.yul\":12135:12139   */\n      0x7f\n        /* \"#utility.yul\":12127:12133   */\n      dup3\n        /* \"#utility.yul\":12123:12140   */\n      and\n        /* \"#utility.yul\":12113:12140   */\n      swap2\n      pop\n        /* \"#utility.yul\":12069:12150   */\n    tag_271:\n        /* \"#utility.yul\":12197:12199   */\n      0x20\n        /* \"#utility.yul\":12189:12195   */\n      dup3\n        /* \"#utility.yul\":12186:12200   */\n      lt\n        /* \"#utility.yul\":12166:12184   */\n      dup2\n        /* \"#utility.yul\":12163:12201   */\n      eq\n        /* \"#utility.yul\":12160:12244   */\n      iszero\n      tag_272\n      jumpi\n        /* \"#utility.yul\":12216:12234   */\n      tag_273\n      tag_274\n      jump\t// in\n    tag_273:\n        /* \"#utility.yul\":12160:12244   */\n    tag_272:\n        /* \"#utility.yul\":11981:12250   */\n      pop\n        /* \"#utility.yul\":11930:12250   */\n      swap2\n      swap1\n      pop\n      jump\t// out\n        /* \"#utility.yul\":12256:12537   */\n    tag_244:\n        /* \"#utility.yul\":12339:12366   */\n      tag_276\n        /* \"#utility.yul\":12361:12365   */\n      dup3\n        /* \"#utility.yul\":12339:12366   */\n      tag_180\n      jump\t// in\n    tag_276:\n        /* \"#utility.yul\":12331:12337   */\n      dup2\n        /* \"#utility.yul\":12327:12367   */\n      add\n        /* \"#utility.yul\":12469:12475   */\n      dup2\n        /* \"#utility.yul\":12457:12467   */\n      dup2\n        /* \"#utility.yul\":12454:12476   */\n      lt\n        /* \"#utility.yul\":12433:12451   */\n      0xffffffffffffffff\n        /* \"#utility.yul\":12421:12431   */\n      dup3\n        /* \"#utility.yul\":12418:12452   */\n      gt\n        /* \"#utility.yul\":12415:12477   */\n      or\n        /* \"#utility.yul\":12412:12500   */\n      iszero\n      tag_277\n      jumpi\n        /* \"#utility.yul\":12480:12498   */\n      tag_278\n      tag_249\n      jump\t// in\n    tag_278:\n        /* \"#utility.yul\":12412:12500   */\n    tag_277:\n        /* \"#utility.yul\":12520:12530   */\n      dup1\n        /* \"#utility.yul\":12516:12518   */\n      0x40\n        /* \"#utility.yul\":12509:12531   */\n      mstore\n        /* \"#utility.yul\":12299:12537   */\n      pop\n        /* \"#utility.yul\":12256:12537   */\n      pop\n      pop\n      jump\t// out\n        /* \"#utility.yul\":12543:12776   */\n    tag_45:\n        /* \"#utility.yul\":12582:12585   */\n      0x00\n        /* \"#utility.yul\":12605:12629   */\n      tag_280\n        /* \"#utility.yul\":12623:12628   */\n      dup3\n        /* \"#utility.yul\":12605:12629   */\n      tag_261\n      jump\t// in\n    tag_280:\n        /* \"#utility.yul\":12596:12629   */\n      swap2\n      pop\n        /* \"#utility.yul\":12651:12717   */\n      0xffffffffffffffffffffffffffffffffffffffffffffffffffffffffffffffff\n        /* \"#utility.yul\":12644:12649   */\n      dup3\n        /* \"#utility.yul\":12641:12718   */\n      eq\n        /* \"#utility.yul\":12638:12741   */\n      iszero\n      tag_281\n      jumpi\n        /* \"#utility.yul\":12721:12739   */\n      tag_282\n      tag_260\n      jump\t// in\n    tag_282:\n        /* \"#utility.yul\":12638:12741   */\n    tag_281:\n        /* \"#utility.yul\":12768:12769   */\n      0x01\n        /* \"#utility.yul\":12761:12766   */\n      dup3\n        /* \"#utility.yul\":12757:12770   */\n      add\n        /* \"#utility.yul\":12750:12770   */\n      swap1\n      pop\n        /* \"#utility.yul\":12543:12776   */\n      swap2\n      swap1\n      pop\n      jump\t// out\n        /* \"#utility.yul\":12782:12962   */\n    tag_260:\n        /* \"#utility.yul\":12830:12907   */\n      0x4e487b7100000000000000000000000000000000000000000000000000000000\n        /* \"#utility.yul\":12827:12828   */\n      0x00\n        /* \"#utility.yul\":12820:12908   */\n      mstore\n        /* \"#utility.yul\":12927:12931   */\n      0x11\n        /* \"#utility.yul\":12924:12925   */\n      0x04\n        /* \"#utility.yul\":12917:12932   */\n      mstore\n        /* \"#utility.yul\":12951:12955   */\n      0x24\n        /* \"#utility.yul\":12948:12949   */\n      0x00\n        /* \"#utility.yul\":12941:12956   */\n      revert\n        /* \"#utility.yul\":12968:13148   */\n    tag_274:\n        /* \"#utility.yul\":13016:13093   */\n      0x4e487b7100000000000000000000000000000000000000000000000000000000\n        /* \"#utility.yul\":13013:13014   */\n      0x00\n        /* \"#utility.yul\":13006:13094   */\n      mstore\n        /* \"#utility.yul\":13113:13117   */\n      0x22\n        /* \"#utility.yul\":13110:13111   */\n      0x04\n        /* \"#utility.yul\":13103:13118   */\n      mstore\n        /* \"#utility.yul\":13137:13141   */\n      0x24\n        /* \"#utility.yul\":13134:13135   */\n      0x00\n        /* \"#utility.yul\":13127:13142   */\n      revert\n        /* \"#utility.yul\":13154:13334   */\n    tag_28:\n        /* \"#utility.yul\":13202:13279   */\n      0x4e487b7100000000000000000000000000000000000000000000000000000000\n        /* \"#utility.yul\":13199:13200   */\n      0x00\n        /* \"#utility.yul\":13192:13280   */\n      mstore\n        /* \"#utility.yul\":13299:13303   */\n      0x32\n        /* \"#utility.yul\":13296:13297   */\n      0x04\n        /* \"#utility.yul\":13289:13304   */\n      mstore\n        /* \"#utility.yul\":13323:13327   */\n      0x24\n        /* \"#utility.yul\":13320:13321   */\n      0x00\n        /* \"#utility.yul\":13313:13328   */\n      revert\n        /* \"#utility.yul\":13340:13520   */\n    tag_249:\n        /* \"#utility.yul\":13388:13465   */\n      0x4e487b7100000000000000000000000000000000000000000000000000000000\n        /* \"#utility.yul\":13385:13386   */\n      0x00\n        /* \"#utility.yul\":13378:13466   */\n      mstore\n        /* \"#utility.yul\":13485:13489   */\n      0x41\n        /* \"#utility.yul\":13482:13483   */\n      0x04\n        /* \"#utility.yul\":13475:13490   */\n      mstore\n        /* \"#utility.yul\":13509:13513   */\n      0x24\n        /* \"#utility.yul\":13506:13507   */\n      0x00\n        /* \"#utility.yul\":13499:13514   */\n      revert\n        /* \"#utility.yul\":13526:13643   */\n    tag_143:\n        /* \"#utility.yul\":13635:13636   */\n      0x00\n        /* \"#utility.yul\":13632:13633   */\n      dup1\n        /* \"#utility.yul\":13625:13637   */\n      revert\n        /* \"#utility.yul\":13649:13766   */\n    tag_136:\n        /* \"#utility.yul\":13758:13759   */\n      0x00\n        /* \"#utility.yul\":13755:13756   */\n      dup1\n        /* \"#utility.yul\":13748:13760   */\n      revert\n        /* \"#utility.yul\":13772:13889   */\n    tag_151:\n        /* \"#utility.yul\":13881:13882   */\n      0x00\n        /* \"#utility.yul\":13878:13879   */\n      dup1\n        /* \"#utility.yul\":13871:13883   */\n      revert\n        /* \"#utility.yul\":13895:14012   */\n    tag_148:\n        /* \"#utility.yul\":14004:14005   */\n      0x00\n        /* \"#utility.yul\":14001:14002   */\n      dup1\n        /* \"#utility.yul\":13994:14006   */\n      revert\n        /* \"#utility.yul\":14018:14120   */\n    tag_180:\n        /* \"#utility.yul\":14059:14065   */\n      0x00\n        /* \"#utility.yul\":14110:14112   */\n      0x1f\n        /* \"#utility.yul\":14106:14113   */\n      not\n        /* \"#utility.yul\":14101:14103   */\n      0x1f\n        /* \"#utility.yul\":14094:14099   */\n      dup4\n        /* \"#utility.yul\":14090:14104   */\n      add\n        /* \"#utility.yul\":14086:14114   */\n      and\n        /* \"#utility.yul\":14076:14114   */\n      swap1\n      pop\n        /* \"#utility.yul\":14018:14120   */\n      swap2\n      swap1\n      pop\n      jump\t// out\n        /* \"#utility.yul\":14126:14240   */\n    tag_203:\n      pop\n      jump\t// out\n        /* \"#utility.yul\":14246:14412   */\n    tag_208:\n        /* \"#utility.yul\":14386:14404   */\n      0x556e7472616365642070726f6475637400000000000000000000000000000000\n        /* \"#utility.yul\":14382:14383   */\n      0x00\n        /* \"#utility.yul\":14374:14380   */\n      dup3\n        /* \"#utility.yul\":14370:14384   */\n      add\n        /* \"#utility.yul\":14363:14405   */\n      mstore\n        /* \"#utility.yul\":14246:14412   */\n      pop\n      jump\t// out\n        /* \"#utility.yul\":14418:14586   */\n    tag_213:\n        /* \"#utility.yul\":14558:14578   */\n      0x446576696365206e6f742070726573656e740000000000000000000000000000\n        /* \"#utility.yul\":14554:14555   */\n      0x00\n        /* \"#utility.yul\":14546:14552   */\n      dup3\n        /* \"#utility.yul\":14542:14556   */\n      add\n        /* \"#utility.yul\":14535:14579   */\n      mstore\n        /* \"#utility.yul\":14418:14586   */\n      pop\n      jump\t// out\n\n    auxdata: 0xa2646970667358221220bdaba2238426c7929070bc1e4b2db8817bdf85c2209dbd14110d10e6d33e0fa764736f6c63430008070033\n}\n",
				"bytecode": {
					"linkReferences": {},
					"object": "608060405260008060006101000a81548160ff021916908360ff16021790555034801561002b57600080fd5b506111708061003b6000396000f3fe608060405234801561001057600080fd5b506004361061004c5760003560e01c8063ab269de514610051578063be1c766b1461005b578063c9a124b714610065578063dafb4ef714610081575b600080fd5b61005961009d565b005b6100636101fe565b005b61007f600480360381019061007a9190610a5a565b61023c565b005b61009b60048036038101906100969190610a11565b610482565b005b6000600280549050116100e5576040517f08c379a00000000000000000000000000000000000000000000000000000000081526004016100dc90610ddb565b60405180910390fd5b60005b6002805490508110156101fb577f12748e7427420be67153e4a944d976bbfc3035c580d8f7fb9982725ac71ba2af6002828154811061012a57610129611062565b5b90600052602060002090600502016000016002838154811061014f5761014e611062565b5b90600052602060002090600502016001016002848154811061017457610173611062565b5b90600052602060002090600502016002016002858154811061019957610198611062565b5b9060005260206000209060050201600301600286815481106101be576101bd611062565b5b90600052602060002090600502016004016040516101e0959493929190610d65565b60405180910390a180806101f390610fbb565b9150506100e8565b50565b7f11faa32eb71008ea8a2443858afc5f1c2dc6531f38c8f495c2386728486176446002805490506040516102329190610e1b565b60405180910390a1565b60008190506040518060a00160405280878152602001868152602001858152602001848152602001838152506001826040516102789190610cc3565b908152602001604051809103902060008201518160000190805190602001906102a2929190610871565b5060208201518160010190805190602001906102bf929190610871565b5060408201518160020190805190602001906102dc929190610871565b5060608201518160030190805190602001906102f9929190610871565b506080820151816004019080519060200190610316929190610871565b50905050600260018260405161032c9190610cc3565b90815260200160405180910390209080600181540180825580915050600190039060005260206000209060050201600090919091909150600082018160000190805461037790610f58565b6103829291906108f7565b50600182018160010190805461039790610f58565b6103a29291906108f7565b5060028201816002019080546103b790610f58565b6103c29291906108f7565b5060038201816003019080546103d790610f58565b6103e29291906108f7565b5060048201816004019080546103f790610f58565b6104029291906108f7565b5050507f7eabfb4c1444a9a544eac109c3192cfa3836d35623a8847ec44b3f8774ebd9b6868686868660405161043c959493929190610cef565b60405180910390a160016000808282829054906101000a900460ff166104629190610ec8565b92506101000a81548160ff021916908360ff160217905550505050505050565b60006001826040516104949190610cc3565b90815260200160405180910390206040518060a00160405290816000820180546104bd90610f58565b80601f01602080910402602001604051908101604052809291908181526020018280546104e990610f58565b80156105365780601f1061050b57610100808354040283529160200191610536565b820191906000526020600020905b81548152906001019060200180831161051957829003601f168201915b5050505050815260200160018201805461054f90610f58565b80601f016020809104026020016040519081016040528092919081815260200182805461057b90610f58565b80156105c85780601f1061059d576101008083540402835291602001916105c8565b820191906000526020600020905b8154815290600101906020018083116105ab57829003601f168201915b505050505081526020016002820180546105e190610f58565b80601f016020809104026020016040519081016040528092919081815260200182805461060d90610f58565b801561065a5780601f1061062f5761010080835404028352916020019161065a565b820191906000526020600020905b81548152906001019060200180831161063d57829003601f168201915b5050505050815260200160038201805461067390610f58565b80601f016020809104026020016040519081016040528092919081815260200182805461069f90610f58565b80156106ec5780601f106106c1576101008083540402835291602001916106ec565b820191906000526020600020905b8154815290600101906020018083116106cf57829003601f168201915b5050505050815260200160048201805461070590610f58565b80601f016020809104026020016040519081016040528092919081815260200182805461073190610f58565b801561077e5780601f106107535761010080835404028352916020019161077e565b820191906000526020600020905b81548152906001019060200180831161076157829003601f168201915b505050505081525050905060405160200161079890610cda565b6040516020818303038152906040528051906020012081606001516040516020016107c39190610cc3565b60405160208183030381529060405280519060200120141561081a576040517f08c379a000000000000000000000000000000000000000000000000000000000815260040161081190610dfb565b60405180910390fd5b7f12748e7427420be67153e4a944d976bbfc3035c580d8f7fb9982725ac71ba2af81600001518260200151836040015184606001518560800151604051610865959493929190610cef565b60405180910390a15050565b82805461087d90610f58565b90600052602060002090601f01602090048101928261089f57600085556108e6565b82601f106108b857805160ff19168380011785556108e6565b828001600101855582156108e6579182015b828111156108e55782518255916020019190600101906108ca565b5b5090506108f39190610984565b5090565b82805461090390610f58565b90600052602060002090601f0160209004810192826109255760008555610973565b82601f106109365780548555610973565b8280016001018555821561097357600052602060002091601f016020900482015b82811115610972578254825591600101919060010190610957565b5b5090506109809190610984565b5090565b5b8082111561099d576000816000905550600101610985565b5090565b60006109b46109af84610e5b565b610e36565b9050828152602081018484840111156109d0576109cf6110c5565b5b6109db848285610f16565b509392505050565b600082601f8301126109f8576109f76110c0565b5b8135610a088482602086016109a1565b91505092915050565b600060208284031215610a2757610a266110cf565b5b600082013567ffffffffffffffff811115610a4557610a446110ca565b5b610a51848285016109e3565b91505092915050565b600080600080600060a08688031215610a7657610a756110cf565b5b600086013567ffffffffffffffff811115610a9457610a936110ca565b5b610aa0888289016109e3565b955050602086013567ffffffffffffffff811115610ac157610ac06110ca565b5b610acd888289016109e3565b945050604086013567ffffffffffffffff811115610aee57610aed6110ca565b5b610afa888289016109e3565b935050606086013567ffffffffffffffff811115610b1b57610b1a6110ca565b5b610b27888289016109e3565b925050608086013567ffffffffffffffff811115610b4857610b476110ca565b5b610b54888289016109e3565b9150509295509295909350565b6000610b6c82610ea1565b610b768185610eac565b9350610b86818560208601610f25565b610b8f816110d4565b840191505092915050565b6000610ba582610ea1565b610baf8185610ebd565b9350610bbf818560208601610f25565b80840191505092915050565b60008154610bd881610f58565b610be28186610eac565b94506001821660008114610bfd5760018114610c0f57610c42565b60ff1983168652602086019350610c42565b610c1885610e8c565b60005b83811015610c3a57815481890152600182019150602081019050610c1b565b808801955050505b50505092915050565b6000610c58600083610ebd565b9150610c63826110e5565b600082019050919050565b6000610c7b601083610eac565b9150610c86826110e8565b602082019050919050565b6000610c9e601283610eac565b9150610ca982611111565b602082019050919050565b610cbd81610f09565b82525050565b6000610ccf8284610b9a565b915081905092915050565b6000610ce582610c4b565b9150819050919050565b600060a0820190508181036000830152610d098188610b61565b90508181036020830152610d1d8187610b61565b90508181036040830152610d318186610b61565b90508181036060830152610d458185610b61565b90508181036080830152610d598184610b61565b90509695505050505050565b600060a0820190508181036000830152610d7f8188610bcb565b90508181036020830152610d938187610bcb565b90508181036040830152610da78186610bcb565b90508181036060830152610dbb8185610bcb565b90508181036080830152610dcf8184610bcb565b90509695505050505050565b60006020820190508181036000830152610df481610c6e565b9050919050565b60006020820190508181036000830152610e1481610c91565b9050919050565b6000602082019050610e306000830184610cb4565b92915050565b6000610e40610e51565b9050610e4c8282610f8a565b919050565b6000604051905090565b600067ffffffffffffffff821115610e7657610e75611091565b5b610e7f826110d4565b9050602081019050919050565b60008190508160005260206000209050919050565b600081519050919050565b600082825260208201905092915050565b600081905092915050565b6000610ed382610f09565b9150610ede83610f09565b92508260ff03821115610ef457610ef3611004565b5b828201905092915050565b6000819050919050565b600060ff82169050919050565b82818337600083830152505050565b60005b83811015610f43578082015181840152602081019050610f28565b83811115610f52576000848401525b50505050565b60006002820490506001821680610f7057607f821691505b60208210811415610f8457610f83611033565b5b50919050565b610f93826110d4565b810181811067ffffffffffffffff82111715610fb257610fb1611091565b5b80604052505050565b6000610fc682610eff565b91507fffffffffffffffffffffffffffffffffffffffffffffffffffffffffffffffff821415610ff957610ff8611004565b5b600182019050919050565b7f4e487b7100000000000000000000000000000000000000000000000000000000600052601160045260246000fd5b7f4e487b7100000000000000000000000000000000000000000000000000000000600052602260045260246000fd5b7f4e487b7100000000000000000000000000000000000000000000000000000000600052603260045260246000fd5b7f4e487b7100000000000000000000000000000000000000000000000000000000600052604160045260246000fd5b600080fd5b600080fd5b600080fd5b600080fd5b6000601f19601f8301169050919050565b50565b7f556e7472616365642070726f6475637400000000000000000000000000000000600082015250565b7f446576696365206e6f742070726573656e74000000000000000000000000000060008201525056fea2646970667358221220bdaba2238426c7929070bc1e4b2db8817bdf85c2209dbd14110d10e6d33e0fa764736f6c63430008070033",
					"opcodes": "PUSH1 0x80 PUSH1 0x40 MSTORE PUSH1 0x0 DUP1 PUSH1 0x0 PUSH2 0x100 EXP DUP2 SLOAD DUP2 PUSH1 0xFF MUL NOT AND SWAP1 DUP4 PUSH1 0xFF AND MUL OR SWAP1 SSTORE POP CALLVALUE DUP1 ISZERO PUSH2 0x2B JUMPI PUSH1 0x0 DUP1 REVERT JUMPDEST POP PUSH2 0x1170 DUP1 PUSH2 0x3B PUSH1 0x0 CODECOPY PUSH1 0x0 RETURN INVALID PUSH1 0x80 PUSH1 0x40 MSTORE CALLVALUE DUP1 ISZERO PUSH2 0x10 JUMPI PUSH1 0x0 DUP1 REVERT JUMPDEST POP PUSH1 0x4 CALLDATASIZE LT PUSH2 0x4C JUMPI PUSH1 0x0 CALLDATALOAD PUSH1 0xE0 SHR DUP1 PUSH4 0xAB269DE5 EQ PUSH2 0x51 JUMPI DUP1 PUSH4 0xBE1C766B EQ PUSH2 0x5B JUMPI DUP1 PUSH4 0xC9A124B7 EQ PUSH2 0x65 JUMPI DUP1 PUSH4 0xDAFB4EF7 EQ PUSH2 0x81 JUMPI JUMPDEST PUSH1 0x0 DUP1 REVERT JUMPDEST PUSH2 0x59 PUSH2 0x9D JUMP JUMPDEST STOP JUMPDEST PUSH2 0x63 PUSH2 0x1FE JUMP JUMPDEST STOP JUMPDEST PUSH2 0x7F PUSH1 0x4 DUP1 CALLDATASIZE SUB DUP2 ADD SWAP1 PUSH2 0x7A SWAP2 SWAP1 PUSH2 0xA5A JUMP JUMPDEST PUSH2 0x23C JUMP JUMPDEST STOP JUMPDEST PUSH2 0x9B PUSH1 0x4 DUP1 CALLDATASIZE SUB DUP2 ADD SWAP1 PUSH2 0x96 SWAP2 SWAP1 PUSH2 0xA11 JUMP JUMPDEST PUSH2 0x482 JUMP JUMPDEST STOP JUMPDEST PUSH1 0x0 PUSH1 0x2 DUP1 SLOAD SWAP1 POP GT PUSH2 0xE5 JUMPI PUSH1 0x40 MLOAD PUSH32 0x8C379A000000000000000000000000000000000000000000000000000000000 DUP2 MSTORE PUSH1 0x4 ADD PUSH2 0xDC SWAP1 PUSH2 0xDDB JUMP JUMPDEST PUSH1 0x40 MLOAD DUP1 SWAP2 SUB SWAP1 REVERT JUMPDEST PUSH1 0x0 JUMPDEST PUSH1 0x2 DUP1 SLOAD SWAP1 POP DUP2 LT ISZERO PUSH2 0x1FB JUMPI PUSH32 0x12748E7427420BE67153E4A944D976BBFC3035C580D8F7FB9982725AC71BA2AF PUSH1 0x2 DUP3 DUP2 SLOAD DUP2 LT PUSH2 0x12A JUMPI PUSH2 0x129 PUSH2 0x1062 JUMP JUMPDEST JUMPDEST SWAP1 PUSH1 0x0 MSTORE PUSH1 0x20 PUSH1 0x0 KECCAK256 SWAP1 PUSH1 0x5 MUL ADD PUSH1 0x0 ADD PUSH1 0x2 DUP4 DUP2 SLOAD DUP2 LT PUSH2 0x14F JUMPI PUSH2 0x14E PUSH2 0x1062 JUMP JUMPDEST JUMPDEST SWAP1 PUSH1 0x0 MSTORE PUSH1 0x20 PUSH1 0x0 KECCAK256 SWAP1 PUSH1 0x5 MUL ADD PUSH1 0x1 ADD PUSH1 0x2 DUP5 DUP2 SLOAD DUP2 LT PUSH2 0x174 JUMPI PUSH2 0x173 PUSH2 0x1062 JUMP JUMPDEST JUMPDEST SWAP1 PUSH1 0x0 MSTORE PUSH1 0x20 PUSH1 0x0 KECCAK256 SWAP1 PUSH1 0x5 MUL ADD PUSH1 0x2 ADD PUSH1 0x2 DUP6 DUP2 SLOAD DUP2 LT PUSH2 0x199 JUMPI PUSH2 0x198 PUSH2 0x1062 JUMP JUMPDEST JUMPDEST SWAP1 PUSH1 0x0 MSTORE PUSH1 0x20 PUSH1 0x0 KECCAK256 SWAP1 PUSH1 0x5 MUL ADD PUSH1 0x3 ADD PUSH1 0x2 DUP7 DUP2 SLOAD DUP2 LT PUSH2 0x1BE JUMPI PUSH2 0x1BD PUSH2 0x1062 JUMP JUMPDEST JUMPDEST SWAP1 PUSH1 0x0 MSTORE PUSH1 0x20 PUSH1 0x0 KECCAK256 SWAP1 PUSH1 0x5 MUL ADD PUSH1 0x4 ADD PUSH1 0x40 MLOAD PUSH2 0x1E0 SWAP6 SWAP5 SWAP4 SWAP3 SWAP2 SWAP1 PUSH2 0xD65 JUMP JUMPDEST PUSH1 0x40 MLOAD DUP1 SWAP2 SUB SWAP1 LOG1 DUP1 DUP1 PUSH2 0x1F3 SWAP1 PUSH2 0xFBB JUMP JUMPDEST SWAP2 POP POP PUSH2 0xE8 JUMP JUMPDEST POP JUMP JUMPDEST PUSH32 0x11FAA32EB71008EA8A2443858AFC5F1C2DC6531F38C8F495C238672848617644 PUSH1 0x2 DUP1 SLOAD SWAP1 POP PUSH1 0x40 MLOAD PUSH2 0x232 SWAP2 SWAP1 PUSH2 0xE1B JUMP JUMPDEST PUSH1 0x40 MLOAD DUP1 SWAP2 SUB SWAP1 LOG1 JUMP JUMPDEST PUSH1 0x0 DUP2 SWAP1 POP PUSH1 0x40 MLOAD DUP1 PUSH1 0xA0 ADD PUSH1 0x40 MSTORE DUP1 DUP8 DUP2 MSTORE PUSH1 0x20 ADD DUP7 DUP2 MSTORE PUSH1 0x20 ADD DUP6 DUP2 MSTORE PUSH1 0x20 ADD DUP5 DUP2 MSTORE PUSH1 0x20 ADD DUP4 DUP2 MSTORE POP PUSH1 0x1 DUP3 PUSH1 0x40 MLOAD PUSH2 0x278 SWAP2 SWAP1 PUSH2 0xCC3 JUMP JUMPDEST SWAP1 DUP2 MSTORE PUSH1 0x20 ADD PUSH1 0x40 MLOAD DUP1 SWAP2 SUB SWAP1 KECCAK256 PUSH1 0x0 DUP3 ADD MLOAD DUP2 PUSH1 0x0 ADD SWAP1 DUP1 MLOAD SWAP1 PUSH1 0x20 ADD SWAP1 PUSH2 0x2A2 SWAP3 SWAP2 SWAP1 PUSH2 0x871 JUMP JUMPDEST POP PUSH1 0x20 DUP3 ADD MLOAD DUP2 PUSH1 0x1 ADD SWAP1 DUP1 MLOAD SWAP1 PUSH1 0x20 ADD SWAP1 PUSH2 0x2BF SWAP3 SWAP2 SWAP1 PUSH2 0x871 JUMP JUMPDEST POP PUSH1 0x40 DUP3 ADD MLOAD DUP2 PUSH1 0x2 ADD SWAP1 DUP1 MLOAD SWAP1 PUSH1 0x20 ADD SWAP1 PUSH2 0x2DC SWAP3 SWAP2 SWAP1 PUSH2 0x871 JUMP JUMPDEST POP PUSH1 0x60 DUP3 ADD MLOAD DUP2 PUSH1 0x3 ADD SWAP1 DUP1 MLOAD SWAP1 PUSH1 0x20 ADD SWAP1 PUSH2 0x2F9 SWAP3 SWAP2 SWAP1 PUSH2 0x871 JUMP JUMPDEST POP PUSH1 0x80 DUP3 ADD MLOAD DUP2 PUSH1 0x4 ADD SWAP1 DUP1 MLOAD SWAP1 PUSH1 0x20 ADD SWAP1 PUSH2 0x316 SWAP3 SWAP2 SWAP1 PUSH2 0x871 JUMP JUMPDEST POP SWAP1 POP POP PUSH1 0x2 PUSH1 0x1 DUP3 PUSH1 0x40 MLOAD PUSH2 0x32C SWAP2 SWAP1 PUSH2 0xCC3 JUMP JUMPDEST SWAP1 DUP2 MSTORE PUSH1 0x20 ADD PUSH1 0x40 MLOAD DUP1 SWAP2 SUB SWAP1 KECCAK256 SWAP1 DUP1 PUSH1 0x1 DUP2 SLOAD ADD DUP1 DUP3 SSTORE DUP1 SWAP2 POP POP PUSH1 0x1 SWAP1 SUB SWAP1 PUSH1 0x0 MSTORE PUSH1 0x20 PUSH1 0x0 KECCAK256 SWAP1 PUSH1 0x5 MUL ADD PUSH1 0x0 SWAP1 SWAP2 SWAP1 SWAP2 SWAP1 SWAP2 POP PUSH1 0x0 DUP3 ADD DUP2 PUSH1 0x0 ADD SWAP1 DUP1 SLOAD PUSH2 0x377 SWAP1 PUSH2 0xF58 JUMP JUMPDEST PUSH2 0x382 SWAP3 SWAP2 SWAP1 PUSH2 0x8F7 JUMP JUMPDEST POP PUSH1 0x1 DUP3 ADD DUP2 PUSH1 0x1 ADD SWAP1 DUP1 SLOAD PUSH2 0x397 SWAP1 PUSH2 0xF58 JUMP JUMPDEST PUSH2 0x3A2 SWAP3 SWAP2 SWAP1 PUSH2 0x8F7 JUMP JUMPDEST POP PUSH1 0x2 DUP3 ADD DUP2 PUSH1 0x2 ADD SWAP1 DUP1 SLOAD PUSH2 0x3B7 SWAP1 PUSH2 0xF58 JUMP JUMPDEST PUSH2 0x3C2 SWAP3 SWAP2 SWAP1 PUSH2 0x8F7 JUMP JUMPDEST POP PUSH1 0x3 DUP3 ADD DUP2 PUSH1 0x3 ADD SWAP1 DUP1 SLOAD PUSH2 0x3D7 SWAP1 PUSH2 0xF58 JUMP JUMPDEST PUSH2 0x3E2 SWAP3 SWAP2 SWAP1 PUSH2 0x8F7 JUMP JUMPDEST POP PUSH1 0x4 DUP3 ADD DUP2 PUSH1 0x4 ADD SWAP1 DUP1 SLOAD PUSH2 0x3F7 SWAP1 PUSH2 0xF58 JUMP JUMPDEST PUSH2 0x402 SWAP3 SWAP2 SWAP1 PUSH2 0x8F7 JUMP JUMPDEST POP POP POP PUSH32 0x7EABFB4C1444A9A544EAC109C3192CFA3836D35623A8847EC44B3F8774EBD9B6 DUP7 DUP7 DUP7 DUP7 DUP7 PUSH1 0x40 MLOAD PUSH2 0x43C SWAP6 SWAP5 SWAP4 SWAP3 SWAP2 SWAP1 PUSH2 0xCEF JUMP JUMPDEST PUSH1 0x40 MLOAD DUP1 SWAP2 SUB SWAP1 LOG1 PUSH1 0x1 PUSH1 0x0 DUP1 DUP3 DUP3 DUP3 SWAP1 SLOAD SWAP1 PUSH2 0x100 EXP SWAP1 DIV PUSH1 0xFF AND PUSH2 0x462 SWAP2 SWAP1 PUSH2 0xEC8 JUMP JUMPDEST SWAP3 POP PUSH2 0x100 EXP DUP2 SLOAD DUP2 PUSH1 0xFF MUL NOT AND SWAP1 DUP4 PUSH1 0xFF AND MUL OR SWAP1 SSTORE POP POP POP POP POP POP POP JUMP JUMPDEST PUSH1 0x0 PUSH1 0x1 DUP3 PUSH1 0x40 MLOAD PUSH2 0x494 SWAP2 SWAP1 PUSH2 0xCC3 JUMP JUMPDEST SWAP1 DUP2 MSTORE PUSH1 0x20 ADD PUSH1 0x40 MLOAD DUP1 SWAP2 SUB SWAP1 KECCAK256 PUSH1 0x40 MLOAD DUP1 PUSH1 0xA0 ADD PUSH1 0x40 MSTORE SWAP1 DUP2 PUSH1 0x0 DUP3 ADD DUP1 SLOAD PUSH2 0x4BD SWAP1 PUSH2 0xF58 JUMP JUMPDEST DUP1 PUSH1 0x1F ADD PUSH1 0x20 DUP1 SWAP2 DIV MUL PUSH1 0x20 ADD PUSH1 0x40 MLOAD SWAP1 DUP2 ADD PUSH1 0x40 MSTORE DUP1 SWAP3 SWAP2 SWAP1 DUP2 DUP2 MSTORE PUSH1 0x20 ADD DUP3 DUP1 SLOAD PUSH2 0x4E9 SWAP1 PUSH2 0xF58 JUMP JUMPDEST DUP1 ISZERO PUSH2 0x536 JUMPI DUP1 PUSH1 0x1F LT PUSH2 0x50B JUMPI PUSH2 0x100 DUP1 DUP4 SLOAD DIV MUL DUP4 MSTORE SWAP2 PUSH1 0x20 ADD SWAP2 PUSH2 0x536 JUMP JUMPDEST DUP3 ADD SWAP2 SWAP1 PUSH1 0x0 MSTORE PUSH1 0x20 PUSH1 0x0 KECCAK256 SWAP1 JUMPDEST DUP2 SLOAD DUP2 MSTORE SWAP1 PUSH1 0x1 ADD SWAP1 PUSH1 0x20 ADD DUP1 DUP4 GT PUSH2 0x519 JUMPI DUP3 SWAP1 SUB PUSH1 0x1F AND DUP3 ADD SWAP2 JUMPDEST POP POP POP POP POP DUP2 MSTORE PUSH1 0x20 ADD PUSH1 0x1 DUP3 ADD DUP1 SLOAD PUSH2 0x54F SWAP1 PUSH2 0xF58 JUMP JUMPDEST DUP1 PUSH1 0x1F ADD PUSH1 0x20 DUP1 SWAP2 DIV MUL PUSH1 0x20 ADD PUSH1 0x40 MLOAD SWAP1 DUP2 ADD PUSH1 0x40 MSTORE DUP1 SWAP3 SWAP2 SWAP1 DUP2 DUP2 MSTORE PUSH1 0x20 ADD DUP3 DUP1 SLOAD PUSH2 0x57B SWAP1 PUSH2 0xF58 JUMP JUMPDEST DUP1 ISZERO PUSH2 0x5C8 JUMPI DUP1 PUSH1 0x1F LT PUSH2 0x59D JUMPI PUSH2 0x100 DUP1 DUP4 SLOAD DIV MUL DUP4 MSTORE SWAP2 PUSH1 0x20 ADD SWAP2 PUSH2 0x5C8 JUMP JUMPDEST DUP3 ADD SWAP2 SWAP1 PUSH1 0x0 MSTORE PUSH1 0x20 PUSH1 0x0 KECCAK256 SWAP1 JUMPDEST DUP2 SLOAD DUP2 MSTORE SWAP1 PUSH1 0x1 ADD SWAP1 PUSH1 0x20 ADD DUP1 DUP4 GT PUSH2 0x5AB JUMPI DUP3 SWAP1 SUB PUSH1 0x1F AND DUP3 ADD SWAP2 JUMPDEST POP POP POP POP POP DUP2 MSTORE PUSH1 0x20 ADD PUSH1 0x2 DUP3 ADD DUP1 SLOAD PUSH2 0x5E1 SWAP1 PUSH2 0xF58 JUMP JUMPDEST DUP1 PUSH1 0x1F ADD PUSH1 0x20 DUP1 SWAP2 DIV MUL PUSH1 0x20 ADD PUSH1 0x40 MLOAD SWAP1 DUP2 ADD PUSH1 0x40 MSTORE DUP1 SWAP3 SWAP2 SWAP1 DUP2 DUP2 MSTORE PUSH1 0x20 ADD DUP3 DUP1 SLOAD PUSH2 0x60D SWAP1 PUSH2 0xF58 JUMP JUMPDEST DUP1 ISZERO PUSH2 0x65A JUMPI DUP1 PUSH1 0x1F LT PUSH2 0x62F JUMPI PUSH2 0x100 DUP1 DUP4 SLOAD DIV MUL DUP4 MSTORE SWAP2 PUSH1 0x20 ADD SWAP2 PUSH2 0x65A JUMP JUMPDEST DUP3 ADD SWAP2 SWAP1 PUSH1 0x0 MSTORE PUSH1 0x20 PUSH1 0x0 KECCAK256 SWAP1 JUMPDEST DUP2 SLOAD DUP2 MSTORE SWAP1 PUSH1 0x1 ADD SWAP1 PUSH1 0x20 ADD DUP1 DUP4 GT PUSH2 0x63D JUMPI DUP3 SWAP1 SUB PUSH1 0x1F AND DUP3 ADD SWAP2 JUMPDEST POP POP POP POP POP DUP2 MSTORE PUSH1 0x20 ADD PUSH1 0x3 DUP3 ADD DUP1 SLOAD PUSH2 0x673 SWAP1 PUSH2 0xF58 JUMP JUMPDEST DUP1 PUSH1 0x1F ADD PUSH1 0x20 DUP1 SWAP2 DIV MUL PUSH1 0x20 ADD PUSH1 0x40 MLOAD SWAP1 DUP2 ADD PUSH1 0x40 MSTORE DUP1 SWAP3 SWAP2 SWAP1 DUP2 DUP2 MSTORE PUSH1 0x20 ADD DUP3 DUP1 SLOAD PUSH2 0x69F SWAP1 PUSH2 0xF58 JUMP JUMPDEST DUP1 ISZERO PUSH2 0x6EC JUMPI DUP1 PUSH1 0x1F LT PUSH2 0x6C1 JUMPI PUSH2 0x100 DUP1 DUP4 SLOAD DIV MUL DUP4 MSTORE SWAP2 PUSH1 0x20 ADD SWAP2 PUSH2 0x6EC JUMP JUMPDEST DUP3 ADD SWAP2 SWAP1 PUSH1 0x0 MSTORE PUSH1 0x20 PUSH1 0x0 KECCAK256 SWAP1 JUMPDEST DUP2 SLOAD DUP2 MSTORE SWAP1 PUSH1 0x1 ADD SWAP1 PUSH1 0x20 ADD DUP1 DUP4 GT PUSH2 0x6CF JUMPI DUP3 SWAP1 SUB PUSH1 0x1F AND DUP3 ADD SWAP2 JUMPDEST POP POP POP POP POP DUP2 MSTORE PUSH1 0x20 ADD PUSH1 0x4 DUP3 ADD DUP1 SLOAD PUSH2 0x705 SWAP1 PUSH2 0xF58 JUMP JUMPDEST DUP1 PUSH1 0x1F ADD PUSH1 0x20 DUP1 SWAP2 DIV MUL PUSH1 0x20 ADD PUSH1 0x40 MLOAD SWAP1 DUP2 ADD PUSH1 0x40 MSTORE DUP1 SWAP3 SWAP2 SWAP1 DUP2 DUP2 MSTORE PUSH1 0x20 ADD DUP3 DUP1 SLOAD PUSH2 0x731 SWAP1 PUSH2 0xF58 JUMP JUMPDEST DUP1 ISZERO PUSH2 0x77E JUMPI DUP1 PUSH1 0x1F LT PUSH2 0x753 JUMPI PUSH2 0x100 DUP1 DUP4 SLOAD DIV MUL DUP4 MSTORE SWAP2 PUSH1 0x20 ADD SWAP2 PUSH2 0x77E JUMP JUMPDEST DUP3 ADD SWAP2 SWAP1 PUSH1 0x0 MSTORE PUSH1 0x20 PUSH1 0x0 KECCAK256 SWAP1 JUMPDEST DUP2 SLOAD DUP2 MSTORE SWAP1 PUSH1 0x1 ADD SWAP1 PUSH1 0x20 ADD DUP1 DUP4 GT PUSH2 0x761 JUMPI DUP3 SWAP1 SUB PUSH1 0x1F AND DUP3 ADD SWAP2 JUMPDEST POP POP POP POP POP DUP2 MSTORE POP POP SWAP1 POP PUSH1 0x40 MLOAD PUSH1 0x20 ADD PUSH2 0x798 SWAP1 PUSH2 0xCDA JUMP JUMPDEST PUSH1 0x40 MLOAD PUSH1 0x20 DUP2 DUP4 SUB SUB DUP2 MSTORE SWAP1 PUSH1 0x40 MSTORE DUP1 MLOAD SWAP1 PUSH1 0x20 ADD KECCAK256 DUP2 PUSH1 0x60 ADD MLOAD PUSH1 0x40 MLOAD PUSH1 0x20 ADD PUSH2 0x7C3 SWAP2 SWAP1 PUSH2 0xCC3 JUMP JUMPDEST PUSH1 0x40 MLOAD PUSH1 0x20 DUP2 DUP4 SUB SUB DUP2 MSTORE SWAP1 PUSH1 0x40 MSTORE DUP1 MLOAD SWAP1 PUSH1 0x20 ADD KECCAK256 EQ ISZERO PUSH2 0x81A JUMPI PUSH1 0x40 MLOAD PUSH32 0x8C379A000000000000000000000000000000000000000000000000000000000 DUP2 MSTORE PUSH1 0x4 ADD PUSH2 0x811 SWAP1 PUSH2 0xDFB JUMP JUMPDEST PUSH1 0x40 MLOAD DUP1 SWAP2 SUB SWAP1 REVERT JUMPDEST PUSH32 0x12748E7427420BE67153E4A944D976BBFC3035C580D8F7FB9982725AC71BA2AF DUP2 PUSH1 0x0 ADD MLOAD DUP3 PUSH1 0x20 ADD MLOAD DUP4 PUSH1 0x40 ADD MLOAD DUP5 PUSH1 0x60 ADD MLOAD DUP6 PUSH1 0x80 ADD MLOAD PUSH1 0x40 MLOAD PUSH2 0x865 SWAP6 SWAP5 SWAP4 SWAP3 SWAP2 SWAP1 PUSH2 0xCEF JUMP JUMPDEST PUSH1 0x40 MLOAD DUP1 SWAP2 SUB SWAP1 LOG1 POP POP JUMP JUMPDEST DUP3 DUP1 SLOAD PUSH2 0x87D SWAP1 PUSH2 0xF58 JUMP JUMPDEST SWAP1 PUSH1 0x0 MSTORE PUSH1 0x20 PUSH1 0x0 KECCAK256 SWAP1 PUSH1 0x1F ADD PUSH1 0x20 SWAP1 DIV DUP2 ADD SWAP3 DUP3 PUSH2 0x89F JUMPI PUSH1 0x0 DUP6 SSTORE PUSH2 0x8E6 JUMP JUMPDEST DUP3 PUSH1 0x1F LT PUSH2 0x8B8 JUMPI DUP1 MLOAD PUSH1 0xFF NOT AND DUP4 DUP1 ADD OR DUP6 SSTORE PUSH2 0x8E6 JUMP JUMPDEST DUP3 DUP1 ADD PUSH1 0x1 ADD DUP6 SSTORE DUP3 ISZERO PUSH2 0x8E6 JUMPI SWAP2 DUP3 ADD JUMPDEST DUP3 DUP2 GT ISZERO PUSH2 0x8E5 JUMPI DUP3 MLOAD DUP3 SSTORE SWAP2 PUSH1 0x20 ADD SWAP2 SWAP1 PUSH1 0x1 ADD SWAP1 PUSH2 0x8CA JUMP JUMPDEST JUMPDEST POP SWAP1 POP PUSH2 0x8F3 SWAP2 SWAP1 PUSH2 0x984 JUMP JUMPDEST POP SWAP1 JUMP JUMPDEST DUP3 DUP1 SLOAD PUSH2 0x903 SWAP1 PUSH2 0xF58 JUMP JUMPDEST SWAP1 PUSH1 0x0 MSTORE PUSH1 0x20 PUSH1 0x0 KECCAK256 SWAP1 PUSH1 0x1F ADD PUSH1 0x20 SWAP1 DIV DUP2 ADD SWAP3 DUP3 PUSH2 0x925 JUMPI PUSH1 0x0 DUP6 SSTORE PUSH2 0x973 JUMP JUMPDEST DUP3 PUSH1 0x1F LT PUSH2 0x936 JUMPI DUP1 SLOAD DUP6 SSTORE PUSH2 0x973 JUMP JUMPDEST DUP3 DUP1 ADD PUSH1 0x1 ADD DUP6 SSTORE DUP3 ISZERO PUSH2 0x973 JUMPI PUSH1 0x0 MSTORE PUSH1 0x20 PUSH1 0x0 KECCAK256 SWAP2 PUSH1 0x1F ADD PUSH1 0x20 SWAP1 DIV DUP3 ADD JUMPDEST DUP3 DUP2 GT ISZERO PUSH2 0x972 JUMPI DUP3 SLOAD DUP3 SSTORE SWAP2 PUSH1 0x1 ADD SWAP2 SWAP1 PUSH1 0x1 ADD SWAP1 PUSH2 0x957 JUMP JUMPDEST JUMPDEST POP SWAP1 POP PUSH2 0x980 SWAP2 SWAP1 PUSH2 0x984 JUMP JUMPDEST POP SWAP1 JUMP JUMPDEST JUMPDEST DUP1 DUP3 GT ISZERO PUSH2 0x99D JUMPI PUSH1 0x0 DUP2 PUSH1 0x0 SWAP1 SSTORE POP PUSH1 0x1 ADD PUSH2 0x985 JUMP JUMPDEST POP SWAP1 JUMP JUMPDEST PUSH1 0x0 PUSH2 0x9B4 PUSH2 0x9AF DUP5 PUSH2 0xE5B JUMP JUMPDEST PUSH2 0xE36 JUMP JUMPDEST SWAP1 POP DUP3 DUP2 MSTORE PUSH1 0x20 DUP2 ADD DUP5 DUP5 DUP5 ADD GT ISZERO PUSH2 0x9D0 JUMPI PUSH2 0x9CF PUSH2 0x10C5 JUMP JUMPDEST JUMPDEST PUSH2 0x9DB DUP5 DUP3 DUP6 PUSH2 0xF16 JUMP JUMPDEST POP SWAP4 SWAP3 POP POP POP JUMP JUMPDEST PUSH1 0x0 DUP3 PUSH1 0x1F DUP4 ADD SLT PUSH2 0x9F8 JUMPI PUSH2 0x9F7 PUSH2 0x10C0 JUMP JUMPDEST JUMPDEST DUP2 CALLDATALOAD PUSH2 0xA08 DUP5 DUP3 PUSH1 0x20 DUP7 ADD PUSH2 0x9A1 JUMP JUMPDEST SWAP2 POP POP SWAP3 SWAP2 POP POP JUMP JUMPDEST PUSH1 0x0 PUSH1 0x20 DUP3 DUP5 SUB SLT ISZERO PUSH2 0xA27 JUMPI PUSH2 0xA26 PUSH2 0x10CF JUMP JUMPDEST JUMPDEST PUSH1 0x0 DUP3 ADD CALLDATALOAD PUSH8 0xFFFFFFFFFFFFFFFF DUP2 GT ISZERO PUSH2 0xA45 JUMPI PUSH2 0xA44 PUSH2 0x10CA JUMP JUMPDEST JUMPDEST PUSH2 0xA51 DUP5 DUP3 DUP6 ADD PUSH2 0x9E3 JUMP JUMPDEST SWAP2 POP POP SWAP3 SWAP2 POP POP JUMP JUMPDEST PUSH1 0x0 DUP1 PUSH1 0x0 DUP1 PUSH1 0x0 PUSH1 0xA0 DUP7 DUP9 SUB SLT ISZERO PUSH2 0xA76 JUMPI PUSH2 0xA75 PUSH2 0x10CF JUMP JUMPDEST JUMPDEST PUSH1 0x0 DUP7 ADD CALLDATALOAD PUSH8 0xFFFFFFFFFFFFFFFF DUP2 GT ISZERO PUSH2 0xA94 JUMPI PUSH2 0xA93 PUSH2 0x10CA JUMP JUMPDEST JUMPDEST PUSH2 0xAA0 DUP9 DUP3 DUP10 ADD PUSH2 0x9E3 JUMP JUMPDEST SWAP6 POP POP PUSH1 0x20 DUP7 ADD CALLDATALOAD PUSH8 0xFFFFFFFFFFFFFFFF DUP2 GT ISZERO PUSH2 0xAC1 JUMPI PUSH2 0xAC0 PUSH2 0x10CA JUMP JUMPDEST JUMPDEST PUSH2 0xACD DUP9 DUP3 DUP10 ADD PUSH2 0x9E3 JUMP JUMPDEST SWAP5 POP POP PUSH1 0x40 DUP7 ADD CALLDATALOAD PUSH8 0xFFFFFFFFFFFFFFFF DUP2 GT ISZERO PUSH2 0xAEE JUMPI PUSH2 0xAED PUSH2 0x10CA JUMP JUMPDEST JUMPDEST PUSH2 0xAFA DUP9 DUP3 DUP10 ADD PUSH2 0x9E3 JUMP JUMPDEST SWAP4 POP POP PUSH1 0x60 DUP7 ADD CALLDATALOAD PUSH8 0xFFFFFFFFFFFFFFFF DUP2 GT ISZERO PUSH2 0xB1B JUMPI PUSH2 0xB1A PUSH2 0x10CA JUMP JUMPDEST JUMPDEST PUSH2 0xB27 DUP9 DUP3 DUP10 ADD PUSH2 0x9E3 JUMP JUMPDEST SWAP3 POP POP PUSH1 0x80 DUP7 ADD CALLDATALOAD PUSH8 0xFFFFFFFFFFFFFFFF DUP2 GT ISZERO PUSH2 0xB48 JUMPI PUSH2 0xB47 PUSH2 0x10CA JUMP JUMPDEST JUMPDEST PUSH2 0xB54 DUP9 DUP3 DUP10 ADD PUSH2 0x9E3 JUMP JUMPDEST SWAP2 POP POP SWAP3 SWAP6 POP SWAP3 SWAP6 SWAP1 SWAP4 POP JUMP JUMPDEST PUSH1 0x0 PUSH2 0xB6C DUP3 PUSH2 0xEA1 JUMP JUMPDEST PUSH2 0xB76 DUP2 DUP6 PUSH2 0xEAC JUMP JUMPDEST SWAP4 POP PUSH2 0xB86 DUP2 DUP6 PUSH1 0x20 DUP7 ADD PUSH2 0xF25 JUMP JUMPDEST PUSH2 0xB8F DUP2 PUSH2 0x10D4 JUMP JUMPDEST DUP5 ADD SWAP2 POP POP SWAP3 SWAP2 POP POP JUMP JUMPDEST PUSH1 0x0 PUSH2 0xBA5 DUP3 PUSH2 0xEA1 JUMP JUMPDEST PUSH2 0xBAF DUP2 DUP6 PUSH2 0xEBD JUMP JUMPDEST SWAP4 POP PUSH2 0xBBF DUP2 DUP6 PUSH1 0x20 DUP7 ADD PUSH2 0xF25 JUMP JUMPDEST DUP1 DUP5 ADD SWAP2 POP POP SWAP3 SWAP2 POP POP JUMP JUMPDEST PUSH1 0x0 DUP2 SLOAD PUSH2 0xBD8 DUP2 PUSH2 0xF58 JUMP JUMPDEST PUSH2 0xBE2 DUP2 DUP7 PUSH2 0xEAC JUMP JUMPDEST SWAP5 POP PUSH1 0x1 DUP3 AND PUSH1 0x0 DUP2 EQ PUSH2 0xBFD JUMPI PUSH1 0x1 DUP2 EQ PUSH2 0xC0F JUMPI PUSH2 0xC42 JUMP JUMPDEST PUSH1 0xFF NOT DUP4 AND DUP7 MSTORE PUSH1 0x20 DUP7 ADD SWAP4 POP PUSH2 0xC42 JUMP JUMPDEST PUSH2 0xC18 DUP6 PUSH2 0xE8C JUMP JUMPDEST PUSH1 0x0 JUMPDEST DUP4 DUP2 LT ISZERO PUSH2 0xC3A JUMPI DUP2 SLOAD DUP2 DUP10 ADD MSTORE PUSH1 0x1 DUP3 ADD SWAP2 POP PUSH1 0x20 DUP2 ADD SWAP1 POP PUSH2 0xC1B JUMP JUMPDEST DUP1 DUP9 ADD SWAP6 POP POP POP JUMPDEST POP POP POP SWAP3 SWAP2 POP POP JUMP JUMPDEST PUSH1 0x0 PUSH2 0xC58 PUSH1 0x0 DUP4 PUSH2 0xEBD JUMP JUMPDEST SWAP2 POP PUSH2 0xC63 DUP3 PUSH2 0x10E5 JUMP JUMPDEST PUSH1 0x0 DUP3 ADD SWAP1 POP SWAP2 SWAP1 POP JUMP JUMPDEST PUSH1 0x0 PUSH2 0xC7B PUSH1 0x10 DUP4 PUSH2 0xEAC JUMP JUMPDEST SWAP2 POP PUSH2 0xC86 DUP3 PUSH2 0x10E8 JUMP JUMPDEST PUSH1 0x20 DUP3 ADD SWAP1 POP SWAP2 SWAP1 POP JUMP JUMPDEST PUSH1 0x0 PUSH2 0xC9E PUSH1 0x12 DUP4 PUSH2 0xEAC JUMP JUMPDEST SWAP2 POP PUSH2 0xCA9 DUP3 PUSH2 0x1111 JUMP JUMPDEST PUSH1 0x20 DUP3 ADD SWAP1 POP SWAP2 SWAP1 POP JUMP JUMPDEST PUSH2 0xCBD DUP2 PUSH2 0xF09 JUMP JUMPDEST DUP3 MSTORE POP POP JUMP JUMPDEST PUSH1 0x0 PUSH2 0xCCF DUP3 DUP5 PUSH2 0xB9A JUMP JUMPDEST SWAP2 POP DUP2 SWAP1 POP SWAP3 SWAP2 POP POP JUMP JUMPDEST PUSH1 0x0 PUSH2 0xCE5 DUP3 PUSH2 0xC4B JUMP JUMPDEST SWAP2 POP DUP2 SWAP1 POP SWAP2 SWAP1 POP JUMP JUMPDEST PUSH1 0x0 PUSH1 0xA0 DUP3 ADD SWAP1 POP DUP2 DUP2 SUB PUSH1 0x0 DUP4 ADD MSTORE PUSH2 0xD09 DUP2 DUP9 PUSH2 0xB61 JUMP JUMPDEST SWAP1 POP DUP2 DUP2 SUB PUSH1 0x20 DUP4 ADD MSTORE PUSH2 0xD1D DUP2 DUP8 PUSH2 0xB61 JUMP JUMPDEST SWAP1 POP DUP2 DUP2 SUB PUSH1 0x40 DUP4 ADD MSTORE PUSH2 0xD31 DUP2 DUP7 PUSH2 0xB61 JUMP JUMPDEST SWAP1 POP DUP2 DUP2 SUB PUSH1 0x60 DUP4 ADD MSTORE PUSH2 0xD45 DUP2 DUP6 PUSH2 0xB61 JUMP JUMPDEST SWAP1 POP DUP2 DUP2 SUB PUSH1 0x80 DUP4 ADD MSTORE PUSH2 0xD59 DUP2 DUP5 PUSH2 0xB61 JUMP JUMPDEST SWAP1 POP SWAP7 SWAP6 POP POP POP POP POP POP JUMP JUMPDEST PUSH1 0x0 PUSH1 0xA0 DUP3 ADD SWAP1 POP DUP2 DUP2 SUB PUSH1 0x0 DUP4 ADD MSTORE PUSH2 0xD7F DUP2 DUP9 PUSH2 0xBCB JUMP JUMPDEST SWAP1 POP DUP2 DUP2 SUB PUSH1 0x20 DUP4 ADD MSTORE PUSH2 0xD93 DUP2 DUP8 PUSH2 0xBCB JUMP JUMPDEST SWAP1 POP DUP2 DUP2 SUB PUSH1 0x40 DUP4 ADD MSTORE PUSH2 0xDA7 DUP2 DUP7 PUSH2 0xBCB JUMP JUMPDEST SWAP1 POP DUP2 DUP2 SUB PUSH1 0x60 DUP4 ADD MSTORE PUSH2 0xDBB DUP2 DUP6 PUSH2 0xBCB JUMP JUMPDEST SWAP1 POP DUP2 DUP2 SUB PUSH1 0x80 DUP4 ADD MSTORE PUSH2 0xDCF DUP2 DUP5 PUSH2 0xBCB JUMP JUMPDEST SWAP1 POP SWAP7 SWAP6 POP POP POP POP POP POP JUMP JUMPDEST PUSH1 0x0 PUSH1 0x20 DUP3 ADD SWAP1 POP DUP2 DUP2 SUB PUSH1 0x0 DUP4 ADD MSTORE PUSH2 0xDF4 DUP2 PUSH2 0xC6E JUMP JUMPDEST SWAP1 POP SWAP2 SWAP1 POP JUMP JUMPDEST PUSH1 0x0 PUSH1 0x20 DUP3 ADD SWAP1 POP DUP2 DUP2 SUB PUSH1 0x0 DUP4 ADD MSTORE PUSH2 0xE14 DUP2 PUSH2 0xC91 JUMP JUMPDEST SWAP1 POP SWAP2 SWAP1 POP JUMP JUMPDEST PUSH1 0x0 PUSH1 0x20 DUP3 ADD SWAP1 POP PUSH2 0xE30 PUSH1 0x0 DUP4 ADD DUP5 PUSH2 0xCB4 JUMP JUMPDEST SWAP3 SWAP2 POP POP JUMP JUMPDEST PUSH1 0x0 PUSH2 0xE40 PUSH2 0xE51 JUMP JUMPDEST SWAP1 POP PUSH2 0xE4C DUP3 DUP3 PUSH2 0xF8A JUMP JUMPDEST SWAP2 SWAP1 POP JUMP JUMPDEST PUSH1 0x0 PUSH1 0x40 MLOAD SWAP1 POP SWAP1 JUMP JUMPDEST PUSH1 0x0 PUSH8 0xFFFFFFFFFFFFFFFF DUP3 GT ISZERO PUSH2 0xE76 JUMPI PUSH2 0xE75 PUSH2 0x1091 JUMP JUMPDEST JUMPDEST PUSH2 0xE7F DUP3 PUSH2 0x10D4 JUMP JUMPDEST SWAP1 POP PUSH1 0x20 DUP2 ADD SWAP1 POP SWAP2 SWAP1 POP JUMP JUMPDEST PUSH1 0x0 DUP2 SWAP1 POP DUP2 PUSH1 0x0 MSTORE PUSH1 0x20 PUSH1 0x0 KECCAK256 SWAP1 POP SWAP2 SWAP1 POP JUMP JUMPDEST PUSH1 0x0 DUP2 MLOAD SWAP1 POP SWAP2 SWAP1 POP JUMP JUMPDEST PUSH1 0x0 DUP3 DUP3 MSTORE PUSH1 0x20 DUP3 ADD SWAP1 POP SWAP3 SWAP2 POP POP JUMP JUMPDEST PUSH1 0x0 DUP2 SWAP1 POP SWAP3 SWAP2 POP POP JUMP JUMPDEST PUSH1 0x0 PUSH2 0xED3 DUP3 PUSH2 0xF09 JUMP JUMPDEST SWAP2 POP PUSH2 0xEDE DUP4 PUSH2 0xF09 JUMP JUMPDEST SWAP3 POP DUP3 PUSH1 0xFF SUB DUP3 GT ISZERO PUSH2 0xEF4 JUMPI PUSH2 0xEF3 PUSH2 0x1004 JUMP JUMPDEST JUMPDEST DUP3 DUP3 ADD SWAP1 POP SWAP3 SWAP2 POP POP JUMP JUMPDEST PUSH1 0x0 DUP2 SWAP1 POP SWAP2 SWAP1 POP JUMP JUMPDEST PUSH1 0x0 PUSH1 0xFF DUP3 AND SWAP1 POP SWAP2 SWAP1 POP JUMP JUMPDEST DUP3 DUP2 DUP4 CALLDATACOPY PUSH1 0x0 DUP4 DUP4 ADD MSTORE POP POP POP JUMP JUMPDEST PUSH1 0x0 JUMPDEST DUP4 DUP2 LT ISZERO PUSH2 0xF43 JUMPI DUP1 DUP3 ADD MLOAD DUP2 DUP5 ADD MSTORE PUSH1 0x20 DUP2 ADD SWAP1 POP PUSH2 0xF28 JUMP JUMPDEST DUP4 DUP2 GT ISZERO PUSH2 0xF52 JUMPI PUSH1 0x0 DUP5 DUP5 ADD MSTORE JUMPDEST POP POP POP POP JUMP JUMPDEST PUSH1 0x0 PUSH1 0x2 DUP3 DIV SWAP1 POP PUSH1 0x1 DUP3 AND DUP1 PUSH2 0xF70 JUMPI PUSH1 0x7F DUP3 AND SWAP2 POP JUMPDEST PUSH1 0x20 DUP3 LT DUP2 EQ ISZERO PUSH2 0xF84 JUMPI PUSH2 0xF83 PUSH2 0x1033 JUMP JUMPDEST JUMPDEST POP SWAP2 SWAP1 POP JUMP JUMPDEST PUSH2 0xF93 DUP3 PUSH2 0x10D4 JUMP JUMPDEST DUP2 ADD DUP2 DUP2 LT PUSH8 0xFFFFFFFFFFFFFFFF DUP3 GT OR ISZERO PUSH2 0xFB2 JUMPI PUSH2 0xFB1 PUSH2 0x1091 JUMP JUMPDEST JUMPDEST DUP1 PUSH1 0x40 MSTORE POP POP POP JUMP JUMPDEST PUSH1 0x0 PUSH2 0xFC6 DUP3 PUSH2 0xEFF JUMP JUMPDEST SWAP2 POP PUSH32 0xFFFFFFFFFFFFFFFFFFFFFFFFFFFFFFFFFFFFFFFFFFFFFFFFFFFFFFFFFFFFFFFF DUP3 EQ ISZERO PUSH2 0xFF9 JUMPI PUSH2 0xFF8 PUSH2 0x1004 JUMP JUMPDEST JUMPDEST PUSH1 0x1 DUP3 ADD SWAP1 POP SWAP2 SWAP1 POP JUMP JUMPDEST PUSH32 0x4E487B7100000000000000000000000000000000000000000000000000000000 PUSH1 0x0 MSTORE PUSH1 0x11 PUSH1 0x4 MSTORE PUSH1 0x24 PUSH1 0x0 REVERT JUMPDEST PUSH32 0x4E487B7100000000000000000000000000000000000000000000000000000000 PUSH1 0x0 MSTORE PUSH1 0x22 PUSH1 0x4 MSTORE PUSH1 0x24 PUSH1 0x0 REVERT JUMPDEST PUSH32 0x4E487B7100000000000000000000000000000000000000000000000000000000 PUSH1 0x0 MSTORE PUSH1 0x32 PUSH1 0x4 MSTORE PUSH1 0x24 PUSH1 0x0 REVERT JUMPDEST PUSH32 0x4E487B7100000000000000000000000000000000000000000000000000000000 PUSH1 0x0 MSTORE PUSH1 0x41 PUSH1 0x4 MSTORE PUSH1 0x24 PUSH1 0x0 REVERT JUMPDEST PUSH1 0x0 DUP1 REVERT JUMPDEST PUSH1 0x0 DUP1 REVERT JUMPDEST PUSH1 0x0 DUP1 REVERT JUMPDEST PUSH1 0x0 DUP1 REVERT JUMPDEST PUSH1 0x0 PUSH1 0x1F NOT PUSH1 0x1F DUP4 ADD AND SWAP1 POP SWAP2 SWAP1 POP JUMP JUMPDEST POP JUMP JUMPDEST PUSH32 0x556E7472616365642070726F6475637400000000000000000000000000000000 PUSH1 0x0 DUP3 ADD MSTORE POP JUMP JUMPDEST PUSH32 0x446576696365206E6F742070726573656E740000000000000000000000000000 PUSH1 0x0 DUP3 ADD MSTORE POP JUMP INVALID LOG2 PUSH5 0x6970667358 0x22 SLT KECCAK256 0xBD 0xAB LOG2 0x23 DUP5 0x26 0xC7 SWAP3 SWAP1 PUSH17 0xBC1E4B2DB8817BDF85C2209DBD14110D10 0xE6 0xD3 RETURNDATACOPY 0xF 0xA7 PUSH5 0x736F6C6343 STOP ADDMOD SMOD STOP CALLER "
				},
				"gasEstimates": {
					"creation": {
						"codeDepositCost": "892800",
						"executionCost": "25196",
						"totalCost": "917996"
					},
					"external": {
						"getDeviceTrack(string)": "infinite",
						"getLength()": "3449",
						"getProductTraceability()": "infinite",
						"trackProduct(string,string,string,string,string)": "infinite"
					}
				},
				"methodIdentifiers": {
					"getDeviceTrack(string)": "dafb4ef7",
					"getLength()": "be1c766b",
					"getProductTraceability()": "ab269de5",
					"trackProduct(string,string,string,string,string)": "c9a124b7"
				}
			},
			"storageLayout": {
				"storage": [
					{
						"astId": 15,
						"contract": "contracts/Traceability.sol:Traceability",
						"label": "trackNumber",
						"offset": 0,
						"slot": "0",
						"type": "t_uint8"
					},
					{
						"astId": 20,
						"contract": "contracts/Traceability.sol:Traceability",
						"label": "product",
						"offset": 0,
						"slot": "1",
						"type": "t_mapping(t_string_memory_ptr,t_struct(Product)12_storage)"
					},
					{
						"astId": 24,
						"contract": "contracts/Traceability.sol:Traceability",
						"label": "track",
						"offset": 0,
						"slot": "2",
						"type": "t_array(t_struct(Product)12_storage)dyn_storage"
					}
				],
				"types": {
					"t_array(t_struct(Product)12_storage)dyn_storage": {
						"base": "t_struct(Product)12_storage",
						"encoding": "dynamic_array",
						"label": "struct Traceability.Product[]",
						"numberOfBytes": "32"
					},
					"t_mapping(t_string_memory_ptr,t_struct(Product)12_storage)": {
						"encoding": "mapping",
						"key": "t_string_memory_ptr",
						"label": "mapping(string => struct Traceability.Product)",
						"numberOfBytes": "32",
						"value": "t_struct(Product)12_storage"
					},
					"t_string_memory_ptr": {
						"encoding": "bytes",
						"label": "string",
						"numberOfBytes": "32"
					},
					"t_string_storage": {
						"encoding": "bytes",
						"label": "string",
						"numberOfBytes": "32"
					},
					"t_struct(Product)12_storage": {
						"encoding": "inplace",
						"label": "struct Traceability.Product",
						"members": [
							{
								"astId": 3,
								"contract": "contracts/Traceability.sol:Traceability",
								"label": "latitude",
								"offset": 0,
								"slot": "0",
								"type": "t_string_storage"
							},
							{
								"astId": 5,
								"contract": "contracts/Traceability.sol:Traceability",
								"label": "longitude",
								"offset": 0,
								"slot": "1",
								"type": "t_string_storage"
							},
							{
								"astId": 7,
								"contract": "contracts/Traceability.sol:Traceability",
								"label": "altitude",
								"offset": 0,
								"slot": "2",
								"type": "t_string_storage"
							},
							{
								"astId": 9,
								"contract": "contracts/Traceability.sol:Traceability",
								"label": "timestamp",
								"offset": 0,
								"slot": "3",
								"type": "t_string_storage"
							},
							{
								"astId": 11,
								"contract": "contracts/Traceability.sol:Traceability",
								"label": "device",
								"offset": 0,
								"slot": "4",
								"type": "t_string_storage"
							}
						],
						"numberOfBytes": "160"
					},
					"t_uint8": {
						"encoding": "inplace",
						"label": "uint8",
						"numberOfBytes": "1"
					}
				}
			},
			"userdoc": {
				"kind": "user",
				"methods": {},
				"version": 1
			}
		}
	}
}