{
	"data": {
		"bytecode": {
			"linkReferences": {},
			"object": "608060405234801561001057600080fd5b50610720806100206000396000f3fe608060405234801561001057600080fd5b50600436106100415760003560e01c80637d427d6714610046578063ba74a04614610062578063be1c766b1461007e575b600080fd5b610060600480360381019061005b91906104b4565b610088565b005b61007c60048036038101906100779190610487565b6102dd565b005b610086610417565b005b8260ff16600160008677ffffffffffffffffffffffffffffffffffffffffffffffff191677ffffffffffffffffffffffffffffffffffffffffffffffff1916815260200190815260200160002060000160089054906101000a900460ff1660ff161415801561015657508160ff16600160008677ffffffffffffffffffffffffffffffffffffffffffffffff191677ffffffffffffffffffffffffffffffffffffffffffffffff1916815260200190815260200160002060000160099054906101000a900460ff1660ff1614155b61015f57600080fd5b60405180608001604052808577ffffffffffffffffffffffffffffffffffffffffffffffff191681526020018460ff1681526020018360ff1681526020018260ff16815250600160008677ffffffffffffffffffffffffffffffffffffffffffffffff191677ffffffffffffffffffffffffffffffffffffffffffffffff1916815260200190815260200160002060008201518160000160006101000a81548167ffffffffffffffff021916908360c01c021790555060208201518160000160086101000a81548160ff021916908360ff16021790555060408201518160000160096101000a81548160ff021916908360ff160217905550606082015181600101559050507f74ab4934b40787ab0b869e220f6a3f25b3294c0de6423aa568940f00a79c948184848484604051610299949392919061059c565b60405180910390a160016000808282829054906101000a900460ff166102bf91906105fc565b92506101000a81548160ff021916908360ff16021790555050505050565b6000600160008377ffffffffffffffffffffffffffffffffffffffffffffffff191677ffffffffffffffffffffffffffffffffffffffffffffffff191681526020019081526020016000206040518060800160405290816000820160009054906101000a900460c01b77ffffffffffffffffffffffffffffffffffffffffffffffff191677ffffffffffffffffffffffffffffffffffffffffffffffff191681526020016000820160089054906101000a900460ff1660ff1660ff1681526020016000820160099054906101000a900460ff1660ff1660ff16815260200160018201548152505090507fd9a0b696d66f27751e1224095275c1b79dce25bac2bec7c1a9c4a9aaab071e2e816000015182602001518360400151846060015160405161040b9493929190610557565b60405180910390a15050565b7f11faa32eb71008ea8a2443858afc5f1c2dc6531f38c8f495c23867284861764460008054906101000a900460ff1660405161045391906105e1565b60405180910390a1565b60008135905061046c816106bc565b92915050565b600081359050610481816106d3565b92915050565b60006020828403121561049d5761049c6106b7565b5b60006104ab8482850161045d565b91505092915050565b600080600080608085870312156104ce576104cd6106b7565b5b60006104dc8782880161045d565b94505060206104ed87828801610472565b93505060406104fe87828801610472565b925050606061050f87828801610472565b91505092959194509250565b61052481610633565b82525050565b6105338161065f565b82525050565b61054281610676565b82525050565b61055181610669565b82525050565b600060808201905061056c600083018761051b565b6105796020830186610548565b6105866040830185610548565b610593606083018461052a565b95945050505050565b60006080820190506105b1600083018761051b565b6105be6020830186610548565b6105cb6040830185610548565b6105d86060830184610539565b95945050505050565b60006020820190506105f66000830184610548565b92915050565b600061060782610669565b915061061283610669565b92508260ff0382111561062857610627610688565b5b828201905092915050565b60007fffffffffffffffff00000000000000000000000000000000000000000000000082169050919050565b6000819050919050565b600060ff82169050919050565b600061068182610669565b9050919050565b7f4e487b7100000000000000000000000000000000000000000000000000000000600052601160045260246000fd5b600080fd5b6106c581610633565b81146106d057600080fd5b50565b6106dc81610669565b81146106e757600080fd5b5056fea2646970667358221220baefa5e37c59742a4aa3e4a9cd57eb24c28a64f1559554748f94e9628a961c7764736f6c63430008070033",
			"opcodes": "PUSH1 0x80 PUSH1 0x40 MSTORE CALLVALUE DUP1 ISZERO PUSH2 0x10 JUMPI PUSH1 0x0 DUP1 REVERT JUMPDEST POP PUSH2 0x720 DUP1 PUSH2 0x20 PUSH1 0x0 CODECOPY PUSH1 0x0 RETURN INVALID PUSH1 0x80 PUSH1 0x40 MSTORE CALLVALUE DUP1 ISZERO PUSH2 0x10 JUMPI PUSH1 0x0 DUP1 REVERT JUMPDEST POP PUSH1 0x4 CALLDATASIZE LT PUSH2 0x41 JUMPI PUSH1 0x0 CALLDATALOAD PUSH1 0xE0 SHR DUP1 PUSH4 0x7D427D67 EQ PUSH2 0x46 JUMPI DUP1 PUSH4 0xBA74A046 EQ PUSH2 0x62 JUMPI DUP1 PUSH4 0xBE1C766B EQ PUSH2 0x7E JUMPI JUMPDEST PUSH1 0x0 DUP1 REVERT JUMPDEST PUSH2 0x60 PUSH1 0x4 DUP1 CALLDATASIZE SUB DUP2 ADD SWAP1 PUSH2 0x5B SWAP2 SWAP1 PUSH2 0x4B4 JUMP JUMPDEST PUSH2 0x88 JUMP JUMPDEST STOP JUMPDEST PUSH2 0x7C PUSH1 0x4 DUP1 CALLDATASIZE SUB DUP2 ADD SWAP1 PUSH2 0x77 SWAP2 SWAP1 PUSH2 0x487 JUMP JUMPDEST PUSH2 0x2DD JUMP JUMPDEST STOP JUMPDEST PUSH2 0x86 PUSH2 0x417 JUMP JUMPDEST STOP JUMPDEST DUP3 PUSH1 0xFF AND PUSH1 0x1 PUSH1 0x0 DUP7 PUSH24 0xFFFFFFFFFFFFFFFFFFFFFFFFFFFFFFFFFFFFFFFFFFFFFFFF NOT AND PUSH24 0xFFFFFFFFFFFFFFFFFFFFFFFFFFFFFFFFFFFFFFFFFFFFFFFF NOT AND DUP2 MSTORE PUSH1 0x20 ADD SWAP1 DUP2 MSTORE PUSH1 0x20 ADD PUSH1 0x0 KECCAK256 PUSH1 0x0 ADD PUSH1 0x8 SWAP1 SLOAD SWAP1 PUSH2 0x100 EXP SWAP1 DIV PUSH1 0xFF AND PUSH1 0xFF AND EQ ISZERO DUP1 ISZERO PUSH2 0x156 JUMPI POP DUP2 PUSH1 0xFF AND PUSH1 0x1 PUSH1 0x0 DUP7 PUSH24 0xFFFFFFFFFFFFFFFFFFFFFFFFFFFFFFFFFFFFFFFFFFFFFFFF NOT AND PUSH24 0xFFFFFFFFFFFFFFFFFFFFFFFFFFFFFFFFFFFFFFFFFFFFFFFF NOT AND DUP2 MSTORE PUSH1 0x20 ADD SWAP1 DUP2 MSTORE PUSH1 0x20 ADD PUSH1 0x0 KECCAK256 PUSH1 0x0 ADD PUSH1 0x9 SWAP1 SLOAD SWAP1 PUSH2 0x100 EXP SWAP1 DIV PUSH1 0xFF AND PUSH1 0xFF AND EQ ISZERO JUMPDEST PUSH2 0x15F JUMPI PUSH1 0x0 DUP1 REVERT JUMPDEST PUSH1 0x40 MLOAD DUP1 PUSH1 0x80 ADD PUSH1 0x40 MSTORE DUP1 DUP6 PUSH24 0xFFFFFFFFFFFFFFFFFFFFFFFFFFFFFFFFFFFFFFFFFFFFFFFF NOT AND DUP2 MSTORE PUSH1 0x20 ADD DUP5 PUSH1 0xFF AND DUP2 MSTORE PUSH1 0x20 ADD DUP4 PUSH1 0xFF AND DUP2 MSTORE PUSH1 0x20 ADD DUP3 PUSH1 0xFF AND DUP2 MSTORE POP PUSH1 0x1 PUSH1 0x0 DUP7 PUSH24 0xFFFFFFFFFFFFFFFFFFFFFFFFFFFFFFFFFFFFFFFFFFFFFFFF NOT AND PUSH24 0xFFFFFFFFFFFFFFFFFFFFFFFFFFFFFFFFFFFFFFFFFFFFFFFF NOT AND DUP2 MSTORE PUSH1 0x20 ADD SWAP1 DUP2 MSTORE PUSH1 0x20 ADD PUSH1 0x0 KECCAK256 PUSH1 0x0 DUP3 ADD MLOAD DUP2 PUSH1 0x0 ADD PUSH1 0x0 PUSH2 0x100 EXP DUP2 SLOAD DUP2 PUSH8 0xFFFFFFFFFFFFFFFF MUL NOT AND SWAP1 DUP4 PUSH1 0xC0 SHR MUL OR SWAP1 SSTORE POP PUSH1 0x20 DUP3 ADD MLOAD DUP2 PUSH1 0x0 ADD PUSH1 0x8 PUSH2 0x100 EXP DUP2 SLOAD DUP2 PUSH1 0xFF MUL NOT AND SWAP1 DUP4 PUSH1 0xFF AND MUL OR SWAP1 SSTORE POP PUSH1 0x40 DUP3 ADD MLOAD DUP2 PUSH1 0x0 ADD PUSH1 0x9 PUSH2 0x100 EXP DUP2 SLOAD DUP2 PUSH1 0xFF MUL NOT AND SWAP1 DUP4 PUSH1 0xFF AND MUL OR SWAP1 SSTORE POP PUSH1 0x60 DUP3 ADD MLOAD DUP2 PUSH1 0x1 ADD SSTORE SWAP1 POP POP PUSH32 0x74AB4934B40787AB0B869E220F6A3F25B3294C0DE6423AA568940F00A79C9481 DUP5 DUP5 DUP5 DUP5 PUSH1 0x40 MLOAD PUSH2 0x299 SWAP5 SWAP4 SWAP3 SWAP2 SWAP1 PUSH2 0x59C JUMP JUMPDEST PUSH1 0x40 MLOAD DUP1 SWAP2 SUB SWAP1 LOG1 PUSH1 0x1 PUSH1 0x0 DUP1 DUP3 DUP3 DUP3 SWAP1 SLOAD SWAP1 PUSH2 0x100 EXP SWAP1 DIV PUSH1 0xFF AND PUSH2 0x2BF SWAP2 SWAP1 PUSH2 0x5FC JUMP JUMPDEST SWAP3 POP PUSH2 0x100 EXP DUP2 SLOAD DUP2 PUSH1 0xFF MUL NOT AND SWAP1 DUP4 PUSH1 0xFF AND MUL OR SWAP1 SSTORE POP POP POP POP POP JUMP JUMPDEST PUSH1 0x0 PUSH1 0x1 PUSH1 0x0 DUP4 PUSH24 0xFFFFFFFFFFFFFFFFFFFFFFFFFFFFFFFFFFFFFFFFFFFFFFFF NOT AND PUSH24 0xFFFFFFFFFFFFFFFFFFFFFFFFFFFFFFFFFFFFFFFFFFFFFFFF NOT AND DUP2 MSTORE PUSH1 0x20 ADD SWAP1 DUP2 MSTORE PUSH1 0x20 ADD PUSH1 0x0 KECCAK256 PUSH1 0x40 MLOAD DUP1 PUSH1 0x80 ADD PUSH1 0x40 MSTORE SWAP1 DUP2 PUSH1 0x0 DUP3 ADD PUSH1 0x0 SWAP1 SLOAD SWAP1 PUSH2 0x100 EXP SWAP1 DIV PUSH1 0xC0 SHL PUSH24 0xFFFFFFFFFFFFFFFFFFFFFFFFFFFFFFFFFFFFFFFFFFFFFFFF NOT AND PUSH24 0xFFFFFFFFFFFFFFFFFFFFFFFFFFFFFFFFFFFFFFFFFFFFFFFF NOT AND DUP2 MSTORE PUSH1 0x20 ADD PUSH1 0x0 DUP3 ADD PUSH1 0x8 SWAP1 SLOAD SWAP1 PUSH2 0x100 EXP SWAP1 DIV PUSH1 0xFF AND PUSH1 0xFF AND PUSH1 0xFF AND DUP2 MSTORE PUSH1 0x20 ADD PUSH1 0x0 DUP3 ADD PUSH1 0x9 SWAP1 SLOAD SWAP1 PUSH2 0x100 EXP SWAP1 DIV PUSH1 0xFF AND PUSH1 0xFF AND PUSH1 0xFF AND DUP2 MSTORE PUSH1 0x20 ADD PUSH1 0x1 DUP3 ADD SLOAD DUP2 MSTORE POP POP SWAP1 POP PUSH32 0xD9A0B696D66F27751E1224095275C1B79DCE25BAC2BEC7C1A9C4A9AAAB071E2E DUP2 PUSH1 0x0 ADD MLOAD DUP3 PUSH1 0x20 ADD MLOAD DUP4 PUSH1 0x40 ADD MLOAD DUP5 PUSH1 0x60 ADD MLOAD PUSH1 0x40 MLOAD PUSH2 0x40B SWAP5 SWAP4 SWAP3 SWAP2 SWAP1 PUSH2 0x557 JUMP JUMPDEST PUSH1 0x40 MLOAD DUP1 SWAP2 SUB SWAP1 LOG1 POP POP JUMP JUMPDEST PUSH32 0x11FAA32EB71008EA8A2443858AFC5F1C2DC6531F38C8F495C238672848617644 PUSH1 0x0 DUP1 SLOAD SWAP1 PUSH2 0x100 EXP SWAP1 DIV PUSH1 0xFF AND PUSH1 0x40 MLOAD PUSH2 0x453 SWAP2 SWAP1 PUSH2 0x5E1 JUMP JUMPDEST PUSH1 0x40 MLOAD DUP1 SWAP2 SUB SWAP1 LOG1 JUMP JUMPDEST PUSH1 0x0 DUP2 CALLDATALOAD SWAP1 POP PUSH2 0x46C DUP2 PUSH2 0x6BC JUMP JUMPDEST SWAP3 SWAP2 POP POP JUMP JUMPDEST PUSH1 0x0 DUP2 CALLDATALOAD SWAP1 POP PUSH2 0x481 DUP2 PUSH2 0x6D3 JUMP JUMPDEST SWAP3 SWAP2 POP POP JUMP JUMPDEST PUSH1 0x0 PUSH1 0x20 DUP3 DUP5 SUB SLT ISZERO PUSH2 0x49D JUMPI PUSH2 0x49C PUSH2 0x6B7 JUMP JUMPDEST JUMPDEST PUSH1 0x0 PUSH2 0x4AB DUP5 DUP3 DUP6 ADD PUSH2 0x45D JUMP JUMPDEST SWAP2 POP POP SWAP3 SWAP2 POP POP JUMP JUMPDEST PUSH1 0x0 DUP1 PUSH1 0x0 DUP1 PUSH1 0x80 DUP6 DUP8 SUB SLT ISZERO PUSH2 0x4CE JUMPI PUSH2 0x4CD PUSH2 0x6B7 JUMP JUMPDEST JUMPDEST PUSH1 0x0 PUSH2 0x4DC DUP8 DUP3 DUP9 ADD PUSH2 0x45D JUMP JUMPDEST SWAP5 POP POP PUSH1 0x20 PUSH2 0x4ED DUP8 DUP3 DUP9 ADD PUSH2 0x472 JUMP JUMPDEST SWAP4 POP POP PUSH1 0x40 PUSH2 0x4FE DUP8 DUP3 DUP9 ADD PUSH2 0x472 JUMP JUMPDEST SWAP3 POP POP PUSH1 0x60 PUSH2 0x50F DUP8 DUP3 DUP9 ADD PUSH2 0x472 JUMP JUMPDEST SWAP2 POP POP SWAP3 SWAP6 SWAP2 SWAP5 POP SWAP3 POP JUMP JUMPDEST PUSH2 0x524 DUP2 PUSH2 0x633 JUMP JUMPDEST DUP3 MSTORE POP POP JUMP JUMPDEST PUSH2 0x533 DUP2 PUSH2 0x65F JUMP JUMPDEST DUP3 MSTORE POP POP JUMP JUMPDEST PUSH2 0x542 DUP2 PUSH2 0x676 JUMP JUMPDEST DUP3 MSTORE POP POP JUMP JUMPDEST PUSH2 0x551 DUP2 PUSH2 0x669 JUMP JUMPDEST DUP3 MSTORE POP POP JUMP JUMPDEST PUSH1 0x0 PUSH1 0x80 DUP3 ADD SWAP1 POP PUSH2 0x56C PUSH1 0x0 DUP4 ADD DUP8 PUSH2 0x51B JUMP JUMPDEST PUSH2 0x579 PUSH1 0x20 DUP4 ADD DUP7 PUSH2 0x548 JUMP JUMPDEST PUSH2 0x586 PUSH1 0x40 DUP4 ADD DUP6 PUSH2 0x548 JUMP JUMPDEST PUSH2 0x593 PUSH1 0x60 DUP4 ADD DUP5 PUSH2 0x52A JUMP JUMPDEST SWAP6 SWAP5 POP POP POP POP POP JUMP JUMPDEST PUSH1 0x0 PUSH1 0x80 DUP3 ADD SWAP1 POP PUSH2 0x5B1 PUSH1 0x0 DUP4 ADD DUP8 PUSH2 0x51B JUMP JUMPDEST PUSH2 0x5BE PUSH1 0x20 DUP4 ADD DUP7 PUSH2 0x548 JUMP JUMPDEST PUSH2 0x5CB PUSH1 0x40 DUP4 ADD DUP6 PUSH2 0x548 JUMP JUMPDEST PUSH2 0x5D8 PUSH1 0x60 DUP4 ADD DUP5 PUSH2 0x539 JUMP JUMPDEST SWAP6 SWAP5 POP POP POP POP POP JUMP JUMPDEST PUSH1 0x0 PUSH1 0x20 DUP3 ADD SWAP1 POP PUSH2 0x5F6 PUSH1 0x0 DUP4 ADD DUP5 PUSH2 0x548 JUMP JUMPDEST SWAP3 SWAP2 POP POP JUMP JUMPDEST PUSH1 0x0 PUSH2 0x607 DUP3 PUSH2 0x669 JUMP JUMPDEST SWAP2 POP PUSH2 0x612 DUP4 PUSH2 0x669 JUMP JUMPDEST SWAP3 POP DUP3 PUSH1 0xFF SUB DUP3 GT ISZERO PUSH2 0x628 JUMPI PUSH2 0x627 PUSH2 0x688 JUMP JUMPDEST JUMPDEST DUP3 DUP3 ADD SWAP1 POP SWAP3 SWAP2 POP POP JUMP JUMPDEST PUSH1 0x0 PUSH32 0xFFFFFFFFFFFFFFFF000000000000000000000000000000000000000000000000 DUP3 AND SWAP1 POP SWAP2 SWAP1 POP JUMP JUMPDEST PUSH1 0x0 DUP2 SWAP1 POP SWAP2 SWAP1 POP JUMP JUMPDEST PUSH1 0x0 PUSH1 0xFF DUP3 AND SWAP1 POP SWAP2 SWAP1 POP JUMP JUMPDEST PUSH1 0x0 PUSH2 0x681 DUP3 PUSH2 0x669 JUMP JUMPDEST SWAP1 POP SWAP2 SWAP1 POP JUMP JUMPDEST PUSH32 0x4E487B7100000000000000000000000000000000000000000000000000000000 PUSH1 0x0 MSTORE PUSH1 0x11 PUSH1 0x4 MSTORE PUSH1 0x24 PUSH1 0x0 REVERT JUMPDEST PUSH1 0x0 DUP1 REVERT JUMPDEST PUSH2 0x6C5 DUP2 PUSH2 0x633 JUMP JUMPDEST DUP2 EQ PUSH2 0x6D0 JUMPI PUSH1 0x0 DUP1 REVERT JUMPDEST POP JUMP JUMPDEST PUSH2 0x6DC DUP2 PUSH2 0x669 JUMP JUMPDEST DUP2 EQ PUSH2 0x6E7 JUMPI PUSH1 0x0 DUP1 REVERT JUMPDEST POP JUMP INVALID LOG2 PUSH5 0x6970667358 0x22 SLT KECCAK256 0xBA 0xEF 0xA5 0xE3 PUSH29 0x59742A4AA3E4A9CD57EB24C28A64F1559554748F94E9628A961C776473 PUSH16 0x6C634300080700330000000000000000 "
		},
		"gasEstimates": {
			"creation": {
				"codeDepositCost": "364800",
				"executionCost": "399",
				"totalCost": "365199"
			},
			"external": {
				"getLength()": "3496",
				"getProduct(bytes8)": "infinite",
				"trackProduct(bytes8,uint8,uint8,uint8)": "infinite"
			}
		},
		"methodIdentifiers": {
			"getLength()": "be1c766b",
			"getProduct(bytes8)": "ba74a046",
			"trackProduct(bytes8,uint8,uint8,uint8)": "7d427d67"
		}
	},
	"abi": [
		{
			"anonymous": false,
			"inputs": [
				{
					"indexed": false,
					"internalType": "bytes8",
					"name": "_name",
					"type": "bytes8"
				},
				{
					"indexed": false,
					"internalType": "uint8",
					"name": "_latitude",
					"type": "uint8"
				},
				{
					"indexed": false,
					"internalType": "uint8",
					"name": "_longitude",
					"type": "uint8"
				},
				{
					"indexed": false,
					"internalType": "uint256",
					"name": "timestamp",
					"type": "uint256"
				}
			],
			"name": "GetProduct",
			"type": "event"
		},
		{
			"anonymous": false,
			"inputs": [
				{
					"indexed": false,
					"internalType": "uint8",
					"name": "_length",
					"type": "uint8"
				}
			],
			"name": "Length",
			"type": "event"
		},
		{
			"anonymous": false,
			"inputs": [
				{
					"indexed": false,
					"internalType": "bytes8",
					"name": "_name",
					"type": "bytes8"
				},
				{
					"indexed": false,
					"internalType": "uint8",
					"name": "_latitude",
					"type": "uint8"
				},
				{
					"indexed": false,
					"internalType": "uint8",
					"name": "_longitude",
					"type": "uint8"
				},
				{
					"indexed": false,
					"internalType": "uint256",
					"name": "timestamp",
					"type": "uint256"
				}
			],
			"name": "Track",
			"type": "event"
		},
		{
			"inputs": [],
			"name": "getLength",
			"outputs": [],
			"stateMutability": "nonpayable",
			"type": "function"
		},
		{
			"inputs": [
				{
					"internalType": "bytes8",
					"name": "_name",
					"type": "bytes8"
				}
			],
			"name": "getProduct",
			"outputs": [],
			"stateMutability": "nonpayable",
			"type": "function"
		},
		{
			"inputs": [
				{
					"internalType": "bytes8",
					"name": "_name",
					"type": "bytes8"
				},
				{
					"internalType": "uint8",
					"name": "_latitude",
					"type": "uint8"
				},
				{
					"internalType": "uint8",
					"name": "_longitude",
					"type": "uint8"
				},
				{
					"internalType": "uint8",
					"name": "_timestamp",
					"type": "uint8"
				}
			],
			"name": "trackProduct",
			"outputs": [],
			"stateMutability": "nonpayable",
			"type": "function"
		}
	]
}